{
  "contractName": "Narrative",
  "abi": [
    {
      "anonymous": false,
      "inputs": [
        {
          "indexed": true,
          "internalType": "address",
          "name": "previousOwner",
          "type": "address"
        },
        {
          "indexed": true,
          "internalType": "address",
          "name": "newOwner",
          "type": "address"
        }
      ],
      "name": "OwnershipTransferred",
      "type": "event"
    },
    {
      "inputs": [],
      "name": "owner",
      "outputs": [
        {
          "internalType": "address",
          "name": "",
          "type": "address"
        }
      ],
      "stateMutability": "view",
      "type": "function"
    },
    {
      "inputs": [],
      "name": "renounceOwnership",
      "outputs": [],
      "stateMutability": "nonpayable",
      "type": "function"
    },
    {
      "inputs": [
        {
          "internalType": "address",
          "name": "newOwner",
          "type": "address"
        }
      ],
      "name": "transferOwnership",
      "outputs": [],
      "stateMutability": "nonpayable",
      "type": "function"
    },
    {
      "inputs": [],
      "name": "initialize",
      "outputs": [],
      "stateMutability": "nonpayable",
      "type": "function"
    },
    {
      "inputs": [],
      "name": "getStoryTitles",
      "outputs": [
        {
          "internalType": "string[2][]",
          "name": "",
          "type": "string[2][]"
        }
      ],
      "stateMutability": "view",
      "type": "function"
    },
    {
      "inputs": [],
      "name": "getNumStories",
      "outputs": [
        {
          "internalType": "uint256",
          "name": "",
          "type": "uint256"
        }
      ],
      "stateMutability": "view",
      "type": "function"
    },
    {
      "inputs": [
        {
          "internalType": "uint256",
          "name": "id",
          "type": "uint256"
        }
      ],
      "name": "getStory",
      "outputs": [
        {
          "internalType": "string",
          "name": "title",
          "type": "string"
        },
        {
          "internalType": "string",
          "name": "body",
          "type": "string"
        },
        {
          "internalType": "uint256",
          "name": "wordCount",
          "type": "uint256"
        },
        {
          "internalType": "address[]",
          "name": "wordContributors",
          "type": "address[]"
        },
        {
          "internalType": "string[]",
          "name": "words",
          "type": "string[]"
        }
      ],
      "stateMutability": "view",
      "type": "function"
    },
    {
      "inputs": [
        {
          "internalType": "string",
          "name": "word",
          "type": "string"
        }
      ],
      "name": "newStory",
      "outputs": [],
      "stateMutability": "payable",
      "type": "function"
    },
    {
      "inputs": [
        {
          "internalType": "uint256",
          "name": "storyID",
          "type": "uint256"
        },
        {
          "internalType": "string",
          "name": "word",
          "type": "string"
        }
      ],
      "name": "addWordToTitle",
      "outputs": [],
      "stateMutability": "payable",
      "type": "function"
    },
    {
      "inputs": [],
      "name": "deposit",
      "outputs": [],
      "stateMutability": "payable",
      "type": "function"
    },
    {
      "inputs": [],
      "name": "getBalance",
      "outputs": [
        {
          "internalType": "uint256",
          "name": "",
          "type": "uint256"
        }
      ],
      "stateMutability": "view",
      "type": "function"
    },
    {
      "inputs": [],
      "name": "ownerWithdraw",
      "outputs": [],
      "stateMutability": "nonpayable",
      "type": "function"
    },
    {
      "inputs": [
        {
          "internalType": "uint256",
          "name": "storyID",
          "type": "uint256"
        },
        {
          "internalType": "string",
          "name": "word",
          "type": "string"
        }
      ],
      "name": "addWordToStory",
      "outputs": [],
      "stateMutability": "payable",
      "type": "function"
    }
  ],
  "bytecode": "0x608060405234801561001057600080fd5b506124d3806100206000396000f3fe6080604052600436106100c25760003560e01c8063715018a61161007f578063cf45630d11610059578063cf45630d14610215578063d0e30db014610231578063d1f257001461023b578063f2fde38b14610257576100c2565b8063715018a6146101bc5780638129fc1c146101d35780638da5cb5b146101ea576100c2565b806303cf950f146100c757806312065fe0146101085780634311de8f146101335780634be6fee01461014a57806351489bcb1461017557806365060496146101a0575b600080fd5b3480156100d357600080fd5b506100ee60048036038101906100e991906115f9565b610280565b6040516100ff9594939291906118ca565b60405180910390f35b34801561011457600080fd5b5061011d610618565b60405161012a9190611939565b60405180910390f35b34801561013f57600080fd5b5061014861069c565b005b34801561015657600080fd5b5061015f6107ce565b60405161016c9190611ab8565b60405180910390f35b34801561018157600080fd5b5061018a610966565b6040516101979190611939565b60405180910390f35b6101ba60048036038101906101b59190611c0f565b610970565b005b3480156101c857600080fd5b506101d1610af5565b005b3480156101df57600080fd5b506101e8610b7d565b005b3480156101f657600080fd5b506101ff610cce565b60405161020c9190611c7a565b60405180910390f35b61022f600480360381019061022a9190611c95565b610cf8565b005b610239610d9b565b005b61025560048036038101906102509190611c0f565b610d9d565b005b34801561026357600080fd5b5061027e60048036038101906102799190611d0a565b610ef3565b005b606080600060608060655486111561029757600080fd5b6066600087815260200190815260200160002060000180546102b890611d66565b80601f01602080910402602001604051908101604052809291908181526020018280546102e490611d66565b80156103315780601f1061030657610100808354040283529160200191610331565b820191906000526020600020905b81548152906001019060200180831161031457829003601f168201915b5050505050945060666000878152602001908152602001600020600101805461035990611d66565b80601f016020809104026020016040519081016040528092919081815260200182805461038590611d66565b80156103d25780601f106103a7576101008083540402835291602001916103d2565b820191906000526020600020905b8154815290600101906020018083116103b557829003601f168201915b50505050509350606660008781526020019081526020016000206002015492508267ffffffffffffffff81111561040c5761040b611ae4565b5b60405190808252806020026020018201604052801561043f57816020015b606081526020019060019003908161042a5790505b5090508267ffffffffffffffff81111561045c5761045b611ae4565b5b60405190808252806020026020018201604052801561048a5781602001602082028036833780820191505090505b50915060005b8381101561060e5760666000888152602001908152602001600020600301600082815260200190815260200160002060009054906101000a900473ffffffffffffffffffffffffffffffffffffffff168382815181106104f3576104f2611d98565b5b602002602001019073ffffffffffffffffffffffffffffffffffffffff16908173ffffffffffffffffffffffffffffffffffffffff1681525050606660008881526020019081526020016000206004016000828152602001908152602001600020805461055f90611d66565b80601f016020809104026020016040519081016040528092919081815260200182805461058b90611d66565b80156105d85780601f106105ad576101008083540402835291602001916105d8565b820191906000526020600020905b8154815290600101906020018083116105bb57829003601f168201915b50505050508282815181106105f0576105ef611d98565b5b6020026020010181905250808061060690611df6565b915050610490565b5091939590929450565b6000610622610feb565b73ffffffffffffffffffffffffffffffffffffffff16610640610cce565b73ffffffffffffffffffffffffffffffffffffffff1614610696576040517f08c379a000000000000000000000000000000000000000000000000000000000815260040161068d90611e8b565b60405180910390fd5b47905090565b6106a4610feb565b73ffffffffffffffffffffffffffffffffffffffff166106c2610cce565b73ffffffffffffffffffffffffffffffffffffffff1614610718576040517f08c379a000000000000000000000000000000000000000000000000000000000815260040161070f90611e8b565b60405180910390fd5b6000610722610cce565b73ffffffffffffffffffffffffffffffffffffffff164760405161074590611edc565b60006040518083038185875af1925050503d8060008114610782576040519150601f19603f3d011682016040523d82523d6000602084013e610787565b606091505b50509050806107cb576040517f08c379a00000000000000000000000000000000000000000000000000000000081526004016107c290611f3d565b60405180910390fd5b50565b6060600060655467ffffffffffffffff8111156107ee576107ed611ae4565b5b60405190808252806020026020018201604052801561082757816020015b6108146114e5565b81526020019060019003908161080c5790505b50905060005b60655481101561095e5761084081610ff3565b82828151811061085357610852611d98565b5b602002602001015160006002811061086e5761086d611d98565b5b602002018190525060666000828152602001908152602001600020600001805461089790611d66565b80601f01602080910402602001604051908101604052809291908181526020018280546108c390611d66565b80156109105780601f106108e557610100808354040283529160200191610910565b820191906000526020600020905b8154815290600101906020018083116108f357829003601f168201915b505050505082828151811061092857610927611d98565b5b602002602001015160016002811061094357610942611d98565b5b6020020181905250808061095690611df6565b91505061082d565b508091505090565b6000606554905090565b61097981611154565b662386f26fc1000034146109c2576040517f08c379a00000000000000000000000000000000000000000000000000000000081526004016109b990611fcf565b60405180910390fd5b600060666000848152602001908152602001600020905060008160010180546109ea90611d66565b90501415610a105781816001019080519060200190610a0a92919061150c565b50610a4e565b8060010182604051602001610a2692919061210b565b604051602081830303815290604052816001019080519060200190610a4c92919061150c565b505b338160030160008360020154815260200190815260200160002060006101000a81548173ffffffffffffffffffffffffffffffffffffffff021916908373ffffffffffffffffffffffffffffffffffffffff16021790555081816004016000836002015481526020019081526020016000209080519060200190610ad392919061150c565b506001816002016000828254610ae9919061213a565b92505081905550505050565b610afd610feb565b73ffffffffffffffffffffffffffffffffffffffff16610b1b610cce565b73ffffffffffffffffffffffffffffffffffffffff1614610b71576040517f08c379a0000000000000000000000000000000000000000000000000000000008152600401610b6890611e8b565b60405180910390fd5b610b7b6000611174565b565b600060019054906101000a900460ff1680610ba3575060008054906101000a900460ff16155b610be2576040517f08c379a0000000000000000000000000000000000000000000000000000000008152600401610bd990612202565b60405180910390fd5b60008060019054906101000a900460ff161590508015610c32576001600060016101000a81548160ff02191690831515021790555060016000806101000a81548160ff0219169083151502179055505b610c3a61123a565b600060666000606554815260200190815260200160002090506040518060400160405280600381526020017f5468650000000000000000000000000000000000000000000000000000000000815250816000019080519060200190610ca092919061150c565b506001606581905550508015610ccb5760008060016101000a81548160ff0219169083151502179055505b50565b6000603360009054906101000a900473ffffffffffffffffffffffffffffffffffffffff16905090565b610d0181611154565b67016345785d8a00003414610d4b576040517f08c379a0000000000000000000000000000000000000000000000000000000008152600401610d4290612294565b60405180910390fd5b6000606660006065548152602001908152602001600020905081816000019080519060200190610d7c92919061150c565b50600160656000828254610d90919061213a565b925050819055505050565b565b610da681611154565b66470de4df8200003414610def576040517f08c379a0000000000000000000000000000000000000000000000000000000008152600401610de690612326565b60405180910390fd5b610df881611154565b60006066600084815260200190815260200160002090508060000182604051602001610e2592919061210b565b604051602081830303815290604052816000019080519060200190610e4b92919061150c565b50338160030160008360020154815260200190815260200160002060006101000a81548173ffffffffffffffffffffffffffffffffffffffff021916908373ffffffffffffffffffffffffffffffffffffffff16021790555081816004016000836002015481526020019081526020016000209080519060200190610ed192919061150c565b506001816002016000828254610ee7919061213a565b92505081905550505050565b610efb610feb565b73ffffffffffffffffffffffffffffffffffffffff16610f19610cce565b73ffffffffffffffffffffffffffffffffffffffff1614610f6f576040517f08c379a0000000000000000000000000000000000000000000000000000000008152600401610f6690611e8b565b60405180910390fd5b600073ffffffffffffffffffffffffffffffffffffffff168173ffffffffffffffffffffffffffffffffffffffff161415610fdf576040517f08c379a0000000000000000000000000000000000000000000000000000000008152600401610fd6906123b8565b60405180910390fd5b610fe881611174565b50565b600033905090565b6060600082141561103b576040518060400160405280600181526020017f3000000000000000000000000000000000000000000000000000000000000000815250905061114f565b600082905060005b6000821461106d57808061105690611df6565b915050600a826110669190612407565b9150611043565b60008167ffffffffffffffff81111561108957611088611ae4565b5b6040519080825280601f01601f1916602001820160405280156110bb5781602001600182028036833780820191505090505b5090505b60008514611148576001826110d49190612438565b9150600a856110e3919061246c565b60306110ef919061213a565b60f81b81838151811061110557611104611d98565b5b60200101907effffffffffffffffffffffffffffffffffffffffffffffffffffffffffffff1916908160001a905350600a856111419190612407565b94506110bf565b8093505050505b919050565b600081511161116257600080fd5b602a8151111561117157600080fd5b50565b6000603360009054906101000a900473ffffffffffffffffffffffffffffffffffffffff16905081603360006101000a81548173ffffffffffffffffffffffffffffffffffffffff021916908373ffffffffffffffffffffffffffffffffffffffff1602179055508173ffffffffffffffffffffffffffffffffffffffff168173ffffffffffffffffffffffffffffffffffffffff167f8be0079c531659141344cd1fd0a4f28419497f9722a3daafe3b4186f6b6457e060405160405180910390a35050565b600060019054906101000a900460ff1680611260575060008054906101000a900460ff16155b61129f576040517f08c379a000000000000000000000000000000000000000000000000000000000815260040161129690612202565b60405180910390fd5b60008060019054906101000a900460ff1615905080156112ef576001600060016101000a81548160ff02191690831515021790555060016000806101000a81548160ff0219169083151502179055505b6112f7611323565b6112ff6113fc565b80156113205760008060016101000a81548160ff0219169083151502179055505b50565b600060019054906101000a900460ff1680611349575060008054906101000a900460ff16155b611388576040517f08c379a000000000000000000000000000000000000000000000000000000000815260040161137f90612202565b60405180910390fd5b60008060019054906101000a900460ff1615905080156113d8576001600060016101000a81548160ff02191690831515021790555060016000806101000a81548160ff0219169083151502179055505b80156113f95760008060016101000a81548160ff0219169083151502179055505b50565b600060019054906101000a900460ff1680611422575060008054906101000a900460ff16155b611461576040517f08c379a000000000000000000000000000000000000000000000000000000000815260040161145890612202565b60405180910390fd5b60008060019054906101000a900460ff1615905080156114b1576001600060016101000a81548160ff02191690831515021790555060016000806101000a81548160ff0219169083151502179055505b6114c16114bc610feb565b611174565b80156114e25760008060016101000a81548160ff0219169083151502179055505b50565b60405180604001604052806002905b60608152602001906001900390816114f45790505090565b82805461151890611d66565b90600052602060002090601f01602090048101928261153a5760008555611581565b82601f1061155357805160ff1916838001178555611581565b82800160010185558215611581579182015b82811115611580578251825591602001919060010190611565565b5b50905061158e9190611592565b5090565b5b808211156115ab576000816000905550600101611593565b5090565b6000604051905090565b600080fd5b600080fd5b6000819050919050565b6115d6816115c3565b81146115e157600080fd5b50565b6000813590506115f3816115cd565b92915050565b60006020828403121561160f5761160e6115b9565b5b600061161d848285016115e4565b91505092915050565b600081519050919050565b600082825260208201905092915050565b60005b83811015611660578082015181840152602081019050611645565b8381111561166f576000848401525b50505050565b6000601f19601f8301169050919050565b600061169182611626565b61169b8185611631565b93506116ab818560208601611642565b6116b481611675565b840191505092915050565b6116c8816115c3565b82525050565b600081519050919050565b600082825260208201905092915050565b6000819050602082019050919050565b600073ffffffffffffffffffffffffffffffffffffffff82169050919050565b6000611725826116fa565b9050919050565b6117358161171a565b82525050565b6000611747838361172c565b60208301905092915050565b6000602082019050919050565b600061176b826116ce565b61177581856116d9565b9350611780836116ea565b8060005b838110156117b1578151611798888261173b565b97506117a383611753565b925050600181019050611784565b5085935050505092915050565b600081519050919050565b600082825260208201905092915050565b6000819050602082019050919050565b600082825260208201905092915050565b600061180682611626565b61181081856117ea565b9350611820818560208601611642565b61182981611675565b840191505092915050565b600061184083836117fb565b905092915050565b6000602082019050919050565b6000611860826117be565b61186a81856117c9565b93508360208202850161187c856117da565b8060005b858110156118b857848403895281516118998582611834565b94506118a483611848565b925060208a01995050600181019050611880565b50829750879550505050505092915050565b600060a08201905081810360008301526118e48188611686565b905081810360208301526118f88187611686565b905061190760408301866116bf565b81810360608301526119198185611760565b9050818103608083015261192d8184611855565b90509695505050505050565b600060208201905061194e60008301846116bf565b92915050565b600081519050919050565b600082825260208201905092915050565b6000819050602082019050919050565b600060029050919050565b600081905092915050565b6000819050919050565b6000602082019050919050565b60006119b882611980565b6119c2818561198b565b9350836020820285016119d485611996565b8060005b85811015611a1057848403895281516119f18582611834565b94506119fc836119a0565b925060208a019950506001810190506119d8565b50829750879550505050505092915050565b6000611a2e83836119ad565b905092915050565b6000602082019050919050565b6000611a4e82611954565b611a58818561195f565b935083602082028501611a6a85611970565b8060005b85811015611aa65784840389528151611a878582611a22565b9450611a9283611a36565b925060208a01995050600181019050611a6e565b50829750879550505050505092915050565b60006020820190508181036000830152611ad28184611a43565b905092915050565b600080fd5b600080fd5b7f4e487b7100000000000000000000000000000000000000000000000000000000600052604160045260246000fd5b611b1c82611675565b810181811067ffffffffffffffff82111715611b3b57611b3a611ae4565b5b80604052505050565b6000611b4e6115af565b9050611b5a8282611b13565b919050565b600067ffffffffffffffff821115611b7a57611b79611ae4565b5b611b8382611675565b9050602081019050919050565b82818337600083830152505050565b6000611bb2611bad84611b5f565b611b44565b905082815260208101848484011115611bce57611bcd611adf565b5b611bd9848285611b90565b509392505050565b600082601f830112611bf657611bf5611ada565b5b8135611c06848260208601611b9f565b91505092915050565b60008060408385031215611c2657611c256115b9565b5b6000611c34858286016115e4565b925050602083013567ffffffffffffffff811115611c5557611c546115be565b5b611c6185828601611be1565b9150509250929050565b611c748161171a565b82525050565b6000602082019050611c8f6000830184611c6b565b92915050565b600060208284031215611cab57611caa6115b9565b5b600082013567ffffffffffffffff811115611cc957611cc86115be565b5b611cd584828501611be1565b91505092915050565b611ce78161171a565b8114611cf257600080fd5b50565b600081359050611d0481611cde565b92915050565b600060208284031215611d2057611d1f6115b9565b5b6000611d2e84828501611cf5565b91505092915050565b7f4e487b7100000000000000000000000000000000000000000000000000000000600052602260045260246000fd5b60006002820490506001821680611d7e57607f821691505b60208210811415611d9257611d91611d37565b5b50919050565b7f4e487b7100000000000000000000000000000000000000000000000000000000600052603260045260246000fd5b7f4e487b7100000000000000000000000000000000000000000000000000000000600052601160045260246000fd5b6000611e01826115c3565b91507fffffffffffffffffffffffffffffffffffffffffffffffffffffffffffffffff821415611e3457611e33611dc7565b5b600182019050919050565b7f4f776e61626c653a2063616c6c6572206973206e6f7420746865206f776e6572600082015250565b6000611e75602083611631565b9150611e8082611e3f565b602082019050919050565b60006020820190508181036000830152611ea481611e68565b9050919050565b600081905092915050565b50565b6000611ec6600083611eab565b9150611ed182611eb6565b600082019050919050565b6000611ee782611eb9565b9150819050919050565b7f6f776e65725769746864726177206661696c6564000000000000000000000000600082015250565b6000611f27601483611631565b9150611f3282611ef1565b602082019050919050565b60006020820190508181036000830152611f5681611f1a565b9050919050565b7f596f75206d7573742070726f7669646520302e303120657468657220746f206160008201527f6464206120776f72640000000000000000000000000000000000000000000000602082015250565b6000611fb9602983611631565b9150611fc482611f5d565b604082019050919050565b60006020820190508181036000830152611fe881611fac565b9050919050565b600081905092915050565b60008190508160005260206000209050919050565b6000815461201c81611d66565b6120268186611fef565b94506001821660008114612041576001811461205257612085565b60ff19831686528186019350612085565b61205b85611ffa565b60005b8381101561207d5781548189015260018201915060208101905061205e565b838801955050505b50505092915050565b7f2000000000000000000000000000000000000000000000000000000000000000600082015250565b60006120c4600183611fef565b91506120cf8261208e565b600182019050919050565b60006120e582611626565b6120ef8185611fef565b93506120ff818560208601611642565b80840191505092915050565b6000612117828561200f565b9150612122826120b7565b915061212e82846120da565b91508190509392505050565b6000612145826115c3565b9150612150836115c3565b9250827fffffffffffffffffffffffffffffffffffffffffffffffffffffffffffffffff0382111561218557612184611dc7565b5b828201905092915050565b7f496e697469616c697a61626c653a20636f6e747261637420697320616c72656160008201527f647920696e697469616c697a6564000000000000000000000000000000000000602082015250565b60006121ec602e83611631565b91506121f782612190565b604082019050919050565b6000602082019050818103600083015261221b816121df565b9050919050565b7f596f75206d7573742070726f7669646520302e3120657468657220746f20637260008201527f656174652061206e65772073746f727900000000000000000000000000000000602082015250565b600061227e603083611631565b915061228982612222565b604082019050919050565b600060208201905081810360008301526122ad81612271565b9050919050565b7f596f75206d7573742070726f7669646520302e303220657468657220746f206160008201527f6464206120776f72640000000000000000000000000000000000000000000000602082015250565b6000612310602983611631565b915061231b826122b4565b604082019050919050565b6000602082019050818103600083015261233f81612303565b9050919050565b7f4f776e61626c653a206e6577206f776e657220697320746865207a65726f206160008201527f6464726573730000000000000000000000000000000000000000000000000000602082015250565b60006123a2602683611631565b91506123ad82612346565b604082019050919050565b600060208201905081810360008301526123d181612395565b9050919050565b7f4e487b7100000000000000000000000000000000000000000000000000000000600052601260045260246000fd5b6000612412826115c3565b915061241d836115c3565b92508261242d5761242c6123d8565b5b828204905092915050565b6000612443826115c3565b915061244e836115c3565b92508282101561246157612460611dc7565b5b828203905092915050565b6000612477826115c3565b9150612482836115c3565b925082612492576124916123d8565b5b82820690509291505056fea264697066735822122027d93063042d3b4bfcf0bc657f7d806e592c8fec7697cac2f533d9dfe93e117264736f6c634300080a0033",
  "immutableReferences": {},
  "source": "// SPDX-License-Identifier: MIT\npragma solidity ^0.8.10;\n\nimport \"@openzeppelin/contracts-upgradeable/access/OwnableUpgradeable.sol\";\nimport \"@openzeppelin/contracts-upgradeable/utils/StringsUpgradeable.sol\";\n\ncontract Narrative is OwnableUpgradeable {\n    uint256 private numStories;\n    mapping(uint256 => Story) private stories;\n\n    struct Story {\n        string title;\n        string body;\n        uint256 wordCount;\n        mapping(uint256 => address) wordContributors;\n        mapping(uint256 => string) words;\n    }\n\n    function initialize() public initializer {\n        __Ownable_init();\n        Story storage nar = stories[numStories];\n        nar.title = \"The\";\n        numStories = 1;\n    }\n\n    function getStoryTitles() public view returns (string[2][] memory) {\n        string[2][] memory titles = new string[2][](numStories);\n        for (uint256 i = 0; i < numStories; i++) {\n            titles[i][0] = StringsUpgradeable.toString(i);\n            titles[i][1] = stories[i].title;\n        }\n        return titles;\n    }\n\n    function getNumStories() public view returns (uint256) {\n        return numStories;\n    }\n\n    function getStory(uint256 id)\n        public\n        view\n        returns (\n            string memory title,\n            string memory body,\n            uint256 wordCount,\n            address[] memory wordContributors,\n            string[] memory words\n        )\n    {\n        require(id <= numStories);\n        title = stories[id].title;\n        body = stories[id].body;\n        wordCount = stories[id].wordCount;\n\n        words = new string[](wordCount);\n        wordContributors = new address[](wordCount);\n        for (uint256 i = 0; i < wordCount; i++) {\n            wordContributors[i] = stories[id].wordContributors[i];\n            words[i] = stories[id].words[i];\n        }\n\n        return (title, body, wordCount, wordContributors, words);\n    }\n\n    function newStory(string memory word) public payable {\n        validateWord(word);\n        require(\n            msg.value == 0.1 ether,\n            \"You must provide 0.1 ether to create a new story\"\n        );\n        Story storage nar = stories[numStories];\n        nar.title = word;\n        numStories += 1;\n    }\n\n    function addWordToTitle(uint256 storyID, string memory word)\n        public\n        payable\n    {\n        validateWord(word);\n        require(\n            msg.value == 0.02 ether,\n            \"You must provide 0.02 ether to add a word\"\n        );\n        validateWord(word);\n        Story storage storyToUpdate = stories[storyID];\n        storyToUpdate.title = string(\n            abi.encodePacked(storyToUpdate.title, \" \", word)\n        );\n\n        storyToUpdate.wordContributors[storyToUpdate.wordCount] = msg.sender;\n        storyToUpdate.words[storyToUpdate.wordCount] = word;\n        storyToUpdate.wordCount += 1;\n    }\n\n    function deposit() public payable {}\n\n    function getBalance() public view onlyOwner returns (uint256) {\n        return address(this).balance;\n    }\n\n    function ownerWithdraw() public onlyOwner {\n        (bool success, ) = owner().call{value: address(this).balance}(\"\");\n        require(success, \"ownerWithdraw failed\");\n    }\n\n    function addWordToStory(uint256 storyID, string memory word)\n        public\n        payable\n    {\n        validateWord(word);\n        require(\n            msg.value == 0.01 ether,\n            \"You must provide 0.01 ether to add a word\"\n        );\n\n        Story storage storyToUpdate = stories[storyID];\n\n        if (bytes(storyToUpdate.body).length == 0) {\n            storyToUpdate.body = word;\n        } else {\n            storyToUpdate.body = string(\n                abi.encodePacked(storyToUpdate.body, \" \", word)\n            );\n        }\n\n        storyToUpdate.wordContributors[storyToUpdate.wordCount] = msg.sender;\n        storyToUpdate.words[storyToUpdate.wordCount] = word;\n        storyToUpdate.wordCount += 1;\n    }\n\n    function validateWord(string memory word) private pure {\n        require(bytes(word).length > 0);\n        require(bytes(word).length <= 42);\n    }\n}\n",
  "sourcePath": "/home/jdubedition/codestore/dapp-owaat/contracts/Narrative.sol",
  "compiler": {
    "name": "solc",
    "version": "0.8.10+commit.fc410830.Emscripten.clang"
  },
  "schemaVersion": "3.4.3",
  "updatedAt": "2021-12-14T05:24:51.984Z",
  "devdoc": {
    "kind": "dev",
    "methods": {
      "owner()": {
        "details": "Returns the address of the current owner."
      },
      "renounceOwnership()": {
        "details": "Leaves the contract without owner. It will not be possible to call `onlyOwner` functions anymore. Can only be called by the current owner. NOTE: Renouncing ownership will leave the contract without an owner, thereby removing any functionality that is only available to the owner."
      },
      "transferOwnership(address)": {
        "details": "Transfers ownership of the contract to a new account (`newOwner`). Can only be called by the current owner."
      }
    },
    "version": 1
  },
  "userdoc": {
    "kind": "user",
    "methods": {},
    "version": 1
  }
}