{
  "contractName": "Narrative",
  "abi": [
    {
      "anonymous": false,
      "inputs": [
        {
          "indexed": true,
          "internalType": "address",
          "name": "previousOwner",
          "type": "address"
        },
        {
          "indexed": true,
          "internalType": "address",
          "name": "newOwner",
          "type": "address"
        }
      ],
      "name": "OwnershipTransferred",
      "type": "event"
    },
    {
      "inputs": [],
      "name": "owner",
      "outputs": [
        {
          "internalType": "address",
          "name": "",
          "type": "address"
        }
      ],
      "stateMutability": "view",
      "type": "function"
    },
    {
      "inputs": [],
      "name": "renounceOwnership",
      "outputs": [],
      "stateMutability": "nonpayable",
      "type": "function"
    },
    {
      "inputs": [
        {
          "internalType": "address",
          "name": "newOwner",
          "type": "address"
        }
      ],
      "name": "transferOwnership",
      "outputs": [],
      "stateMutability": "nonpayable",
      "type": "function"
    },
    {
      "inputs": [],
      "name": "initialize",
      "outputs": [],
      "stateMutability": "nonpayable",
      "type": "function"
    },
    {
      "inputs": [],
      "name": "getStoryTitles",
      "outputs": [
        {
          "internalType": "string[2][]",
          "name": "",
          "type": "string[2][]"
        }
      ],
      "stateMutability": "view",
      "type": "function"
    },
    {
      "inputs": [],
      "name": "getNumStories",
      "outputs": [
        {
          "internalType": "uint256",
          "name": "",
          "type": "uint256"
        }
      ],
      "stateMutability": "view",
      "type": "function"
    },
    {
      "inputs": [
        {
          "internalType": "uint256",
          "name": "id",
          "type": "uint256"
        }
      ],
      "name": "getStory",
      "outputs": [
        {
          "internalType": "string",
          "name": "title",
          "type": "string"
        },
        {
          "internalType": "string",
          "name": "story",
          "type": "string"
        },
        {
          "internalType": "uint256",
          "name": "wordCount",
          "type": "uint256"
        },
        {
          "internalType": "address[]",
          "name": "contributors",
          "type": "address[]"
        },
        {
          "internalType": "string[]",
          "name": "words",
          "type": "string[]"
        }
      ],
      "stateMutability": "view",
      "type": "function"
    },
    {
      "inputs": [
        {
          "internalType": "string",
          "name": "word",
          "type": "string"
        }
      ],
      "name": "newStory",
      "outputs": [],
      "stateMutability": "payable",
      "type": "function"
    },
    {
      "inputs": [
        {
          "internalType": "uint256",
          "name": "storyID",
          "type": "uint256"
        },
        {
          "internalType": "string",
          "name": "word",
          "type": "string"
        }
      ],
      "name": "addWordToTitle",
      "outputs": [],
      "stateMutability": "payable",
      "type": "function"
    },
    {
      "inputs": [],
      "name": "deposit",
      "outputs": [],
      "stateMutability": "payable",
      "type": "function"
    },
    {
      "inputs": [],
      "name": "getBalance",
      "outputs": [
        {
          "internalType": "uint256",
          "name": "",
          "type": "uint256"
        }
      ],
      "stateMutability": "view",
      "type": "function"
    },
    {
      "inputs": [],
      "name": "ownerWithdraw",
      "outputs": [],
      "stateMutability": "nonpayable",
      "type": "function"
    },
    {
      "inputs": [
        {
          "internalType": "uint256",
          "name": "storyID",
          "type": "uint256"
        },
        {
          "internalType": "string",
          "name": "word",
          "type": "string"
        }
      ],
      "name": "addWordToStory",
      "outputs": [],
      "stateMutability": "payable",
      "type": "function"
    }
  ],
  "bytecode": "0x608060405234801561001057600080fd5b50612449806100206000396000f3fe6080604052600436106100c25760003560e01c8063715018a61161007f578063cf45630d11610059578063cf45630d14610215578063d0e30db014610231578063d1f257001461023b578063f2fde38b14610257576100c2565b8063715018a6146101bc5780638129fc1c146101d35780638da5cb5b146101ea576100c2565b806303cf950f146100c757806312065fe0146101085780634311de8f146101335780634be6fee01461014a57806351489bcb1461017557806365060496146101a0575b600080fd5b3480156100d357600080fd5b506100ee60048036038101906100e9919061156f565b610280565b6040516100ff959493929190611840565b60405180910390f35b34801561011457600080fd5b5061011d610618565b60405161012a91906118af565b60405180910390f35b34801561013f57600080fd5b5061014861069c565b005b34801561015657600080fd5b5061015f6107ce565b60405161016c9190611a2e565b60405180910390f35b34801561018157600080fd5b5061018a610966565b60405161019791906118af565b60405180910390f35b6101ba60048036038101906101b59190611b85565b610970565b005b3480156101c857600080fd5b506101d16109d0565b005b3480156101df57600080fd5b506101e8610a58565b005b3480156101f657600080fd5b506101ff610ba9565b60405161020c9190611bf0565b60405180910390f35b61022f600480360381019061022a9190611c0b565b610bd3565b005b610239610c76565b005b61025560048036038101906102509190611b85565b610c78565b005b34801561026357600080fd5b5061027e60048036038101906102799190611c80565b610d36565b005b606080600060608060655486111561029757600080fd5b6066600087815260200190815260200160002060000180546102b890611cdc565b80601f01602080910402602001604051908101604052809291908181526020018280546102e490611cdc565b80156103315780601f1061030657610100808354040283529160200191610331565b820191906000526020600020905b81548152906001019060200180831161031457829003601f168201915b5050505050945060666000878152602001908152602001600020600101805461035990611cdc565b80601f016020809104026020016040519081016040528092919081815260200182805461038590611cdc565b80156103d25780601f106103a7576101008083540402835291602001916103d2565b820191906000526020600020905b8154815290600101906020018083116103b557829003601f168201915b50505050509350606660008781526020019081526020016000206002015492508267ffffffffffffffff81111561040c5761040b611a5a565b5b60405190808252806020026020018201604052801561043f57816020015b606081526020019060019003908161042a5790505b5090508267ffffffffffffffff81111561045c5761045b611a5a565b5b60405190808252806020026020018201604052801561048a5781602001602082028036833780820191505090505b50915060005b8381101561060e5760666000888152602001908152602001600020600301600082815260200190815260200160002060009054906101000a900473ffffffffffffffffffffffffffffffffffffffff168382815181106104f3576104f2611d0e565b5b602002602001019073ffffffffffffffffffffffffffffffffffffffff16908173ffffffffffffffffffffffffffffffffffffffff1681525050606660008881526020019081526020016000206004016000828152602001908152602001600020805461055f90611cdc565b80601f016020809104026020016040519081016040528092919081815260200182805461058b90611cdc565b80156105d85780601f106105ad576101008083540402835291602001916105d8565b820191906000526020600020905b8154815290600101906020018083116105bb57829003601f168201915b50505050508282815181106105f0576105ef611d0e565b5b6020026020010181905250808061060690611d6c565b915050610490565b5091939590929450565b6000610622610e2e565b73ffffffffffffffffffffffffffffffffffffffff16610640610ba9565b73ffffffffffffffffffffffffffffffffffffffff1614610696576040517f08c379a000000000000000000000000000000000000000000000000000000000815260040161068d90611e01565b60405180910390fd5b47905090565b6106a4610e2e565b73ffffffffffffffffffffffffffffffffffffffff166106c2610ba9565b73ffffffffffffffffffffffffffffffffffffffff1614610718576040517f08c379a000000000000000000000000000000000000000000000000000000000815260040161070f90611e01565b60405180910390fd5b6000610722610ba9565b73ffffffffffffffffffffffffffffffffffffffff164760405161074590611e52565b60006040518083038185875af1925050503d8060008114610782576040519150601f19603f3d011682016040523d82523d6000602084013e610787565b606091505b50509050806107cb576040517f08c379a00000000000000000000000000000000000000000000000000000000081526004016107c290611eb3565b60405180910390fd5b50565b6060600060655467ffffffffffffffff8111156107ee576107ed611a5a565b5b60405190808252806020026020018201604052801561082757816020015b61081461145b565b81526020019060019003908161080c5790505b50905060005b60655481101561095e5761084081610e36565b82828151811061085357610852611d0e565b5b602002602001015160006002811061086e5761086d611d0e565b5b602002018190525060666000828152602001908152602001600020600001805461089790611cdc565b80601f01602080910402602001604051908101604052809291908181526020018280546108c390611cdc565b80156109105780601f106108e557610100808354040283529160200191610910565b820191906000526020600020905b8154815290600101906020018083116108f357829003601f168201915b505050505082828151811061092857610927611d0e565b5b602002602001015160016002811061094357610942611d0e565b5b6020020181905250808061095690611d6c565b91505061082d565b508091505090565b6000606554905090565b61097981610f97565b662386f26fc1000034146109c2576040517f08c379a00000000000000000000000000000000000000000000000000000000081526004016109b990611f45565b60405180910390fd5b6109cc8282610fb7565b5050565b6109d8610e2e565b73ffffffffffffffffffffffffffffffffffffffff166109f6610ba9565b73ffffffffffffffffffffffffffffffffffffffff1614610a4c576040517f08c379a0000000000000000000000000000000000000000000000000000000008152600401610a4390611e01565b60405180910390fd5b610a5660006110ea565b565b600060019054906101000a900460ff1680610a7e575060008054906101000a900460ff16155b610abd576040517f08c379a0000000000000000000000000000000000000000000000000000000008152600401610ab490611fd7565b60405180910390fd5b60008060019054906101000a900460ff161590508015610b0d576001600060016101000a81548160ff02191690831515021790555060016000806101000a81548160ff0219169083151502179055505b610b156111b0565b600060666000606554815260200190815260200160002090506040518060400160405280600381526020017f5468650000000000000000000000000000000000000000000000000000000000815250816000019080519060200190610b7b929190611482565b506001606581905550508015610ba65760008060016101000a81548160ff0219169083151502179055505b50565b6000603360009054906101000a900473ffffffffffffffffffffffffffffffffffffffff16905090565b610bdc81610f97565b67016345785d8a00003414610c26576040517f08c379a0000000000000000000000000000000000000000000000000000000008152600401610c1d90612069565b60405180910390fd5b6000606660006065548152602001908152602001600020905081816000019080519060200190610c57929190611482565b50600160656000828254610c6b9190612089565b925050819055505050565b565b610c8181610f97565b66470de4df8200003414610cca576040517f08c379a0000000000000000000000000000000000000000000000000000000008152600401610cc190612151565b60405180910390fd5b610cd381610f97565b60006066600084815260200190815260200160002090508060000182604051602001610d0092919061228d565b604051602081830303815290604052816000019080519060200190610d26929190611482565b50610d318383610fb7565b505050565b610d3e610e2e565b73ffffffffffffffffffffffffffffffffffffffff16610d5c610ba9565b73ffffffffffffffffffffffffffffffffffffffff1614610db2576040517f08c379a0000000000000000000000000000000000000000000000000000000008152600401610da990611e01565b60405180910390fd5b600073ffffffffffffffffffffffffffffffffffffffff168173ffffffffffffffffffffffffffffffffffffffff161415610e22576040517f08c379a0000000000000000000000000000000000000000000000000000000008152600401610e199061232e565b60405180910390fd5b610e2b816110ea565b50565b600033905090565b60606000821415610e7e576040518060400160405280600181526020017f30000000000000000000000000000000000000000000000000000000000000008152509050610f92565b600082905060005b60008214610eb0578080610e9990611d6c565b915050600a82610ea9919061237d565b9150610e86565b60008167ffffffffffffffff811115610ecc57610ecb611a5a565b5b6040519080825280601f01601f191660200182016040528015610efe5781602001600182028036833780820191505090505b5090505b60008514610f8b57600182610f1791906123ae565b9150600a85610f2691906123e2565b6030610f329190612089565b60f81b818381518110610f4857610f47611d0e565b5b60200101907effffffffffffffffffffffffffffffffffffffffffffffffffffffffffffff1916908160001a905350600a85610f84919061237d565b9450610f02565b8093505050505b919050565b6000815111610fa557600080fd5b602a81511115610fb457600080fd5b50565b60006066600084815260200190815260200160002090506000816001018054610fdf90611cdc565b905014156110055781816001019080519060200190610fff929190611482565b50611043565b806001018260405160200161101b92919061228d565b604051602081830303815290604052816001019080519060200190611041929190611482565b505b338160030160008360020154815260200190815260200160002060006101000a81548173ffffffffffffffffffffffffffffffffffffffff021916908373ffffffffffffffffffffffffffffffffffffffff160217905550818160040160008360020154815260200190815260200160002090805190602001906110c8929190611482565b5060018160020160008282546110de9190612089565b92505081905550505050565b6000603360009054906101000a900473ffffffffffffffffffffffffffffffffffffffff16905081603360006101000a81548173ffffffffffffffffffffffffffffffffffffffff021916908373ffffffffffffffffffffffffffffffffffffffff1602179055508173ffffffffffffffffffffffffffffffffffffffff168173ffffffffffffffffffffffffffffffffffffffff167f8be0079c531659141344cd1fd0a4f28419497f9722a3daafe3b4186f6b6457e060405160405180910390a35050565b600060019054906101000a900460ff16806111d6575060008054906101000a900460ff16155b611215576040517f08c379a000000000000000000000000000000000000000000000000000000000815260040161120c90611fd7565b60405180910390fd5b60008060019054906101000a900460ff161590508015611265576001600060016101000a81548160ff02191690831515021790555060016000806101000a81548160ff0219169083151502179055505b61126d611299565b611275611372565b80156112965760008060016101000a81548160ff0219169083151502179055505b50565b600060019054906101000a900460ff16806112bf575060008054906101000a900460ff16155b6112fe576040517f08c379a00000000000000000000000000000000000000000000000000000000081526004016112f590611fd7565b60405180910390fd5b60008060019054906101000a900460ff16159050801561134e576001600060016101000a81548160ff02191690831515021790555060016000806101000a81548160ff0219169083151502179055505b801561136f5760008060016101000a81548160ff0219169083151502179055505b50565b600060019054906101000a900460ff1680611398575060008054906101000a900460ff16155b6113d7576040517f08c379a00000000000000000000000000000000000000000000000000000000081526004016113ce90611fd7565b60405180910390fd5b60008060019054906101000a900460ff161590508015611427576001600060016101000a81548160ff02191690831515021790555060016000806101000a81548160ff0219169083151502179055505b611437611432610e2e565b6110ea565b80156114585760008060016101000a81548160ff0219169083151502179055505b50565b60405180604001604052806002905b606081526020019060019003908161146a5790505090565b82805461148e90611cdc565b90600052602060002090601f0160209004810192826114b057600085556114f7565b82601f106114c957805160ff19168380011785556114f7565b828001600101855582156114f7579182015b828111156114f65782518255916020019190600101906114db565b5b5090506115049190611508565b5090565b5b80821115611521576000816000905550600101611509565b5090565b6000604051905090565b600080fd5b600080fd5b6000819050919050565b61154c81611539565b811461155757600080fd5b50565b60008135905061156981611543565b92915050565b6000602082840312156115855761158461152f565b5b60006115938482850161155a565b91505092915050565b600081519050919050565b600082825260208201905092915050565b60005b838110156115d65780820151818401526020810190506115bb565b838111156115e5576000848401525b50505050565b6000601f19601f8301169050919050565b60006116078261159c565b61161181856115a7565b93506116218185602086016115b8565b61162a816115eb565b840191505092915050565b61163e81611539565b82525050565b600081519050919050565b600082825260208201905092915050565b6000819050602082019050919050565b600073ffffffffffffffffffffffffffffffffffffffff82169050919050565b600061169b82611670565b9050919050565b6116ab81611690565b82525050565b60006116bd83836116a2565b60208301905092915050565b6000602082019050919050565b60006116e182611644565b6116eb818561164f565b93506116f683611660565b8060005b8381101561172757815161170e88826116b1565b9750611719836116c9565b9250506001810190506116fa565b5085935050505092915050565b600081519050919050565b600082825260208201905092915050565b6000819050602082019050919050565b600082825260208201905092915050565b600061177c8261159c565b6117868185611760565b93506117968185602086016115b8565b61179f816115eb565b840191505092915050565b60006117b68383611771565b905092915050565b6000602082019050919050565b60006117d682611734565b6117e0818561173f565b9350836020820285016117f285611750565b8060005b8581101561182e578484038952815161180f85826117aa565b945061181a836117be565b925060208a019950506001810190506117f6565b50829750879550505050505092915050565b600060a082019050818103600083015261185a81886115fc565b9050818103602083015261186e81876115fc565b905061187d6040830186611635565b818103606083015261188f81856116d6565b905081810360808301526118a381846117cb565b90509695505050505050565b60006020820190506118c46000830184611635565b92915050565b600081519050919050565b600082825260208201905092915050565b6000819050602082019050919050565b600060029050919050565b600081905092915050565b6000819050919050565b6000602082019050919050565b600061192e826118f6565b6119388185611901565b93508360208202850161194a8561190c565b8060005b85811015611986578484038952815161196785826117aa565b945061197283611916565b925060208a0199505060018101905061194e565b50829750879550505050505092915050565b60006119a48383611923565b905092915050565b6000602082019050919050565b60006119c4826118ca565b6119ce81856118d5565b9350836020820285016119e0856118e6565b8060005b85811015611a1c57848403895281516119fd8582611998565b9450611a08836119ac565b925060208a019950506001810190506119e4565b50829750879550505050505092915050565b60006020820190508181036000830152611a4881846119b9565b905092915050565b600080fd5b600080fd5b7f4e487b7100000000000000000000000000000000000000000000000000000000600052604160045260246000fd5b611a92826115eb565b810181811067ffffffffffffffff82111715611ab157611ab0611a5a565b5b80604052505050565b6000611ac4611525565b9050611ad08282611a89565b919050565b600067ffffffffffffffff821115611af057611aef611a5a565b5b611af9826115eb565b9050602081019050919050565b82818337600083830152505050565b6000611b28611b2384611ad5565b611aba565b905082815260208101848484011115611b4457611b43611a55565b5b611b4f848285611b06565b509392505050565b600082601f830112611b6c57611b6b611a50565b5b8135611b7c848260208601611b15565b91505092915050565b60008060408385031215611b9c57611b9b61152f565b5b6000611baa8582860161155a565b925050602083013567ffffffffffffffff811115611bcb57611bca611534565b5b611bd785828601611b57565b9150509250929050565b611bea81611690565b82525050565b6000602082019050611c056000830184611be1565b92915050565b600060208284031215611c2157611c2061152f565b5b600082013567ffffffffffffffff811115611c3f57611c3e611534565b5b611c4b84828501611b57565b91505092915050565b611c5d81611690565b8114611c6857600080fd5b50565b600081359050611c7a81611c54565b92915050565b600060208284031215611c9657611c9561152f565b5b6000611ca484828501611c6b565b91505092915050565b7f4e487b7100000000000000000000000000000000000000000000000000000000600052602260045260246000fd5b60006002820490506001821680611cf457607f821691505b60208210811415611d0857611d07611cad565b5b50919050565b7f4e487b7100000000000000000000000000000000000000000000000000000000600052603260045260246000fd5b7f4e487b7100000000000000000000000000000000000000000000000000000000600052601160045260246000fd5b6000611d7782611539565b91507fffffffffffffffffffffffffffffffffffffffffffffffffffffffffffffffff821415611daa57611da9611d3d565b5b600182019050919050565b7f4f776e61626c653a2063616c6c6572206973206e6f7420746865206f776e6572600082015250565b6000611deb6020836115a7565b9150611df682611db5565b602082019050919050565b60006020820190508181036000830152611e1a81611dde565b9050919050565b600081905092915050565b50565b6000611e3c600083611e21565b9150611e4782611e2c565b600082019050919050565b6000611e5d82611e2f565b9150819050919050565b7f6f776e65725769746864726177206661696c6564000000000000000000000000600082015250565b6000611e9d6014836115a7565b9150611ea882611e67565b602082019050919050565b60006020820190508181036000830152611ecc81611e90565b9050919050565b7f596f75206d7573742070726f7669646520302e303120657468657220746f206160008201527f6464206120776f72640000000000000000000000000000000000000000000000602082015250565b6000611f2f6029836115a7565b9150611f3a82611ed3565b604082019050919050565b60006020820190508181036000830152611f5e81611f22565b9050919050565b7f496e697469616c697a61626c653a20636f6e747261637420697320616c72656160008201527f647920696e697469616c697a6564000000000000000000000000000000000000602082015250565b6000611fc1602e836115a7565b9150611fcc82611f65565b604082019050919050565b60006020820190508181036000830152611ff081611fb4565b9050919050565b7f596f75206d7573742070726f7669646520302e3120657468657220746f20637260008201527f656174652061206e65772073746f727900000000000000000000000000000000602082015250565b60006120536030836115a7565b915061205e82611ff7565b604082019050919050565b6000602082019050818103600083015261208281612046565b9050919050565b600061209482611539565b915061209f83611539565b9250827fffffffffffffffffffffffffffffffffffffffffffffffffffffffffffffffff038211156120d4576120d3611d3d565b5b828201905092915050565b7f596f75206d7573742070726f7669646520302e303220657468657220746f206160008201527f6464206120776f72640000000000000000000000000000000000000000000000602082015250565b600061213b6029836115a7565b9150612146826120df565b604082019050919050565b6000602082019050818103600083015261216a8161212e565b9050919050565b600081905092915050565b60008190508160005260206000209050919050565b6000815461219e81611cdc565b6121a88186612171565b945060018216600081146121c357600181146121d457612207565b60ff19831686528186019350612207565b6121dd8561217c565b60005b838110156121ff578154818901526001820191506020810190506121e0565b838801955050505b50505092915050565b7f2000000000000000000000000000000000000000000000000000000000000000600082015250565b6000612246600183612171565b915061225182612210565b600182019050919050565b60006122678261159c565b6122718185612171565b93506122818185602086016115b8565b80840191505092915050565b60006122998285612191565b91506122a482612239565b91506122b0828461225c565b91508190509392505050565b7f4f776e61626c653a206e6577206f776e657220697320746865207a65726f206160008201527f6464726573730000000000000000000000000000000000000000000000000000602082015250565b60006123186026836115a7565b9150612323826122bc565b604082019050919050565b600060208201905081810360008301526123478161230b565b9050919050565b7f4e487b7100000000000000000000000000000000000000000000000000000000600052601260045260246000fd5b600061238882611539565b915061239383611539565b9250826123a3576123a261234e565b5b828204905092915050565b60006123b982611539565b91506123c483611539565b9250828210156123d7576123d6611d3d565b5b828203905092915050565b60006123ed82611539565b91506123f883611539565b9250826124085761240761234e565b5b82820690509291505056fea2646970667358221220a2a6d6ab16e40a8c11c56710e667aad8a91b21f4e370f7ce42387affc5d6f90e64736f6c634300080a0033",
  "immutableReferences": {},
  "source": "// SPDX-License-Identifier: MIT\npragma solidity ^0.8.10;\n\nimport \"@openzeppelin/contracts-upgradeable/access/OwnableUpgradeable.sol\";\nimport \"@openzeppelin/contracts-upgradeable/utils/StringsUpgradeable.sol\";\n\ncontract Narrative is OwnableUpgradeable {\n    uint256 private numStories;\n    mapping(uint256 => Story) private stories;\n\n    struct Story {\n        string title;\n        string story;\n        uint256 wordCount;\n        mapping(uint256 => address) contributors;\n        mapping(uint256 => string) words;\n    }\n\n    function initialize() public initializer {\n        __Ownable_init();\n        Story storage nar = stories[numStories];\n        nar.title = \"The\";\n        numStories = 1;\n    }\n\n    function getStoryTitles() public view returns (string[2][] memory) {\n        string[2][] memory titles = new string[2][](numStories);\n        for (uint256 i = 0; i < numStories; i++) {\n            titles[i][0] = StringsUpgradeable.toString(i);\n            titles[i][1] = stories[i].title;\n        }\n        return titles;\n    }\n\n    function getNumStories() public view returns (uint256) {\n        return numStories;\n    }\n\n    function getStory(uint256 id)\n        public\n        view\n        returns (\n            string memory title,\n            string memory story,\n            uint256 wordCount,\n            address[] memory contributors,\n            string[] memory words\n        )\n    {\n        require(id <= numStories);\n        title = stories[id].title;\n        story = stories[id].story;\n        wordCount = stories[id].wordCount;\n\n        words = new string[](wordCount);\n        contributors = new address[](wordCount);\n        for (uint256 i = 0; i < wordCount; i++) {\n            contributors[i] = stories[id].contributors[i];\n            words[i] = stories[id].words[i];\n        }\n\n        return (title, story, wordCount, contributors, words);\n    }\n\n    function newStory(string memory word) public payable {\n        validateWord(word);\n        require(\n            msg.value == 0.1 ether,\n            \"You must provide 0.1 ether to create a new story\"\n        );\n        Story storage nar = stories[numStories];\n        nar.title = word;\n        numStories += 1;\n    }\n\n    function addWordToTitle(uint256 storyID, string memory word)\n        public\n        payable\n    {\n        validateWord(word);\n        require(\n            msg.value == 0.02 ether,\n            \"You must provide 0.02 ether to add a word\"\n        );\n        validateWord(word);\n        Story storage storyToUpdate = stories[storyID];\n        storyToUpdate.title = string(\n            abi.encodePacked(storyToUpdate.title, \" \", word)\n        );\n        updateStoryHistory(storyID, word);\n    }\n\n    function deposit() public payable {}\n\n    function getBalance() public view onlyOwner returns (uint256) {\n        return address(this).balance;\n    }\n\n    function ownerWithdraw() public onlyOwner {\n        (bool success, ) = owner().call{value: address(this).balance}(\"\");\n        require(success, \"ownerWithdraw failed\");\n    }\n\n    function addWordToStory(uint256 storyID, string memory word)\n        public\n        payable\n    {\n        validateWord(word);\n        require(\n            msg.value == 0.01 ether,\n            \"You must provide 0.01 ether to add a word\"\n        );\n\n        updateStoryHistory(storyID, word);\n    }\n\n    // function getPhrase() public view returns (string memory) {\n    //     return storedData;\n    // }\n\n    // function getTransactionHistory()\n    //     public\n    //     view\n    //     returns (address[] memory, string[] memory)\n    // {\n    //     return (transactionHistoryAddresses, transactionHistoryPhrases);\n    // }\n\n    function validateWord(string memory word) private pure {\n        require(bytes(word).length > 0);\n        require(bytes(word).length <= 42);\n    }\n\n    function updateStoryHistory(uint256 storyID, string memory word) private {\n        Story storage storyToUpdate = stories[storyID];\n\n        if (bytes(storyToUpdate.story).length == 0) {\n            storyToUpdate.story = word;\n        } else {\n            storyToUpdate.story = string(\n                abi.encodePacked(storyToUpdate.story, \" \", word)\n            );\n        }\n\n        storyToUpdate.contributors[storyToUpdate.wordCount] = msg.sender;\n        storyToUpdate.words[storyToUpdate.wordCount] = word;\n        storyToUpdate.wordCount += 1;\n    }\n}\n",
  "sourcePath": "/home/jdubedition/codestore/dapp-owaat/contracts/Narrative.sol",
  "compiler": {
    "name": "solc",
    "version": "0.8.10+commit.fc410830.Emscripten.clang"
  },
  "schemaVersion": "3.4.3",
  "updatedAt": "2021-12-14T05:10:07.165Z",
  "devdoc": {
    "kind": "dev",
    "methods": {
      "owner()": {
        "details": "Returns the address of the current owner."
      },
      "renounceOwnership()": {
        "details": "Leaves the contract without owner. It will not be possible to call `onlyOwner` functions anymore. Can only be called by the current owner. NOTE: Renouncing ownership will leave the contract without an owner, thereby removing any functionality that is only available to the owner."
      },
      "transferOwnership(address)": {
        "details": "Transfers ownership of the contract to a new account (`newOwner`). Can only be called by the current owner."
      }
    },
    "version": 1
  },
  "userdoc": {
    "kind": "user",
    "methods": {},
    "version": 1
  }
}