{
  "contractName": "Narrative",
  "abi": [
    {
      "anonymous": false,
      "inputs": [
        {
          "indexed": true,
          "internalType": "address",
          "name": "previousOwner",
          "type": "address"
        },
        {
          "indexed": true,
          "internalType": "address",
          "name": "newOwner",
          "type": "address"
        }
      ],
      "name": "OwnershipTransferred",
      "type": "event"
    },
    {
      "inputs": [],
      "name": "owner",
      "outputs": [
        {
          "internalType": "address",
          "name": "",
          "type": "address"
        }
      ],
      "stateMutability": "view",
      "type": "function",
      "constant": true
    },
    {
      "inputs": [],
      "name": "renounceOwnership",
      "outputs": [],
      "stateMutability": "nonpayable",
      "type": "function"
    },
    {
      "inputs": [
        {
          "internalType": "address",
          "name": "newOwner",
          "type": "address"
        }
      ],
      "name": "transferOwnership",
      "outputs": [],
      "stateMutability": "nonpayable",
      "type": "function"
    },
    {
      "inputs": [],
      "name": "initialize",
      "outputs": [],
      "stateMutability": "nonpayable",
      "type": "function"
    },
    {
      "inputs": [],
      "name": "getStoryTitles",
      "outputs": [
        {
          "internalType": "string[2][]",
          "name": "",
          "type": "string[2][]"
        }
      ],
      "stateMutability": "view",
      "type": "function",
      "constant": true
    },
    {
      "inputs": [],
      "name": "getNumStories",
      "outputs": [
        {
          "internalType": "uint256",
          "name": "",
          "type": "uint256"
        }
      ],
      "stateMutability": "view",
      "type": "function",
      "constant": true
    },
    {
      "inputs": [
        {
          "internalType": "uint256",
          "name": "id",
          "type": "uint256"
        }
      ],
      "name": "getStory",
      "outputs": [
        {
          "internalType": "string",
          "name": "title",
          "type": "string"
        },
        {
          "internalType": "string",
          "name": "body",
          "type": "string"
        },
        {
          "internalType": "uint256",
          "name": "wordCount",
          "type": "uint256"
        },
        {
          "internalType": "address[]",
          "name": "wordContributors",
          "type": "address[]"
        },
        {
          "internalType": "string[]",
          "name": "words",
          "type": "string[]"
        }
      ],
      "stateMutability": "view",
      "type": "function",
      "constant": true
    },
    {
      "inputs": [
        {
          "internalType": "string",
          "name": "word",
          "type": "string"
        }
      ],
      "name": "newStory",
      "outputs": [],
      "stateMutability": "payable",
      "type": "function",
      "payable": true
    },
    {
      "inputs": [
        {
          "internalType": "uint256",
          "name": "storyID",
          "type": "uint256"
        },
        {
          "internalType": "string",
          "name": "word",
          "type": "string"
        }
      ],
      "name": "addWordToTitle",
      "outputs": [],
      "stateMutability": "payable",
      "type": "function",
      "payable": true
    },
    {
      "inputs": [],
      "name": "deposit",
      "outputs": [],
      "stateMutability": "payable",
      "type": "function",
      "payable": true
    },
    {
      "inputs": [],
      "name": "getBalance",
      "outputs": [
        {
          "internalType": "uint256",
          "name": "",
          "type": "uint256"
        }
      ],
      "stateMutability": "view",
      "type": "function",
      "constant": true
    },
    {
      "inputs": [],
      "name": "ownerWithdraw",
      "outputs": [],
      "stateMutability": "nonpayable",
      "type": "function"
    },
    {
      "inputs": [
        {
          "internalType": "uint256",
          "name": "storyID",
          "type": "uint256"
        },
        {
          "internalType": "string",
          "name": "word",
          "type": "string"
        }
      ],
      "name": "addWordToBody",
      "outputs": [],
      "stateMutability": "payable",
      "type": "function",
      "payable": true
    }
  ],
  "bytecode": "0x608060405234801561001057600080fd5b50612651806100206000396000f3fe6080604052600436106100c25760003560e01c8063725244ef1161007f578063cf45630d11610059578063cf45630d14610215578063d0e30db014610231578063d1f257001461023b578063f2fde38b14610257576100c2565b8063725244ef146101b75780638129fc1c146101d35780638da5cb5b146101ea576100c2565b806303cf950f146100c757806312065fe0146101085780634311de8f146101335780634be6fee01461014a57806351489bcb14610175578063715018a6146101a0575b600080fd5b3480156100d357600080fd5b506100ee60048036038101906100e99190611777565b610280565b6040516100ff959493929190611a48565b60405180910390f35b34801561011457600080fd5b5061011d610618565b60405161012a9190611ab7565b60405180910390f35b34801561013f57600080fd5b5061014861069c565b005b34801561015657600080fd5b5061015f6107ce565b60405161016c9190611c36565b60405180910390f35b34801561018157600080fd5b5061018a610966565b6040516101979190611ab7565b60405180910390f35b3480156101ac57600080fd5b506101b5610970565b005b6101d160048036038101906101cc9190611d8d565b6109f8565b005b3480156101df57600080fd5b506101e8610b7d565b005b3480156101f657600080fd5b506101ff610daa565b60405161020c9190611df8565b60405180910390f35b61022f600480360381019061022a9190611e13565b610dd4565b005b610239610f19565b005b61025560048036038101906102509190611d8d565b610f1b565b005b34801561026357600080fd5b5061027e60048036038101906102799190611e88565b611071565b005b606080600060608060655486111561029757600080fd5b6066600087815260200190815260200160002060000180546102b890611ee4565b80601f01602080910402602001604051908101604052809291908181526020018280546102e490611ee4565b80156103315780601f1061030657610100808354040283529160200191610331565b820191906000526020600020905b81548152906001019060200180831161031457829003601f168201915b5050505050945060666000878152602001908152602001600020600101805461035990611ee4565b80601f016020809104026020016040519081016040528092919081815260200182805461038590611ee4565b80156103d25780601f106103a7576101008083540402835291602001916103d2565b820191906000526020600020905b8154815290600101906020018083116103b557829003601f168201915b50505050509350606660008781526020019081526020016000206002015492508267ffffffffffffffff81111561040c5761040b611c62565b5b60405190808252806020026020018201604052801561043f57816020015b606081526020019060019003908161042a5790505b5090508267ffffffffffffffff81111561045c5761045b611c62565b5b60405190808252806020026020018201604052801561048a5781602001602082028036833780820191505090505b50915060005b8381101561060e5760666000888152602001908152602001600020600301600082815260200190815260200160002060009054906101000a900473ffffffffffffffffffffffffffffffffffffffff168382815181106104f3576104f2611f16565b5b602002602001019073ffffffffffffffffffffffffffffffffffffffff16908173ffffffffffffffffffffffffffffffffffffffff1681525050606660008881526020019081526020016000206004016000828152602001908152602001600020805461055f90611ee4565b80601f016020809104026020016040519081016040528092919081815260200182805461058b90611ee4565b80156105d85780601f106105ad576101008083540402835291602001916105d8565b820191906000526020600020905b8154815290600101906020018083116105bb57829003601f168201915b50505050508282815181106105f0576105ef611f16565b5b6020026020010181905250808061060690611f74565b915050610490565b5091939590929450565b6000610622611169565b73ffffffffffffffffffffffffffffffffffffffff16610640610daa565b73ffffffffffffffffffffffffffffffffffffffff1614610696576040517f08c379a000000000000000000000000000000000000000000000000000000000815260040161068d90612009565b60405180910390fd5b47905090565b6106a4611169565b73ffffffffffffffffffffffffffffffffffffffff166106c2610daa565b73ffffffffffffffffffffffffffffffffffffffff1614610718576040517f08c379a000000000000000000000000000000000000000000000000000000000815260040161070f90612009565b60405180910390fd5b6000610722610daa565b73ffffffffffffffffffffffffffffffffffffffff16476040516107459061205a565b60006040518083038185875af1925050503d8060008114610782576040519150601f19603f3d011682016040523d82523d6000602084013e610787565b606091505b50509050806107cb576040517f08c379a00000000000000000000000000000000000000000000000000000000081526004016107c2906120bb565b60405180910390fd5b50565b6060600060655467ffffffffffffffff8111156107ee576107ed611c62565b5b60405190808252806020026020018201604052801561082757816020015b610814611663565b81526020019060019003908161080c5790505b50905060005b60655481101561095e5761084081611171565b82828151811061085357610852611f16565b5b602002602001015160006002811061086e5761086d611f16565b5b602002018190525060666000828152602001908152602001600020600001805461089790611ee4565b80601f01602080910402602001604051908101604052809291908181526020018280546108c390611ee4565b80156109105780601f106108e557610100808354040283529160200191610910565b820191906000526020600020905b8154815290600101906020018083116108f357829003601f168201915b505050505082828151811061092857610927611f16565b5b602002602001015160016002811061094357610942611f16565b5b6020020181905250808061095690611f74565b91505061082d565b508091505090565b6000606554905090565b610978611169565b73ffffffffffffffffffffffffffffffffffffffff16610996610daa565b73ffffffffffffffffffffffffffffffffffffffff16146109ec576040517f08c379a00000000000000000000000000000000000000000000000000000000081526004016109e390612009565b60405180910390fd5b6109f660006112d2565b565b610a0181611398565b662386f26fc100003414610a4a576040517f08c379a0000000000000000000000000000000000000000000000000000000008152600401610a419061214d565b60405180910390fd5b60006066600084815260200190815260200160002090506000816001018054610a7290611ee4565b90501415610a985781816001019080519060200190610a9292919061168a565b50610ad6565b8060010182604051602001610aae929190612289565b604051602081830303815290604052816001019080519060200190610ad492919061168a565b505b338160030160008360020154815260200190815260200160002060006101000a81548173ffffffffffffffffffffffffffffffffffffffff021916908373ffffffffffffffffffffffffffffffffffffffff16021790555081816004016000836002015481526020019081526020016000209080519060200190610b5b92919061168a565b506001816002016000828254610b7191906122b8565b92505081905550505050565b600060019054906101000a900460ff1680610ba3575060008054906101000a900460ff16155b610be2576040517f08c379a0000000000000000000000000000000000000000000000000000000008152600401610bd990612380565b60405180910390fd5b60008060019054906101000a900460ff161590508015610c32576001600060016101000a81548160ff02191690831515021790555060016000806101000a81548160ff0219169083151502179055505b610c3a6113b8565b60006066600080815260200190815260200160002090506040518060400160405280600381526020017f5468650000000000000000000000000000000000000000000000000000000000815250816000019080519060200190610c9e92919061168a565b506001606581905550610caf610daa565b8160030160008360020154815260200190815260200160002060006101000a81548173ffffffffffffffffffffffffffffffffffffffff021916908373ffffffffffffffffffffffffffffffffffffffff1602179055506040518060400160405280600381526020017f5468650000000000000000000000000000000000000000000000000000000000815250816004016000836002015481526020019081526020016000209080519060200190610d6892919061168a565b506001816002016000828254610d7e91906122b8565b92505081905550508015610da75760008060016101000a81548160ff0219169083151502179055505b50565b6000603360009054906101000a900473ffffffffffffffffffffffffffffffffffffffff16905090565b610ddd81611398565b67016345785d8a00003414610e27576040517f08c379a0000000000000000000000000000000000000000000000000000000008152600401610e1e90612412565b60405180910390fd5b6000606660006065548152602001908152602001600020905081816000019080519060200190610e5892919061168a565b50600160656000828254610e6c91906122b8565b92505081905550338160030160008360020154815260200190815260200160002060006101000a81548173ffffffffffffffffffffffffffffffffffffffff021916908373ffffffffffffffffffffffffffffffffffffffff16021790555081816004016000836002015481526020019081526020016000209080519060200190610ef892919061168a565b506001816002016000828254610f0e91906122b8565b925050819055505050565b565b610f2481611398565b66470de4df8200003414610f6d576040517f08c379a0000000000000000000000000000000000000000000000000000000008152600401610f64906124a4565b60405180910390fd5b610f7681611398565b60006066600084815260200190815260200160002090508060000182604051602001610fa3929190612289565b604051602081830303815290604052816000019080519060200190610fc992919061168a565b50338160030160008360020154815260200190815260200160002060006101000a81548173ffffffffffffffffffffffffffffffffffffffff021916908373ffffffffffffffffffffffffffffffffffffffff1602179055508181600401600083600201548152602001908152602001600020908051906020019061104f92919061168a565b50600181600201600082825461106591906122b8565b92505081905550505050565b611079611169565b73ffffffffffffffffffffffffffffffffffffffff16611097610daa565b73ffffffffffffffffffffffffffffffffffffffff16146110ed576040517f08c379a00000000000000000000000000000000000000000000000000000000081526004016110e490612009565b60405180910390fd5b600073ffffffffffffffffffffffffffffffffffffffff168173ffffffffffffffffffffffffffffffffffffffff16141561115d576040517f08c379a000000000000000000000000000000000000000000000000000000000815260040161115490612536565b60405180910390fd5b611166816112d2565b50565b600033905090565b606060008214156111b9576040518060400160405280600181526020017f300000000000000000000000000000000000000000000000000000000000000081525090506112cd565b600082905060005b600082146111eb5780806111d490611f74565b915050600a826111e49190612585565b91506111c1565b60008167ffffffffffffffff81111561120757611206611c62565b5b6040519080825280601f01601f1916602001820160405280156112395781602001600182028036833780820191505090505b5090505b600085146112c65760018261125291906125b6565b9150600a8561126191906125ea565b603061126d91906122b8565b60f81b81838151811061128357611282611f16565b5b60200101907effffffffffffffffffffffffffffffffffffffffffffffffffffffffffffff1916908160001a905350600a856112bf9190612585565b945061123d565b8093505050505b919050565b6000603360009054906101000a900473ffffffffffffffffffffffffffffffffffffffff16905081603360006101000a81548173ffffffffffffffffffffffffffffffffffffffff021916908373ffffffffffffffffffffffffffffffffffffffff1602179055508173ffffffffffffffffffffffffffffffffffffffff168173ffffffffffffffffffffffffffffffffffffffff167f8be0079c531659141344cd1fd0a4f28419497f9722a3daafe3b4186f6b6457e060405160405180910390a35050565b60008151116113a657600080fd5b602a815111156113b557600080fd5b50565b600060019054906101000a900460ff16806113de575060008054906101000a900460ff16155b61141d576040517f08c379a000000000000000000000000000000000000000000000000000000000815260040161141490612380565b60405180910390fd5b60008060019054906101000a900460ff16159050801561146d576001600060016101000a81548160ff02191690831515021790555060016000806101000a81548160ff0219169083151502179055505b6114756114a1565b61147d61157a565b801561149e5760008060016101000a81548160ff0219169083151502179055505b50565b600060019054906101000a900460ff16806114c7575060008054906101000a900460ff16155b611506576040517f08c379a00000000000000000000000000000000000000000000000000000000081526004016114fd90612380565b60405180910390fd5b60008060019054906101000a900460ff161590508015611556576001600060016101000a81548160ff02191690831515021790555060016000806101000a81548160ff0219169083151502179055505b80156115775760008060016101000a81548160ff0219169083151502179055505b50565b600060019054906101000a900460ff16806115a0575060008054906101000a900460ff16155b6115df576040517f08c379a00000000000000000000000000000000000000000000000000000000081526004016115d690612380565b60405180910390fd5b60008060019054906101000a900460ff16159050801561162f576001600060016101000a81548160ff02191690831515021790555060016000806101000a81548160ff0219169083151502179055505b61163f61163a611169565b6112d2565b80156116605760008060016101000a81548160ff0219169083151502179055505b50565b60405180604001604052806002905b60608152602001906001900390816116725790505090565b82805461169690611ee4565b90600052602060002090601f0160209004810192826116b857600085556116ff565b82601f106116d157805160ff19168380011785556116ff565b828001600101855582156116ff579182015b828111156116fe5782518255916020019190600101906116e3565b5b50905061170c9190611710565b5090565b5b80821115611729576000816000905550600101611711565b5090565b6000604051905090565b600080fd5b600080fd5b6000819050919050565b61175481611741565b811461175f57600080fd5b50565b6000813590506117718161174b565b92915050565b60006020828403121561178d5761178c611737565b5b600061179b84828501611762565b91505092915050565b600081519050919050565b600082825260208201905092915050565b60005b838110156117de5780820151818401526020810190506117c3565b838111156117ed576000848401525b50505050565b6000601f19601f8301169050919050565b600061180f826117a4565b61181981856117af565b93506118298185602086016117c0565b611832816117f3565b840191505092915050565b61184681611741565b82525050565b600081519050919050565b600082825260208201905092915050565b6000819050602082019050919050565b600073ffffffffffffffffffffffffffffffffffffffff82169050919050565b60006118a382611878565b9050919050565b6118b381611898565b82525050565b60006118c583836118aa565b60208301905092915050565b6000602082019050919050565b60006118e98261184c565b6118f38185611857565b93506118fe83611868565b8060005b8381101561192f57815161191688826118b9565b9750611921836118d1565b925050600181019050611902565b5085935050505092915050565b600081519050919050565b600082825260208201905092915050565b6000819050602082019050919050565b600082825260208201905092915050565b6000611984826117a4565b61198e8185611968565b935061199e8185602086016117c0565b6119a7816117f3565b840191505092915050565b60006119be8383611979565b905092915050565b6000602082019050919050565b60006119de8261193c565b6119e88185611947565b9350836020820285016119fa85611958565b8060005b85811015611a365784840389528151611a1785826119b2565b9450611a22836119c6565b925060208a019950506001810190506119fe565b50829750879550505050505092915050565b600060a0820190508181036000830152611a628188611804565b90508181036020830152611a768187611804565b9050611a85604083018661183d565b8181036060830152611a9781856118de565b90508181036080830152611aab81846119d3565b90509695505050505050565b6000602082019050611acc600083018461183d565b92915050565b600081519050919050565b600082825260208201905092915050565b6000819050602082019050919050565b600060029050919050565b600081905092915050565b6000819050919050565b6000602082019050919050565b6000611b3682611afe565b611b408185611b09565b935083602082028501611b5285611b14565b8060005b85811015611b8e5784840389528151611b6f85826119b2565b9450611b7a83611b1e565b925060208a01995050600181019050611b56565b50829750879550505050505092915050565b6000611bac8383611b2b565b905092915050565b6000602082019050919050565b6000611bcc82611ad2565b611bd68185611add565b935083602082028501611be885611aee565b8060005b85811015611c245784840389528151611c058582611ba0565b9450611c1083611bb4565b925060208a01995050600181019050611bec565b50829750879550505050505092915050565b60006020820190508181036000830152611c508184611bc1565b905092915050565b600080fd5b600080fd5b7f4e487b7100000000000000000000000000000000000000000000000000000000600052604160045260246000fd5b611c9a826117f3565b810181811067ffffffffffffffff82111715611cb957611cb8611c62565b5b80604052505050565b6000611ccc61172d565b9050611cd88282611c91565b919050565b600067ffffffffffffffff821115611cf857611cf7611c62565b5b611d01826117f3565b9050602081019050919050565b82818337600083830152505050565b6000611d30611d2b84611cdd565b611cc2565b905082815260208101848484011115611d4c57611d4b611c5d565b5b611d57848285611d0e565b509392505050565b600082601f830112611d7457611d73611c58565b5b8135611d84848260208601611d1d565b91505092915050565b60008060408385031215611da457611da3611737565b5b6000611db285828601611762565b925050602083013567ffffffffffffffff811115611dd357611dd261173c565b5b611ddf85828601611d5f565b9150509250929050565b611df281611898565b82525050565b6000602082019050611e0d6000830184611de9565b92915050565b600060208284031215611e2957611e28611737565b5b600082013567ffffffffffffffff811115611e4757611e4661173c565b5b611e5384828501611d5f565b91505092915050565b611e6581611898565b8114611e7057600080fd5b50565b600081359050611e8281611e5c565b92915050565b600060208284031215611e9e57611e9d611737565b5b6000611eac84828501611e73565b91505092915050565b7f4e487b7100000000000000000000000000000000000000000000000000000000600052602260045260246000fd5b60006002820490506001821680611efc57607f821691505b60208210811415611f1057611f0f611eb5565b5b50919050565b7f4e487b7100000000000000000000000000000000000000000000000000000000600052603260045260246000fd5b7f4e487b7100000000000000000000000000000000000000000000000000000000600052601160045260246000fd5b6000611f7f82611741565b91507fffffffffffffffffffffffffffffffffffffffffffffffffffffffffffffffff821415611fb257611fb1611f45565b5b600182019050919050565b7f4f776e61626c653a2063616c6c6572206973206e6f7420746865206f776e6572600082015250565b6000611ff36020836117af565b9150611ffe82611fbd565b602082019050919050565b6000602082019050818103600083015261202281611fe6565b9050919050565b600081905092915050565b50565b6000612044600083612029565b915061204f82612034565b600082019050919050565b600061206582612037565b9150819050919050565b7f6f776e65725769746864726177206661696c6564000000000000000000000000600082015250565b60006120a56014836117af565b91506120b08261206f565b602082019050919050565b600060208201905081810360008301526120d481612098565b9050919050565b7f596f75206d7573742070726f7669646520302e303120657468657220746f206160008201527f6464206120776f72640000000000000000000000000000000000000000000000602082015250565b60006121376029836117af565b9150612142826120db565b604082019050919050565b600060208201905081810360008301526121668161212a565b9050919050565b600081905092915050565b60008190508160005260206000209050919050565b6000815461219a81611ee4565b6121a4818661216d565b945060018216600081146121bf57600181146121d057612203565b60ff19831686528186019350612203565b6121d985612178565b60005b838110156121fb578154818901526001820191506020810190506121dc565b838801955050505b50505092915050565b7f2000000000000000000000000000000000000000000000000000000000000000600082015250565b600061224260018361216d565b915061224d8261220c565b600182019050919050565b6000612263826117a4565b61226d818561216d565b935061227d8185602086016117c0565b80840191505092915050565b6000612295828561218d565b91506122a082612235565b91506122ac8284612258565b91508190509392505050565b60006122c382611741565b91506122ce83611741565b9250827fffffffffffffffffffffffffffffffffffffffffffffffffffffffffffffffff0382111561230357612302611f45565b5b828201905092915050565b7f496e697469616c697a61626c653a20636f6e747261637420697320616c72656160008201527f647920696e697469616c697a6564000000000000000000000000000000000000602082015250565b600061236a602e836117af565b91506123758261230e565b604082019050919050565b600060208201905081810360008301526123998161235d565b9050919050565b7f596f75206d7573742070726f7669646520302e3120657468657220746f20637260008201527f656174652061206e65772073746f727900000000000000000000000000000000602082015250565b60006123fc6030836117af565b9150612407826123a0565b604082019050919050565b6000602082019050818103600083015261242b816123ef565b9050919050565b7f596f75206d7573742070726f7669646520302e303220657468657220746f206160008201527f6464206120776f72640000000000000000000000000000000000000000000000602082015250565b600061248e6029836117af565b915061249982612432565b604082019050919050565b600060208201905081810360008301526124bd81612481565b9050919050565b7f4f776e61626c653a206e6577206f776e657220697320746865207a65726f206160008201527f6464726573730000000000000000000000000000000000000000000000000000602082015250565b60006125206026836117af565b915061252b826124c4565b604082019050919050565b6000602082019050818103600083015261254f81612513565b9050919050565b7f4e487b7100000000000000000000000000000000000000000000000000000000600052601260045260246000fd5b600061259082611741565b915061259b83611741565b9250826125ab576125aa612556565b5b828204905092915050565b60006125c182611741565b91506125cc83611741565b9250828210156125df576125de611f45565b5b828203905092915050565b60006125f582611741565b915061260083611741565b9250826126105761260f612556565b5b82820690509291505056fea2646970667358221220797414f92cf8b74ccb835a24dd0981e9de0569bf53ff26a07851625a3d464ff064736f6c634300080a0033",
  "immutableReferences": {},
  "source": "// SPDX-License-Identifier: MIT\npragma solidity ^0.8.10;\n\nimport \"@openzeppelin/contracts-upgradeable/access/OwnableUpgradeable.sol\";\nimport \"@openzeppelin/contracts-upgradeable/utils/StringsUpgradeable.sol\";\n\ncontract Narrative is OwnableUpgradeable {\n    uint256 private numStories;\n    mapping(uint256 => Story) private stories;\n\n    struct Story {\n        string title;\n        string body;\n        uint256 wordCount;\n        mapping(uint256 => address) wordContributors;\n        mapping(uint256 => string) words;\n    }\n\n    function initialize() public initializer {\n        __Ownable_init();\n        Story storage storyToUpdate = stories[0];\n        storyToUpdate.title = \"The\";\n        numStories = 1;\n\n        storyToUpdate.wordContributors[storyToUpdate.wordCount] = owner();\n        storyToUpdate.words[storyToUpdate.wordCount] = \"The\";\n        storyToUpdate.wordCount += 1;\n    }\n\n    function getStoryTitles() public view returns (string[2][] memory) {\n        string[2][] memory titles = new string[2][](numStories);\n        for (uint256 i = 0; i < numStories; i++) {\n            titles[i][0] = StringsUpgradeable.toString(i);\n            titles[i][1] = stories[i].title;\n        }\n        return titles;\n    }\n\n    function getNumStories() public view returns (uint256) {\n        return numStories;\n    }\n\n    function getStory(uint256 id)\n        public\n        view\n        returns (\n            string memory title,\n            string memory body,\n            uint256 wordCount,\n            address[] memory wordContributors,\n            string[] memory words\n        )\n    {\n        require(id <= numStories);\n        title = stories[id].title;\n        body = stories[id].body;\n        wordCount = stories[id].wordCount;\n\n        words = new string[](wordCount);\n        wordContributors = new address[](wordCount);\n        for (uint256 i = 0; i < wordCount; i++) {\n            wordContributors[i] = stories[id].wordContributors[i];\n            words[i] = stories[id].words[i];\n        }\n\n        return (title, body, wordCount, wordContributors, words);\n    }\n\n    function newStory(string memory word) public payable {\n        validateWord(word);\n        require(\n            msg.value == 0.1 ether,\n            \"You must provide 0.1 ether to create a new story\"\n        );\n        Story storage storyToUpdate = stories[numStories];\n        storyToUpdate.title = word;\n        numStories += 1;\n\n        storyToUpdate.wordContributors[storyToUpdate.wordCount] = msg.sender;\n        storyToUpdate.words[storyToUpdate.wordCount] = word;\n        storyToUpdate.wordCount += 1;\n    }\n\n    function addWordToTitle(uint256 storyID, string memory word)\n        public\n        payable\n    {\n        validateWord(word);\n        require(\n            msg.value == 0.02 ether,\n            \"You must provide 0.02 ether to add a word\"\n        );\n        validateWord(word);\n        Story storage storyToUpdate = stories[storyID];\n        storyToUpdate.title = string(\n            abi.encodePacked(storyToUpdate.title, \" \", word)\n        );\n\n        storyToUpdate.wordContributors[storyToUpdate.wordCount] = msg.sender;\n        storyToUpdate.words[storyToUpdate.wordCount] = word;\n        storyToUpdate.wordCount += 1;\n    }\n\n    function deposit() public payable {}\n\n    function getBalance() public view onlyOwner returns (uint256) {\n        return address(this).balance;\n    }\n\n    function ownerWithdraw() public onlyOwner {\n        (bool success, ) = owner().call{value: address(this).balance}(\"\");\n        require(success, \"ownerWithdraw failed\");\n    }\n\n    function addWordToBody(uint256 storyID, string memory word)\n        public\n        payable\n    {\n        validateWord(word);\n        require(\n            msg.value == 0.01 ether,\n            \"You must provide 0.01 ether to add a word\"\n        );\n\n        Story storage storyToUpdate = stories[storyID];\n\n        if (bytes(storyToUpdate.body).length == 0) {\n            storyToUpdate.body = word;\n        } else {\n            storyToUpdate.body = string(\n                abi.encodePacked(storyToUpdate.body, \" \", word)\n            );\n        }\n\n        storyToUpdate.wordContributors[storyToUpdate.wordCount] = msg.sender;\n        storyToUpdate.words[storyToUpdate.wordCount] = word;\n        storyToUpdate.wordCount += 1;\n    }\n\n    function validateWord(string memory word) private pure {\n        require(bytes(word).length > 0);\n        require(bytes(word).length <= 42);\n    }\n}\n",
  "sourcePath": "/home/jdubedition/codestore/dapp-owaat/contracts/Narrative.sol",
  "compiler": {
    "name": "solc",
    "version": "0.8.10+commit.fc410830.Emscripten.clang"
  },
  "schemaVersion": "3.4.3",
  "updatedAt": "2021-12-15T05:49:50.337Z",
  "networkType": "ethereum",
  "devdoc": {
    "kind": "dev",
    "methods": {
      "owner()": {
        "details": "Returns the address of the current owner."
      },
      "renounceOwnership()": {
        "details": "Leaves the contract without owner. It will not be possible to call `onlyOwner` functions anymore. Can only be called by the current owner. NOTE: Renouncing ownership will leave the contract without an owner, thereby removing any functionality that is only available to the owner."
      },
      "transferOwnership(address)": {
        "details": "Transfers ownership of the contract to a new account (`newOwner`). Can only be called by the current owner."
      }
    },
    "version": 1
  },
  "userdoc": {
    "kind": "user",
    "methods": {},
    "version": 1
  }
}