{
  "contractName": "Narrative",
  "abi": [
    {
      "anonymous": false,
      "inputs": [
        {
          "indexed": true,
          "internalType": "address",
          "name": "previousOwner",
          "type": "address"
        },
        {
          "indexed": true,
          "internalType": "address",
          "name": "newOwner",
          "type": "address"
        }
      ],
      "name": "OwnershipTransferred",
      "type": "event"
    },
    {
      "inputs": [],
      "name": "owner",
      "outputs": [
        {
          "internalType": "address",
          "name": "",
          "type": "address"
        }
      ],
      "stateMutability": "view",
      "type": "function",
      "constant": true
    },
    {
      "inputs": [],
      "name": "renounceOwnership",
      "outputs": [],
      "stateMutability": "nonpayable",
      "type": "function"
    },
    {
      "inputs": [
        {
          "internalType": "address",
          "name": "newOwner",
          "type": "address"
        }
      ],
      "name": "transferOwnership",
      "outputs": [],
      "stateMutability": "nonpayable",
      "type": "function"
    },
    {
      "inputs": [],
      "name": "initialize",
      "outputs": [],
      "stateMutability": "nonpayable",
      "type": "function"
    },
    {
      "inputs": [],
      "name": "getStoryTitles",
      "outputs": [
        {
          "internalType": "string[2][]",
          "name": "",
          "type": "string[2][]"
        }
      ],
      "stateMutability": "view",
      "type": "function",
      "constant": true
    },
    {
      "inputs": [],
      "name": "getNumStories",
      "outputs": [
        {
          "internalType": "uint256",
          "name": "",
          "type": "uint256"
        }
      ],
      "stateMutability": "view",
      "type": "function",
      "constant": true
    },
    {
      "inputs": [
        {
          "internalType": "uint256",
          "name": "id",
          "type": "uint256"
        }
      ],
      "name": "getStory",
      "outputs": [
        {
          "internalType": "string",
          "name": "title",
          "type": "string"
        },
        {
          "internalType": "string",
          "name": "body",
          "type": "string"
        },
        {
          "internalType": "uint256",
          "name": "wordCount",
          "type": "uint256"
        },
        {
          "internalType": "address[]",
          "name": "wordContributors",
          "type": "address[]"
        },
        {
          "internalType": "string[]",
          "name": "words",
          "type": "string[]"
        }
      ],
      "stateMutability": "view",
      "type": "function",
      "constant": true
    },
    {
      "inputs": [
        {
          "internalType": "string",
          "name": "word",
          "type": "string"
        }
      ],
      "name": "newStory",
      "outputs": [],
      "stateMutability": "payable",
      "type": "function",
      "payable": true
    },
    {
      "inputs": [
        {
          "internalType": "uint256",
          "name": "storyID",
          "type": "uint256"
        },
        {
          "internalType": "string",
          "name": "word",
          "type": "string"
        }
      ],
      "name": "addWordToTitle",
      "outputs": [],
      "stateMutability": "payable",
      "type": "function",
      "payable": true
    },
    {
      "inputs": [],
      "name": "deposit",
      "outputs": [],
      "stateMutability": "payable",
      "type": "function",
      "payable": true
    },
    {
      "inputs": [],
      "name": "getBalance",
      "outputs": [
        {
          "internalType": "uint256",
          "name": "",
          "type": "uint256"
        }
      ],
      "stateMutability": "view",
      "type": "function",
      "constant": true
    },
    {
      "inputs": [],
      "name": "ownerWithdraw",
      "outputs": [],
      "stateMutability": "nonpayable",
      "type": "function"
    },
    {
      "inputs": [
        {
          "internalType": "uint256",
          "name": "storyID",
          "type": "uint256"
        },
        {
          "internalType": "string",
          "name": "word",
          "type": "string"
        }
      ],
      "name": "addWordToBody",
      "outputs": [],
      "stateMutability": "payable",
      "type": "function",
      "payable": true
    }
  ],
  "bytecode": "0x608060405234801561001057600080fd5b50612d53806100206000396000f3fe6080604052600436106100c25760003560e01c8063725244ef1161007f578063cf45630d11610059578063cf45630d14610215578063d0e30db014610231578063d1f257001461023b578063f2fde38b14610257576100c2565b8063725244ef146101b75780638129fc1c146101d35780638da5cb5b146101ea576100c2565b806303cf950f146100c757806312065fe0146101085780634311de8f146101335780634be6fee01461014a57806351489bcb14610175578063715018a6146101a0575b600080fd5b3480156100d357600080fd5b506100ee60048036038101906100e991906119f5565b610280565b6040516100ff959493929190611cc6565b60405180910390f35b34801561011457600080fd5b5061011d610618565b60405161012a9190611d35565b60405180910390f35b34801561013f57600080fd5b5061014861069c565b005b34801561015657600080fd5b5061015f6107ce565b60405161016c9190611eb4565b60405180910390f35b34801561018157600080fd5b5061018a610966565b6040516101979190611d35565b60405180910390f35b3480156101ac57600080fd5b506101b5610970565b005b6101d160048036038101906101cc919061200b565b6109f8565b005b3480156101df57600080fd5b506101e8610bf9565b005b3480156101f657600080fd5b506101ff610e26565b60405161020c9190612076565b60405180910390f35b61022f600480360381019061022a9190612091565b610e50565b005b610239611012565b005b6102556004803603810190610250919061200b565b611014565b005b34801561026357600080fd5b5061027e60048036038101906102799190612106565b6111dd565b005b606080600060608060655486111561029757600080fd5b6066600087815260200190815260200160002060000180546102b890612162565b80601f01602080910402602001604051908101604052809291908181526020018280546102e490612162565b80156103315780601f1061030657610100808354040283529160200191610331565b820191906000526020600020905b81548152906001019060200180831161031457829003601f168201915b5050505050945060666000878152602001908152602001600020600101805461035990612162565b80601f016020809104026020016040519081016040528092919081815260200182805461038590612162565b80156103d25780601f106103a7576101008083540402835291602001916103d2565b820191906000526020600020905b8154815290600101906020018083116103b557829003601f168201915b50505050509350606660008781526020019081526020016000206002015492508267ffffffffffffffff81111561040c5761040b611ee0565b5b60405190808252806020026020018201604052801561043f57816020015b606081526020019060019003908161042a5790505b5090508267ffffffffffffffff81111561045c5761045b611ee0565b5b60405190808252806020026020018201604052801561048a5781602001602082028036833780820191505090505b50915060005b8381101561060e5760666000888152602001908152602001600020600301600082815260200190815260200160002060009054906101000a900473ffffffffffffffffffffffffffffffffffffffff168382815181106104f3576104f2612194565b5b602002602001019073ffffffffffffffffffffffffffffffffffffffff16908173ffffffffffffffffffffffffffffffffffffffff1681525050606660008881526020019081526020016000206004016000828152602001908152602001600020805461055f90612162565b80601f016020809104026020016040519081016040528092919081815260200182805461058b90612162565b80156105d85780601f106105ad576101008083540402835291602001916105d8565b820191906000526020600020905b8154815290600101906020018083116105bb57829003601f168201915b50505050508282815181106105f0576105ef612194565b5b60200260200101819052508080610606906121f2565b915050610490565b5091939590929450565b60006106226112d5565b73ffffffffffffffffffffffffffffffffffffffff16610640610e26565b73ffffffffffffffffffffffffffffffffffffffff1614610696576040517f08c379a000000000000000000000000000000000000000000000000000000000815260040161068d90612287565b60405180910390fd5b47905090565b6106a46112d5565b73ffffffffffffffffffffffffffffffffffffffff166106c2610e26565b73ffffffffffffffffffffffffffffffffffffffff1614610718576040517f08c379a000000000000000000000000000000000000000000000000000000000815260040161070f90612287565b60405180910390fd5b6000610722610e26565b73ffffffffffffffffffffffffffffffffffffffff1647604051610745906122d8565b60006040518083038185875af1925050503d8060008114610782576040519150601f19603f3d011682016040523d82523d6000602084013e610787565b606091505b50509050806107cb576040517f08c379a00000000000000000000000000000000000000000000000000000000081526004016107c290612339565b60405180910390fd5b50565b6060600060655467ffffffffffffffff8111156107ee576107ed611ee0565b5b60405190808252806020026020018201604052801561082757816020015b6108146118e1565b81526020019060019003908161080c5790505b50905060005b60655481101561095e57610840816112dd565b82828151811061085357610852612194565b5b602002602001015160006002811061086e5761086d612194565b5b602002018190525060666000828152602001908152602001600020600001805461089790612162565b80601f01602080910402602001604051908101604052809291908181526020018280546108c390612162565b80156109105780601f106108e557610100808354040283529160200191610910565b820191906000526020600020905b8154815290600101906020018083116108f357829003601f168201915b505050505082828151811061092857610927612194565b5b602002602001015160016002811061094357610942612194565b5b60200201819052508080610956906121f2565b91505061082d565b508091505090565b6000606554905090565b6109786112d5565b73ffffffffffffffffffffffffffffffffffffffff16610996610e26565b73ffffffffffffffffffffffffffffffffffffffff16146109ec576040517f08c379a00000000000000000000000000000000000000000000000000000000081526004016109e390612287565b60405180910390fd5b6109f6600061143e565b565b610a0181611504565b600981511115610a7c57662386f26fc100008060098351610a229190612359565b610a2c919061238d565b610a3691906123e7565b3414610a77576040517f08c379a0000000000000000000000000000000000000000000000000000000008152600401610a6e906124fb565b60405180910390fd5b610ac6565b662386f26fc100003414610ac5576040517f08c379a0000000000000000000000000000000000000000000000000000000008152600401610abc9061258d565b60405180910390fd5b5b60006066600084815260200190815260200160002090506000816001018054610aee90612162565b90501415610b145781816001019080519060200190610b0e929190611908565b50610b52565b8060010182604051602001610b2a9291906126c9565b604051602081830303815290604052816001019080519060200190610b50929190611908565b505b338160030160008360020154815260200190815260200160002060006101000a81548173ffffffffffffffffffffffffffffffffffffffff021916908373ffffffffffffffffffffffffffffffffffffffff16021790555081816004016000836002015481526020019081526020016000209080519060200190610bd7929190611908565b506001816002016000828254610bed91906123e7565b92505081905550505050565b600060019054906101000a900460ff1680610c1f575060008054906101000a900460ff16155b610c5e576040517f08c379a0000000000000000000000000000000000000000000000000000000008152600401610c559061276a565b60405180910390fd5b60008060019054906101000a900460ff161590508015610cae576001600060016101000a81548160ff02191690831515021790555060016000806101000a81548160ff0219169083151502179055505b610cb6611636565b60006066600080815260200190815260200160002090506040518060400160405280600381526020017f5468650000000000000000000000000000000000000000000000000000000000815250816000019080519060200190610d1a929190611908565b506001606581905550610d2b610e26565b8160030160008360020154815260200190815260200160002060006101000a81548173ffffffffffffffffffffffffffffffffffffffff021916908373ffffffffffffffffffffffffffffffffffffffff1602179055506040518060400160405280600381526020017f5468650000000000000000000000000000000000000000000000000000000000815250816004016000836002015481526020019081526020016000209080519060200190610de4929190611908565b506001816002016000828254610dfa91906123e7565b92505081905550508015610e235760008060016101000a81548160ff0219169083151502179055505b50565b6000603360009054906101000a900473ffffffffffffffffffffffffffffffffffffffff16905090565b610e5981611504565b600981511115610ed55767016345785d8a00008060098351610e7b9190612359565b610e85919061238d565b610e8f91906123e7565b3414610ed0576040517f08c379a0000000000000000000000000000000000000000000000000000000008152600401610ec790612848565b60405180910390fd5b610f20565b67016345785d8a00003414610f1f576040517f08c379a0000000000000000000000000000000000000000000000000000000008152600401610f16906128da565b60405180910390fd5b5b6000606660006065548152602001908152602001600020905081816000019080519060200190610f51929190611908565b50600160656000828254610f6591906123e7565b92505081905550338160030160008360020154815260200190815260200160002060006101000a81548173ffffffffffffffffffffffffffffffffffffffff021916908373ffffffffffffffffffffffffffffffffffffffff16021790555081816004016000836002015481526020019081526020016000209080519060200190610ff1929190611908565b50600181600201600082825461100791906123e7565b925050819055505050565b565b61101d81611504565b6009815111156110985766470de4df820000806009835161103e9190612359565b611048919061238d565b61105291906123e7565b3414611093576040517f08c379a000000000000000000000000000000000000000000000000000000000815260040161108a906129b8565b60405180910390fd5b6110e2565b66470de4df82000034146110e1576040517f08c379a00000000000000000000000000000000000000000000000000000000081526004016110d890612a4a565b60405180910390fd5b5b6000606660008481526020019081526020016000209050806000018260405160200161110f9291906126c9565b604051602081830303815290604052816000019080519060200190611135929190611908565b50338160030160008360020154815260200190815260200160002060006101000a81548173ffffffffffffffffffffffffffffffffffffffff021916908373ffffffffffffffffffffffffffffffffffffffff160217905550818160040160008360020154815260200190815260200160002090805190602001906111bb929190611908565b5060018160020160008282546111d191906123e7565b92505081905550505050565b6111e56112d5565b73ffffffffffffffffffffffffffffffffffffffff16611203610e26565b73ffffffffffffffffffffffffffffffffffffffff1614611259576040517f08c379a000000000000000000000000000000000000000000000000000000000815260040161125090612287565b60405180910390fd5b600073ffffffffffffffffffffffffffffffffffffffff168173ffffffffffffffffffffffffffffffffffffffff1614156112c9576040517f08c379a00000000000000000000000000000000000000000000000000000000081526004016112c090612adc565b60405180910390fd5b6112d28161143e565b50565b600033905090565b60606000821415611325576040518060400160405280600181526020017f30000000000000000000000000000000000000000000000000000000000000008152509050611439565b600082905060005b60008214611357578080611340906121f2565b915050600a826113509190612b2b565b915061132d565b60008167ffffffffffffffff81111561137357611372611ee0565b5b6040519080825280601f01601f1916602001820160405280156113a55781602001600182028036833780820191505090505b5090505b60008514611432576001826113be9190612359565b9150600a856113cd9190612b5c565b60306113d991906123e7565b60f81b8183815181106113ef576113ee612194565b5b60200101907effffffffffffffffffffffffffffffffffffffffffffffffffffffffffffff1916908160001a905350600a8561142b9190612b2b565b94506113a9565b8093505050505b919050565b6000603360009054906101000a900473ffffffffffffffffffffffffffffffffffffffff16905081603360006101000a81548173ffffffffffffffffffffffffffffffffffffffff021916908373ffffffffffffffffffffffffffffffffffffffff1602179055508173ffffffffffffffffffffffffffffffffffffffff168173ffffffffffffffffffffffffffffffffffffffff167f8be0079c531659141344cd1fd0a4f28419497f9722a3daafe3b4186f6b6457e060405160405180910390a35050565b6000815111611548576040517f08c379a000000000000000000000000000000000000000000000000000000000815260040161153f90612bff565b60405180910390fd5b602a8151111561158d576040517f08c379a000000000000000000000000000000000000000000000000000000000815260040161158490612c91565b60405180910390fd5b60005b815181101561163257602060f81b8282815181106115b1576115b0612194565b5b602001015160f81c60f81b7effffffffffffffffffffffffffffffffffffffffffffffffffffffffffffff1916141561161f576040517f08c379a000000000000000000000000000000000000000000000000000000000815260040161161690612cfd565b60405180910390fd5b808061162a906121f2565b915050611590565b5050565b600060019054906101000a900460ff168061165c575060008054906101000a900460ff16155b61169b576040517f08c379a00000000000000000000000000000000000000000000000000000000081526004016116929061276a565b60405180910390fd5b60008060019054906101000a900460ff1615905080156116eb576001600060016101000a81548160ff02191690831515021790555060016000806101000a81548160ff0219169083151502179055505b6116f361171f565b6116fb6117f8565b801561171c5760008060016101000a81548160ff0219169083151502179055505b50565b600060019054906101000a900460ff1680611745575060008054906101000a900460ff16155b611784576040517f08c379a000000000000000000000000000000000000000000000000000000000815260040161177b9061276a565b60405180910390fd5b60008060019054906101000a900460ff1615905080156117d4576001600060016101000a81548160ff02191690831515021790555060016000806101000a81548160ff0219169083151502179055505b80156117f55760008060016101000a81548160ff0219169083151502179055505b50565b600060019054906101000a900460ff168061181e575060008054906101000a900460ff16155b61185d576040517f08c379a00000000000000000000000000000000000000000000000000000000081526004016118549061276a565b60405180910390fd5b60008060019054906101000a900460ff1615905080156118ad576001600060016101000a81548160ff02191690831515021790555060016000806101000a81548160ff0219169083151502179055505b6118bd6118b86112d5565b61143e565b80156118de5760008060016101000a81548160ff0219169083151502179055505b50565b60405180604001604052806002905b60608152602001906001900390816118f05790505090565b82805461191490612162565b90600052602060002090601f016020900481019282611936576000855561197d565b82601f1061194f57805160ff191683800117855561197d565b8280016001018555821561197d579182015b8281111561197c578251825591602001919060010190611961565b5b50905061198a919061198e565b5090565b5b808211156119a757600081600090555060010161198f565b5090565b6000604051905090565b600080fd5b600080fd5b6000819050919050565b6119d2816119bf565b81146119dd57600080fd5b50565b6000813590506119ef816119c9565b92915050565b600060208284031215611a0b57611a0a6119b5565b5b6000611a19848285016119e0565b91505092915050565b600081519050919050565b600082825260208201905092915050565b60005b83811015611a5c578082015181840152602081019050611a41565b83811115611a6b576000848401525b50505050565b6000601f19601f8301169050919050565b6000611a8d82611a22565b611a978185611a2d565b9350611aa7818560208601611a3e565b611ab081611a71565b840191505092915050565b611ac4816119bf565b82525050565b600081519050919050565b600082825260208201905092915050565b6000819050602082019050919050565b600073ffffffffffffffffffffffffffffffffffffffff82169050919050565b6000611b2182611af6565b9050919050565b611b3181611b16565b82525050565b6000611b438383611b28565b60208301905092915050565b6000602082019050919050565b6000611b6782611aca565b611b718185611ad5565b9350611b7c83611ae6565b8060005b83811015611bad578151611b948882611b37565b9750611b9f83611b4f565b925050600181019050611b80565b5085935050505092915050565b600081519050919050565b600082825260208201905092915050565b6000819050602082019050919050565b600082825260208201905092915050565b6000611c0282611a22565b611c0c8185611be6565b9350611c1c818560208601611a3e565b611c2581611a71565b840191505092915050565b6000611c3c8383611bf7565b905092915050565b6000602082019050919050565b6000611c5c82611bba565b611c668185611bc5565b935083602082028501611c7885611bd6565b8060005b85811015611cb45784840389528151611c958582611c30565b9450611ca083611c44565b925060208a01995050600181019050611c7c565b50829750879550505050505092915050565b600060a0820190508181036000830152611ce08188611a82565b90508181036020830152611cf48187611a82565b9050611d036040830186611abb565b8181036060830152611d158185611b5c565b90508181036080830152611d298184611c51565b90509695505050505050565b6000602082019050611d4a6000830184611abb565b92915050565b600081519050919050565b600082825260208201905092915050565b6000819050602082019050919050565b600060029050919050565b600081905092915050565b6000819050919050565b6000602082019050919050565b6000611db482611d7c565b611dbe8185611d87565b935083602082028501611dd085611d92565b8060005b85811015611e0c5784840389528151611ded8582611c30565b9450611df883611d9c565b925060208a01995050600181019050611dd4565b50829750879550505050505092915050565b6000611e2a8383611da9565b905092915050565b6000602082019050919050565b6000611e4a82611d50565b611e548185611d5b565b935083602082028501611e6685611d6c565b8060005b85811015611ea25784840389528151611e838582611e1e565b9450611e8e83611e32565b925060208a01995050600181019050611e6a565b50829750879550505050505092915050565b60006020820190508181036000830152611ece8184611e3f565b905092915050565b600080fd5b600080fd5b7f4e487b7100000000000000000000000000000000000000000000000000000000600052604160045260246000fd5b611f1882611a71565b810181811067ffffffffffffffff82111715611f3757611f36611ee0565b5b80604052505050565b6000611f4a6119ab565b9050611f568282611f0f565b919050565b600067ffffffffffffffff821115611f7657611f75611ee0565b5b611f7f82611a71565b9050602081019050919050565b82818337600083830152505050565b6000611fae611fa984611f5b565b611f40565b905082815260208101848484011115611fca57611fc9611edb565b5b611fd5848285611f8c565b509392505050565b600082601f830112611ff257611ff1611ed6565b5b8135612002848260208601611f9b565b91505092915050565b60008060408385031215612022576120216119b5565b5b6000612030858286016119e0565b925050602083013567ffffffffffffffff811115612051576120506119ba565b5b61205d85828601611fdd565b9150509250929050565b61207081611b16565b82525050565b600060208201905061208b6000830184612067565b92915050565b6000602082840312156120a7576120a66119b5565b5b600082013567ffffffffffffffff8111156120c5576120c46119ba565b5b6120d184828501611fdd565b91505092915050565b6120e381611b16565b81146120ee57600080fd5b50565b600081359050612100816120da565b92915050565b60006020828403121561211c5761211b6119b5565b5b600061212a848285016120f1565b91505092915050565b7f4e487b7100000000000000000000000000000000000000000000000000000000600052602260045260246000fd5b6000600282049050600182168061217a57607f821691505b6020821081141561218e5761218d612133565b5b50919050565b7f4e487b7100000000000000000000000000000000000000000000000000000000600052603260045260246000fd5b7f4e487b7100000000000000000000000000000000000000000000000000000000600052601160045260246000fd5b60006121fd826119bf565b91507fffffffffffffffffffffffffffffffffffffffffffffffffffffffffffffffff8214156122305761222f6121c3565b5b600182019050919050565b7f4f776e61626c653a2063616c6c6572206973206e6f7420746865206f776e6572600082015250565b6000612271602083611a2d565b915061227c8261223b565b602082019050919050565b600060208201905081810360008301526122a081612264565b9050919050565b600081905092915050565b50565b60006122c26000836122a7565b91506122cd826122b2565b600082019050919050565b60006122e3826122b5565b9150819050919050565b7f6f776e65725769746864726177206661696c6564000000000000000000000000600082015250565b6000612323601483611a2d565b915061232e826122ed565b602082019050919050565b6000602082019050818103600083015261235281612316565b9050919050565b6000612364826119bf565b915061236f836119bf565b925082821015612382576123816121c3565b5b828203905092915050565b6000612398826119bf565b91506123a3836119bf565b9250817fffffffffffffffffffffffffffffffffffffffffffffffffffffffffffffffff04831182151516156123dc576123db6121c3565b5b828202905092915050565b60006123f2826119bf565b91506123fd836119bf565b9250827fffffffffffffffffffffffffffffffffffffffffffffffffffffffffffffffff03821115612432576124316121c3565b5b828201905092915050565b7f596f75206d7573742070726f7669646520302e303120657468657220706c757360008201527f20302e303120657468657220666f72206561636820636861726163746572206f60208201527f7665722039206368617261637465727320746f20616464206120776f7264207460408201527f6f207468652073746f7279000000000000000000000000000000000000000000606082015250565b60006124e5606b83611a2d565b91506124f08261243d565b608082019050919050565b60006020820190508181036000830152612514816124d8565b9050919050565b7f596f75206d7573742070726f7669646520302e303120657468657220746f206160008201527f6464206120776f726420746f207468652073746f727900000000000000000000602082015250565b6000612577603683611a2d565b91506125828261251b565b604082019050919050565b600060208201905081810360008301526125a68161256a565b9050919050565b600081905092915050565b60008190508160005260206000209050919050565b600081546125da81612162565b6125e481866125ad565b945060018216600081146125ff576001811461261057612643565b60ff19831686528186019350612643565b612619856125b8565b60005b8381101561263b5781548189015260018201915060208101905061261c565b838801955050505b50505092915050565b7f2000000000000000000000000000000000000000000000000000000000000000600082015250565b60006126826001836125ad565b915061268d8261264c565b600182019050919050565b60006126a382611a22565b6126ad81856125ad565b93506126bd818560208601611a3e565b80840191505092915050565b60006126d582856125cd565b91506126e082612675565b91506126ec8284612698565b91508190509392505050565b7f496e697469616c697a61626c653a20636f6e747261637420697320616c72656160008201527f647920696e697469616c697a6564000000000000000000000000000000000000602082015250565b6000612754602e83611a2d565b915061275f826126f8565b604082019050919050565b6000602082019050818103600083015261278381612747565b9050919050565b7f596f75206d7573742070726f7669646520302e3120657468657220706c75732060008201527f302e3120657468657220666f72206561636820636861726163746572206f766560208201527f722039206368617261637465727320746f206372656174652061206e6577207360408201527f746f727900000000000000000000000000000000000000000000000000000000606082015250565b6000612832606483611a2d565b915061283d8261278a565b608082019050919050565b6000602082019050818103600083015261286181612825565b9050919050565b7f596f75206d7573742070726f7669646520302e3120657468657220746f20637260008201527f656174652061206e65772073746f727900000000000000000000000000000000602082015250565b60006128c4603083611a2d565b91506128cf82612868565b604082019050919050565b600060208201905081810360008301526128f3816128b7565b9050919050565b7f596f75206d7573742070726f7669646520302e303220657468657220706c757360008201527f20302e303220657468657220666f72206561636820636861726163746572206f60208201527f7665722039206368617261637465727320746f20616464206120776f7264207460408201527f6f20746865207469746c65000000000000000000000000000000000000000000606082015250565b60006129a2606b83611a2d565b91506129ad826128fa565b608082019050919050565b600060208201905081810360008301526129d181612995565b9050919050565b7f596f75206d7573742070726f7669646520302e303220657468657220746f206160008201527f6464206120776f726420746f20746865207469746c6500000000000000000000602082015250565b6000612a34603683611a2d565b9150612a3f826129d8565b604082019050919050565b60006020820190508181036000830152612a6381612a27565b9050919050565b7f4f776e61626c653a206e6577206f776e657220697320746865207a65726f206160008201527f6464726573730000000000000000000000000000000000000000000000000000602082015250565b6000612ac6602683611a2d565b9150612ad182612a6a565b604082019050919050565b60006020820190508181036000830152612af581612ab9565b9050919050565b7f4e487b7100000000000000000000000000000000000000000000000000000000600052601260045260246000fd5b6000612b36826119bf565b9150612b41836119bf565b925082612b5157612b50612afc565b5b828204905092915050565b6000612b67826119bf565b9150612b72836119bf565b925082612b8257612b81612afc565b5b828206905092915050565b7f576f7264206d757374206265206174206c65617374203120636861726163746560008201527f7200000000000000000000000000000000000000000000000000000000000000602082015250565b6000612be9602183611a2d565b9150612bf482612b8d565b604082019050919050565b60006020820190508181036000830152612c1881612bdc565b9050919050565b7f576f7264206d757374206265206174206d6f737420343220636861726163746560008201527f7273000000000000000000000000000000000000000000000000000000000000602082015250565b6000612c7b602283611a2d565b9150612c8682612c1f565b604082019050919050565b60006020820190508181036000830152612caa81612c6e565b9050919050565b7f576f7264206d757374206e6f7420636f6e7461696e2073706163657300000000600082015250565b6000612ce7601c83611a2d565b9150612cf282612cb1565b602082019050919050565b60006020820190508181036000830152612d1681612cda565b905091905056fea2646970667358221220d6eb9977fd3aa4d20dff3d36af32e1802452e57d666afc5057d04616a8a3119a64736f6c634300080b0033",
  "immutableReferences": {},
  "source": "// SPDX-License-Identifier: MIT\npragma solidity ^0.8.10;\n\nimport \"@openzeppelin/contracts-upgradeable/access/OwnableUpgradeable.sol\";\nimport \"@openzeppelin/contracts-upgradeable/utils/StringsUpgradeable.sol\";\n\ncontract Narrative is OwnableUpgradeable {\n    uint256 private numStories;\n    mapping(uint256 => Story) private stories;\n\n    struct Story {\n        string title;\n        string body;\n        uint256 wordCount;\n        mapping(uint256 => address) wordContributors;\n        mapping(uint256 => string) words;\n    }\n\n    function initialize() public initializer {\n        __Ownable_init();\n        Story storage storyToUpdate = stories[0];\n        storyToUpdate.title = \"The\";\n        numStories = 1;\n\n        storyToUpdate.wordContributors[storyToUpdate.wordCount] = owner();\n        storyToUpdate.words[storyToUpdate.wordCount] = \"The\";\n        storyToUpdate.wordCount += 1;\n    }\n\n    function getStoryTitles() public view returns (string[2][] memory) {\n        string[2][] memory titles = new string[2][](numStories);\n        for (uint256 i = 0; i < numStories; i++) {\n            titles[i][0] = StringsUpgradeable.toString(i);\n            titles[i][1] = stories[i].title;\n        }\n        return titles;\n    }\n\n    function getNumStories() public view returns (uint256) {\n        return numStories;\n    }\n\n    function getStory(uint256 id)\n        public\n        view\n        returns (\n            string memory title,\n            string memory body,\n            uint256 wordCount,\n            address[] memory wordContributors,\n            string[] memory words\n        )\n    {\n        require(id <= numStories);\n        title = stories[id].title;\n        body = stories[id].body;\n        wordCount = stories[id].wordCount;\n\n        words = new string[](wordCount);\n        wordContributors = new address[](wordCount);\n        for (uint256 i = 0; i < wordCount; i++) {\n            wordContributors[i] = stories[id].wordContributors[i];\n            words[i] = stories[id].words[i];\n        }\n\n        return (title, body, wordCount, wordContributors, words);\n    }\n\n    function newStory(string memory word) public payable {\n        validateWord(word);\n        if (bytes(word).length > 9) {\n            require(\n                msg.value == (bytes(word).length - 9) * 0.1 ether + 0.1 ether,\n                \"You must provide 0.1 ether plus 0.1 ether for each character over 9 characters to create a new story\"\n            );\n        } else {\n            require(\n                msg.value == 0.1 ether,\n                \"You must provide 0.1 ether to create a new story\"\n            );\n        }\n        Story storage storyToUpdate = stories[numStories];\n        storyToUpdate.title = word;\n        numStories += 1;\n\n        storyToUpdate.wordContributors[storyToUpdate.wordCount] = msg.sender;\n        storyToUpdate.words[storyToUpdate.wordCount] = word;\n        storyToUpdate.wordCount += 1;\n    }\n\n    function addWordToTitle(uint256 storyID, string memory word)\n        public\n        payable\n    {\n        validateWord(word);\n        if (bytes(word).length > 9) {\n            require(\n                msg.value == (bytes(word).length - 9) * 0.02 ether + 0.02 ether,\n                \"You must provide 0.02 ether plus 0.02 ether for each character over 9 characters to add a word to the title\"\n            );\n        } else {\n            require(\n                msg.value == 0.02 ether,\n                \"You must provide 0.02 ether to add a word to the title\"\n            );\n        }\n        Story storage storyToUpdate = stories[storyID];\n        storyToUpdate.title = string(\n            abi.encodePacked(storyToUpdate.title, \" \", word)\n        );\n\n        storyToUpdate.wordContributors[storyToUpdate.wordCount] = msg.sender;\n        storyToUpdate.words[storyToUpdate.wordCount] = word;\n        storyToUpdate.wordCount += 1;\n    }\n\n    function deposit() public payable {}\n\n    function getBalance() public view onlyOwner returns (uint256) {\n        return address(this).balance;\n    }\n\n    function ownerWithdraw() public onlyOwner {\n        (bool success, ) = owner().call{value: address(this).balance}(\"\");\n        require(success, \"ownerWithdraw failed\");\n    }\n\n    function addWordToBody(uint256 storyID, string memory word) public payable {\n        validateWord(word);\n        if (bytes(word).length > 9) {\n            require(\n                msg.value == (bytes(word).length - 9) * 0.01 ether + 0.01 ether,\n                \"You must provide 0.01 ether plus 0.01 ether for each character over 9 characters to add a word to the story\"\n            );\n        } else {\n            require(\n                msg.value == 0.01 ether,\n                \"You must provide 0.01 ether to add a word to the story\"\n            );\n        }\n\n        Story storage storyToUpdate = stories[storyID];\n\n        if (bytes(storyToUpdate.body).length == 0) {\n            storyToUpdate.body = word;\n        } else {\n            storyToUpdate.body = string(\n                abi.encodePacked(storyToUpdate.body, \" \", word)\n            );\n        }\n\n        storyToUpdate.wordContributors[storyToUpdate.wordCount] = msg.sender;\n        storyToUpdate.words[storyToUpdate.wordCount] = word;\n        storyToUpdate.wordCount += 1;\n    }\n\n    function validateWord(string memory word) private pure {\n        require(bytes(word).length > 0, \"Word must be at least 1 character\");\n        require(bytes(word).length <= 42, \"Word must be at most 42 characters\");\n        for (uint256 i = 0; i < bytes(word).length; i++) {\n            require(bytes(word)[i] != 0x20, \"Word must not contain spaces\");\n        }\n    }\n}\n",
  "sourcePath": "/home/jdubedition/codestore/dapp-owaat/contracts/Narrative.sol",
  "compiler": {
    "name": "solc",
    "version": "0.8.11+commit.d7f03943.Emscripten.clang"
  },
  "schemaVersion": "3.4.3",
  "updatedAt": "2022-01-07T23:36:37.605Z",
  "networkType": "ethereum",
  "devdoc": {
    "kind": "dev",
    "methods": {
      "owner()": {
        "details": "Returns the address of the current owner."
      },
      "renounceOwnership()": {
        "details": "Leaves the contract without owner. It will not be possible to call `onlyOwner` functions anymore. Can only be called by the current owner. NOTE: Renouncing ownership will leave the contract without an owner, thereby removing any functionality that is only available to the owner."
      },
      "transferOwnership(address)": {
        "details": "Transfers ownership of the contract to a new account (`newOwner`). Can only be called by the current owner."
      }
    },
    "version": 1
  },
  "userdoc": {
    "kind": "user",
    "methods": {},
    "version": 1
  }
}