{
  "contractName": "Narrative",
  "abi": [
    {
      "anonymous": false,
      "inputs": [
        {
          "indexed": true,
          "internalType": "address",
          "name": "previousOwner",
          "type": "address"
        },
        {
          "indexed": true,
          "internalType": "address",
          "name": "newOwner",
          "type": "address"
        }
      ],
      "name": "OwnershipTransferred",
      "type": "event"
    },
    {
      "inputs": [],
      "name": "owner",
      "outputs": [
        {
          "internalType": "address",
          "name": "",
          "type": "address"
        }
      ],
      "stateMutability": "view",
      "type": "function"
    },
    {
      "inputs": [],
      "name": "renounceOwnership",
      "outputs": [],
      "stateMutability": "nonpayable",
      "type": "function"
    },
    {
      "inputs": [
        {
          "internalType": "address",
          "name": "newOwner",
          "type": "address"
        }
      ],
      "name": "transferOwnership",
      "outputs": [],
      "stateMutability": "nonpayable",
      "type": "function"
    },
    {
      "inputs": [],
      "name": "initialize",
      "outputs": [],
      "stateMutability": "nonpayable",
      "type": "function"
    },
    {
      "inputs": [],
      "name": "getStoryTitles",
      "outputs": [
        {
          "internalType": "string[2][]",
          "name": "",
          "type": "string[2][]"
        }
      ],
      "stateMutability": "view",
      "type": "function"
    },
    {
      "inputs": [],
      "name": "getNumStories",
      "outputs": [
        {
          "internalType": "uint256",
          "name": "",
          "type": "uint256"
        }
      ],
      "stateMutability": "view",
      "type": "function"
    },
    {
      "inputs": [
        {
          "internalType": "uint256",
          "name": "id",
          "type": "uint256"
        }
      ],
      "name": "getStory",
      "outputs": [
        {
          "internalType": "string",
          "name": "title",
          "type": "string"
        },
        {
          "internalType": "string",
          "name": "story",
          "type": "string"
        },
        {
          "internalType": "uint256",
          "name": "wordCount",
          "type": "uint256"
        },
        {
          "internalType": "address[]",
          "name": "contributors",
          "type": "address[]"
        },
        {
          "internalType": "string[]",
          "name": "words",
          "type": "string[]"
        }
      ],
      "stateMutability": "view",
      "type": "function"
    },
    {
      "inputs": [
        {
          "internalType": "string",
          "name": "word",
          "type": "string"
        }
      ],
      "name": "newStory",
      "outputs": [],
      "stateMutability": "payable",
      "type": "function"
    },
    {
      "inputs": [],
      "name": "deposit",
      "outputs": [],
      "stateMutability": "payable",
      "type": "function"
    },
    {
      "inputs": [],
      "name": "getBalance",
      "outputs": [
        {
          "internalType": "uint256",
          "name": "",
          "type": "uint256"
        }
      ],
      "stateMutability": "view",
      "type": "function"
    },
    {
      "inputs": [],
      "name": "ownerWithdraw",
      "outputs": [],
      "stateMutability": "nonpayable",
      "type": "function"
    },
    {
      "inputs": [
        {
          "internalType": "uint256",
          "name": "storyID",
          "type": "uint256"
        },
        {
          "internalType": "string",
          "name": "word",
          "type": "string"
        }
      ],
      "name": "addWordToStory",
      "outputs": [],
      "stateMutability": "payable",
      "type": "function"
    }
  ],
  "bytecode": "0x608060405234801561001057600080fd5b5061238f806100206000396000f3fe6080604052600436106100a75760003560e01c8063715018a611610064578063715018a6146101a15780638129fc1c146101b85780638da5cb5b146101cf578063cf45630d146101fa578063d0e30db014610216578063f2fde38b14610220576100a7565b806303cf950f146100ac57806312065fe0146100ed5780634311de8f146101185780634be6fee01461012f57806351489bcb1461015a5780636506049614610185575b600080fd5b3480156100b857600080fd5b506100d360048036038101906100ce91906114b5565b610249565b6040516100e4959493929190611786565b60405180910390f35b3480156100f957600080fd5b506101026105e1565b60405161010f91906117f5565b60405180910390f35b34801561012457600080fd5b5061012d610665565b005b34801561013b57600080fd5b50610144610797565b6040516101519190611974565b60405180910390f35b34801561016657600080fd5b5061016f61092f565b60405161017c91906117f5565b60405180910390f35b61019f600480360381019061019a9190611acb565b610939565b005b3480156101ad57600080fd5b506101b6610b07565b005b3480156101c457600080fd5b506101cd610b8f565b005b3480156101db57600080fd5b506101e4610ce0565b6040516101f19190611b36565b60405180910390f35b610214600480360381019061020f9190611b51565b610d0a565b005b61021e610dad565b005b34801561022c57600080fd5b5061024760048036038101906102429190611bc6565b610daf565b005b606080600060608060655486111561026057600080fd5b60666000878152602001908152602001600020600001805461028190611c22565b80601f01602080910402602001604051908101604052809291908181526020018280546102ad90611c22565b80156102fa5780601f106102cf576101008083540402835291602001916102fa565b820191906000526020600020905b8154815290600101906020018083116102dd57829003601f168201915b5050505050945060666000878152602001908152602001600020600101805461032290611c22565b80601f016020809104026020016040519081016040528092919081815260200182805461034e90611c22565b801561039b5780601f106103705761010080835404028352916020019161039b565b820191906000526020600020905b81548152906001019060200180831161037e57829003601f168201915b50505050509350606660008781526020019081526020016000206002015492508267ffffffffffffffff8111156103d5576103d46119a0565b5b60405190808252806020026020018201604052801561040857816020015b60608152602001906001900390816103f35790505b5090508267ffffffffffffffff811115610425576104246119a0565b5b6040519080825280602002602001820160405280156104535781602001602082028036833780820191505090505b50915060005b838110156105d75760666000888152602001908152602001600020600301600082815260200190815260200160002060009054906101000a900473ffffffffffffffffffffffffffffffffffffffff168382815181106104bc576104bb611c54565b5b602002602001019073ffffffffffffffffffffffffffffffffffffffff16908173ffffffffffffffffffffffffffffffffffffffff1681525050606660008881526020019081526020016000206004016000828152602001908152602001600020805461052890611c22565b80601f016020809104026020016040519081016040528092919081815260200182805461055490611c22565b80156105a15780601f10610576576101008083540402835291602001916105a1565b820191906000526020600020905b81548152906001019060200180831161058457829003601f168201915b50505050508282815181106105b9576105b8611c54565b5b602002602001018190525080806105cf90611cb2565b915050610459565b5091939590929450565b60006105eb610ea7565b73ffffffffffffffffffffffffffffffffffffffff16610609610ce0565b73ffffffffffffffffffffffffffffffffffffffff161461065f576040517f08c379a000000000000000000000000000000000000000000000000000000000815260040161065690611d47565b60405180910390fd5b47905090565b61066d610ea7565b73ffffffffffffffffffffffffffffffffffffffff1661068b610ce0565b73ffffffffffffffffffffffffffffffffffffffff16146106e1576040517f08c379a00000000000000000000000000000000000000000000000000000000081526004016106d890611d47565b60405180910390fd5b60006106eb610ce0565b73ffffffffffffffffffffffffffffffffffffffff164760405161070e90611d98565b60006040518083038185875af1925050503d806000811461074b576040519150601f19603f3d011682016040523d82523d6000602084013e610750565b606091505b5050905080610794576040517f08c379a000000000000000000000000000000000000000000000000000000000815260040161078b90611df9565b60405180910390fd5b50565b6060600060655467ffffffffffffffff8111156107b7576107b66119a0565b5b6040519080825280602002602001820160405280156107f057816020015b6107dd6113a1565b8152602001906001900390816107d55790505b50905060005b6065548110156109275761080981610eaf565b82828151811061081c5761081b611c54565b5b602002602001015160006002811061083757610836611c54565b5b602002018190525060666000828152602001908152602001600020600001805461086090611c22565b80601f016020809104026020016040519081016040528092919081815260200182805461088c90611c22565b80156108d95780601f106108ae576101008083540402835291602001916108d9565b820191906000526020600020905b8154815290600101906020018083116108bc57829003601f168201915b50505050508282815181106108f1576108f0611c54565b5b602002602001015160016002811061090c5761090b611c54565b5b6020020181905250808061091f90611cb2565b9150506107f6565b508091505090565b6000606554905090565b6000815111801561094c5750602a815111155b61098b576040517f08c379a000000000000000000000000000000000000000000000000000000000815260040161098290611e8b565b60405180910390fd5b662386f26fc1000034146109d4576040517f08c379a00000000000000000000000000000000000000000000000000000000081526004016109cb90611f1d565b60405180910390fd5b600060666000848152602001908152602001600020905060008160010180546109fc90611c22565b90501415610a225781816001019080519060200190610a1c9291906113c8565b50610a60565b8060010182604051602001610a38929190612059565b604051602081830303815290604052816001019080519060200190610a5e9291906113c8565b505b338160030160008360020154815260200190815260200160002060006101000a81548173ffffffffffffffffffffffffffffffffffffffff021916908373ffffffffffffffffffffffffffffffffffffffff16021790555081816004016000836002015481526020019081526020016000209080519060200190610ae59291906113c8565b506001816002016000828254610afb9190612088565b92505081905550505050565b610b0f610ea7565b73ffffffffffffffffffffffffffffffffffffffff16610b2d610ce0565b73ffffffffffffffffffffffffffffffffffffffff1614610b83576040517f08c379a0000000000000000000000000000000000000000000000000000000008152600401610b7a90611d47565b60405180910390fd5b610b8d6000611010565b565b600060019054906101000a900460ff1680610bb5575060008054906101000a900460ff16155b610bf4576040517f08c379a0000000000000000000000000000000000000000000000000000000008152600401610beb90612150565b60405180910390fd5b60008060019054906101000a900460ff161590508015610c44576001600060016101000a81548160ff02191690831515021790555060016000806101000a81548160ff0219169083151502179055505b610c4c6110d6565b600060666000606554815260200190815260200160002090506040518060400160405280600381526020017f5468650000000000000000000000000000000000000000000000000000000000815250816000019080519060200190610cb29291906113c8565b506001606581905550508015610cdd5760008060016101000a81548160ff0219169083151502179055505b50565b6000603360009054906101000a900473ffffffffffffffffffffffffffffffffffffffff16905090565b610d13816111bf565b67016345785d8a00003414610d5d576040517f08c379a0000000000000000000000000000000000000000000000000000000008152600401610d54906121e2565b60405180910390fd5b6000606660006065548152602001908152602001600020905081816000019080519060200190610d8e9291906113c8565b50600160656000828254610da29190612088565b925050819055505050565b565b610db7610ea7565b73ffffffffffffffffffffffffffffffffffffffff16610dd5610ce0565b73ffffffffffffffffffffffffffffffffffffffff1614610e2b576040517f08c379a0000000000000000000000000000000000000000000000000000000008152600401610e2290611d47565b60405180910390fd5b600073ffffffffffffffffffffffffffffffffffffffff168173ffffffffffffffffffffffffffffffffffffffff161415610e9b576040517f08c379a0000000000000000000000000000000000000000000000000000000008152600401610e9290612274565b60405180910390fd5b610ea481611010565b50565b600033905090565b60606000821415610ef7576040518060400160405280600181526020017f3000000000000000000000000000000000000000000000000000000000000000815250905061100b565b600082905060005b60008214610f29578080610f1290611cb2565b915050600a82610f2291906122c3565b9150610eff565b60008167ffffffffffffffff811115610f4557610f446119a0565b5b6040519080825280601f01601f191660200182016040528015610f775781602001600182028036833780820191505090505b5090505b6000851461100457600182610f9091906122f4565b9150600a85610f9f9190612328565b6030610fab9190612088565b60f81b818381518110610fc157610fc0611c54565b5b60200101907effffffffffffffffffffffffffffffffffffffffffffffffffffffffffffff1916908160001a905350600a85610ffd91906122c3565b9450610f7b565b8093505050505b919050565b6000603360009054906101000a900473ffffffffffffffffffffffffffffffffffffffff16905081603360006101000a81548173ffffffffffffffffffffffffffffffffffffffff021916908373ffffffffffffffffffffffffffffffffffffffff1602179055508173ffffffffffffffffffffffffffffffffffffffff168173ffffffffffffffffffffffffffffffffffffffff167f8be0079c531659141344cd1fd0a4f28419497f9722a3daafe3b4186f6b6457e060405160405180910390a35050565b600060019054906101000a900460ff16806110fc575060008054906101000a900460ff16155b61113b576040517f08c379a000000000000000000000000000000000000000000000000000000000815260040161113290612150565b60405180910390fd5b60008060019054906101000a900460ff16159050801561118b576001600060016101000a81548160ff02191690831515021790555060016000806101000a81548160ff0219169083151502179055505b6111936111df565b61119b6112b8565b80156111bc5760008060016101000a81548160ff0219169083151502179055505b50565b60008151116111cd57600080fd5b602a815111156111dc57600080fd5b50565b600060019054906101000a900460ff1680611205575060008054906101000a900460ff16155b611244576040517f08c379a000000000000000000000000000000000000000000000000000000000815260040161123b90612150565b60405180910390fd5b60008060019054906101000a900460ff161590508015611294576001600060016101000a81548160ff02191690831515021790555060016000806101000a81548160ff0219169083151502179055505b80156112b55760008060016101000a81548160ff0219169083151502179055505b50565b600060019054906101000a900460ff16806112de575060008054906101000a900460ff16155b61131d576040517f08c379a000000000000000000000000000000000000000000000000000000000815260040161131490612150565b60405180910390fd5b60008060019054906101000a900460ff16159050801561136d576001600060016101000a81548160ff02191690831515021790555060016000806101000a81548160ff0219169083151502179055505b61137d611378610ea7565b611010565b801561139e5760008060016101000a81548160ff0219169083151502179055505b50565b60405180604001604052806002905b60608152602001906001900390816113b05790505090565b8280546113d490611c22565b90600052602060002090601f0160209004810192826113f6576000855561143d565b82601f1061140f57805160ff191683800117855561143d565b8280016001018555821561143d579182015b8281111561143c578251825591602001919060010190611421565b5b50905061144a919061144e565b5090565b5b8082111561146757600081600090555060010161144f565b5090565b6000604051905090565b600080fd5b600080fd5b6000819050919050565b6114928161147f565b811461149d57600080fd5b50565b6000813590506114af81611489565b92915050565b6000602082840312156114cb576114ca611475565b5b60006114d9848285016114a0565b91505092915050565b600081519050919050565b600082825260208201905092915050565b60005b8381101561151c578082015181840152602081019050611501565b8381111561152b576000848401525b50505050565b6000601f19601f8301169050919050565b600061154d826114e2565b61155781856114ed565b93506115678185602086016114fe565b61157081611531565b840191505092915050565b6115848161147f565b82525050565b600081519050919050565b600082825260208201905092915050565b6000819050602082019050919050565b600073ffffffffffffffffffffffffffffffffffffffff82169050919050565b60006115e1826115b6565b9050919050565b6115f1816115d6565b82525050565b600061160383836115e8565b60208301905092915050565b6000602082019050919050565b60006116278261158a565b6116318185611595565b935061163c836115a6565b8060005b8381101561166d57815161165488826115f7565b975061165f8361160f565b925050600181019050611640565b5085935050505092915050565b600081519050919050565b600082825260208201905092915050565b6000819050602082019050919050565b600082825260208201905092915050565b60006116c2826114e2565b6116cc81856116a6565b93506116dc8185602086016114fe565b6116e581611531565b840191505092915050565b60006116fc83836116b7565b905092915050565b6000602082019050919050565b600061171c8261167a565b6117268185611685565b93508360208202850161173885611696565b8060005b85811015611774578484038952815161175585826116f0565b945061176083611704565b925060208a0199505060018101905061173c565b50829750879550505050505092915050565b600060a08201905081810360008301526117a08188611542565b905081810360208301526117b48187611542565b90506117c3604083018661157b565b81810360608301526117d5818561161c565b905081810360808301526117e98184611711565b90509695505050505050565b600060208201905061180a600083018461157b565b92915050565b600081519050919050565b600082825260208201905092915050565b6000819050602082019050919050565b600060029050919050565b600081905092915050565b6000819050919050565b6000602082019050919050565b60006118748261183c565b61187e8185611847565b93508360208202850161189085611852565b8060005b858110156118cc57848403895281516118ad85826116f0565b94506118b88361185c565b925060208a01995050600181019050611894565b50829750879550505050505092915050565b60006118ea8383611869565b905092915050565b6000602082019050919050565b600061190a82611810565b611914818561181b565b9350836020820285016119268561182c565b8060005b85811015611962578484038952815161194385826118de565b945061194e836118f2565b925060208a0199505060018101905061192a565b50829750879550505050505092915050565b6000602082019050818103600083015261198e81846118ff565b905092915050565b600080fd5b600080fd5b7f4e487b7100000000000000000000000000000000000000000000000000000000600052604160045260246000fd5b6119d882611531565b810181811067ffffffffffffffff821117156119f7576119f66119a0565b5b80604052505050565b6000611a0a61146b565b9050611a1682826119cf565b919050565b600067ffffffffffffffff821115611a3657611a356119a0565b5b611a3f82611531565b9050602081019050919050565b82818337600083830152505050565b6000611a6e611a6984611a1b565b611a00565b905082815260208101848484011115611a8a57611a8961199b565b5b611a95848285611a4c565b509392505050565b600082601f830112611ab257611ab1611996565b5b8135611ac2848260208601611a5b565b91505092915050565b60008060408385031215611ae257611ae1611475565b5b6000611af0858286016114a0565b925050602083013567ffffffffffffffff811115611b1157611b1061147a565b5b611b1d85828601611a9d565b9150509250929050565b611b30816115d6565b82525050565b6000602082019050611b4b6000830184611b27565b92915050565b600060208284031215611b6757611b66611475565b5b600082013567ffffffffffffffff811115611b8557611b8461147a565b5b611b9184828501611a9d565b91505092915050565b611ba3816115d6565b8114611bae57600080fd5b50565b600081359050611bc081611b9a565b92915050565b600060208284031215611bdc57611bdb611475565b5b6000611bea84828501611bb1565b91505092915050565b7f4e487b7100000000000000000000000000000000000000000000000000000000600052602260045260246000fd5b60006002820490506001821680611c3a57607f821691505b60208210811415611c4e57611c4d611bf3565b5b50919050565b7f4e487b7100000000000000000000000000000000000000000000000000000000600052603260045260246000fd5b7f4e487b7100000000000000000000000000000000000000000000000000000000600052601160045260246000fd5b6000611cbd8261147f565b91507fffffffffffffffffffffffffffffffffffffffffffffffffffffffffffffffff821415611cf057611cef611c83565b5b600182019050919050565b7f4f776e61626c653a2063616c6c6572206973206e6f7420746865206f776e6572600082015250565b6000611d316020836114ed565b9150611d3c82611cfb565b602082019050919050565b60006020820190508181036000830152611d6081611d24565b9050919050565b600081905092915050565b50565b6000611d82600083611d67565b9150611d8d82611d72565b600082019050919050565b6000611da382611d75565b9150819050919050565b7f6f776e65725769746864726177206661696c6564000000000000000000000000600082015250565b6000611de36014836114ed565b9150611dee82611dad565b602082019050919050565b60006020820190508181036000830152611e1281611dd6565b9050919050565b7f776f7264206d757374206265206265747765656e2031207468616e203432206360008201527f6861726163746572732c20696e636c7573697665000000000000000000000000602082015250565b6000611e756034836114ed565b9150611e8082611e19565b604082019050919050565b60006020820190508181036000830152611ea481611e68565b9050919050565b7f596f75206d7573742070726f7669646520302e303120657468657220746f206160008201527f6464206120776f72640000000000000000000000000000000000000000000000602082015250565b6000611f076029836114ed565b9150611f1282611eab565b604082019050919050565b60006020820190508181036000830152611f3681611efa565b9050919050565b600081905092915050565b60008190508160005260206000209050919050565b60008154611f6a81611c22565b611f748186611f3d565b94506001821660008114611f8f5760018114611fa057611fd3565b60ff19831686528186019350611fd3565b611fa985611f48565b60005b83811015611fcb57815481890152600182019150602081019050611fac565b838801955050505b50505092915050565b7f2000000000000000000000000000000000000000000000000000000000000000600082015250565b6000612012600183611f3d565b915061201d82611fdc565b600182019050919050565b6000612033826114e2565b61203d8185611f3d565b935061204d8185602086016114fe565b80840191505092915050565b60006120658285611f5d565b915061207082612005565b915061207c8284612028565b91508190509392505050565b60006120938261147f565b915061209e8361147f565b9250827fffffffffffffffffffffffffffffffffffffffffffffffffffffffffffffffff038211156120d3576120d2611c83565b5b828201905092915050565b7f496e697469616c697a61626c653a20636f6e747261637420697320616c72656160008201527f647920696e697469616c697a6564000000000000000000000000000000000000602082015250565b600061213a602e836114ed565b9150612145826120de565b604082019050919050565b600060208201905081810360008301526121698161212d565b9050919050565b7f596f75206d7573742070726f7669646520302e3120657468657220746f20637260008201527f656174652061206e65772073746f727900000000000000000000000000000000602082015250565b60006121cc6030836114ed565b91506121d782612170565b604082019050919050565b600060208201905081810360008301526121fb816121bf565b9050919050565b7f4f776e61626c653a206e6577206f776e657220697320746865207a65726f206160008201527f6464726573730000000000000000000000000000000000000000000000000000602082015250565b600061225e6026836114ed565b915061226982612202565b604082019050919050565b6000602082019050818103600083015261228d81612251565b9050919050565b7f4e487b7100000000000000000000000000000000000000000000000000000000600052601260045260246000fd5b60006122ce8261147f565b91506122d98361147f565b9250826122e9576122e8612294565b5b828204905092915050565b60006122ff8261147f565b915061230a8361147f565b92508282101561231d5761231c611c83565b5b828203905092915050565b60006123338261147f565b915061233e8361147f565b92508261234e5761234d612294565b5b82820690509291505056fea26469706673582212208560ef71b58c07483f135e38584dfd44b049c8179fa2c7859143b07c6ce07aa064736f6c634300080a0033",
  "immutableReferences": {},
  "source": "// SPDX-License-Identifier: MIT\npragma solidity ^0.8.10;\n\nimport \"@openzeppelin/contracts-upgradeable/access/OwnableUpgradeable.sol\";\nimport \"@openzeppelin/contracts-upgradeable/utils/StringsUpgradeable.sol\";\n\ncontract Narrative is OwnableUpgradeable {\n    uint256 private numStories;\n    mapping(uint256 => Story) private stories;\n\n    struct Story {\n        string title;\n        string story;\n        uint256 wordCount;\n        mapping(uint256 => address) contributors;\n        mapping(uint256 => string) words;\n    }\n\n    function initialize() public initializer {\n        __Ownable_init();\n        Story storage nar = stories[numStories];\n        nar.title = \"The\";\n        numStories = 1;\n    }\n\n    function validateWord(string memory word) private pure {\n        require(bytes(word).length > 0);\n        require(bytes(word).length <= 42);\n    }\n\n    function getStoryTitles() public view returns (string[2][] memory) {\n        string[2][] memory titles = new string[2][](numStories);\n        for (uint256 i = 0; i < numStories; i++) {\n            titles[i][0] = StringsUpgradeable.toString(i);\n            titles[i][1] = stories[i].title;\n        }\n        return titles;\n    }\n\n    function getNumStories() public view returns (uint256) {\n        return numStories;\n    }\n\n    function getStory(uint256 id)\n        public\n        view\n        returns (\n            string memory title,\n            string memory story,\n            uint256 wordCount,\n            address[] memory contributors,\n            string[] memory words\n        )\n    {\n        require(id <= numStories);\n        title = stories[id].title;\n        story = stories[id].story;\n        wordCount = stories[id].wordCount;\n\n        words = new string[](wordCount);\n        contributors = new address[](wordCount);\n        for (uint256 i = 0; i < wordCount; i++) {\n            contributors[i] = stories[id].contributors[i];\n            words[i] = stories[id].words[i];\n        }\n\n        return (title, story, wordCount, contributors, words);\n    }\n\n    function newStory(string memory word) public payable {\n        validateWord(word);\n        require(\n            msg.value == 0.1 ether,\n            \"You must provide 0.1 ether to create a new story\"\n        );\n        Story storage nar = stories[numStories];\n        nar.title = word;\n        numStories += 1;\n    }\n\n    function deposit() public payable {}\n\n    function getBalance() public view onlyOwner returns (uint256) {\n        return address(this).balance;\n    }\n\n    function ownerWithdraw() public onlyOwner {\n        (bool success, ) = owner().call{value: address(this).balance}(\"\");\n        require(success, \"ownerWithdraw failed\");\n    }\n\n    function addWordToStory(uint256 storyID, string memory word)\n        public\n        payable\n    {\n        require(\n            bytes(word).length > 0 && bytes(word).length <= 42,\n            \"word must be between 1 than 42 characters, inclusive\"\n        );\n        require(\n            msg.value == 0.01 ether,\n            \"You must provide 0.01 ether to add a word\"\n        );\n\n        Story storage storyToUpdate = stories[storyID];\n\n        if (bytes(storyToUpdate.story).length == 0) {\n            storyToUpdate.story = word;\n        } else {\n            storyToUpdate.story = string(\n                abi.encodePacked(storyToUpdate.story, \" \", word)\n            );\n        }\n\n        storyToUpdate.contributors[storyToUpdate.wordCount] = msg.sender;\n        storyToUpdate.words[storyToUpdate.wordCount] = word;\n        storyToUpdate.wordCount += 1;\n    }\n\n    // function getPhrase() public view returns (string memory) {\n    //     return storedData;\n    // }\n\n    // function getTransactionHistory()\n    //     public\n    //     view\n    //     returns (address[] memory, string[] memory)\n    // {\n    //     return (transactionHistoryAddresses, transactionHistoryPhrases);\n    // }\n}\n",
  "sourcePath": "/home/jdubedition/codestore/dapp-owaat/contracts/Narrative.sol",
  "compiler": {
    "name": "solc",
    "version": "0.8.10+commit.fc410830.Emscripten.clang"
  },
  "schemaVersion": "3.4.3",
  "updatedAt": "2021-12-13T04:49:57.328Z",
  "devdoc": {
    "kind": "dev",
    "methods": {
      "owner()": {
        "details": "Returns the address of the current owner."
      },
      "renounceOwnership()": {
        "details": "Leaves the contract without owner. It will not be possible to call `onlyOwner` functions anymore. Can only be called by the current owner. NOTE: Renouncing ownership will leave the contract without an owner, thereby removing any functionality that is only available to the owner."
      },
      "transferOwnership(address)": {
        "details": "Transfers ownership of the contract to a new account (`newOwner`). Can only be called by the current owner."
      }
    },
    "version": 1
  },
  "userdoc": {
    "kind": "user",
    "methods": {},
    "version": 1
  }
}