{
  "contractName": "PhraseV2",
  "abi": [
    {
      "anonymous": false,
      "inputs": [
        {
          "indexed": true,
          "internalType": "address",
          "name": "previousOwner",
          "type": "address"
        },
        {
          "indexed": true,
          "internalType": "address",
          "name": "newOwner",
          "type": "address"
        }
      ],
      "name": "OwnershipTransferred",
      "type": "event"
    },
    {
      "inputs": [],
      "name": "owner",
      "outputs": [
        {
          "internalType": "address",
          "name": "",
          "type": "address"
        }
      ],
      "stateMutability": "view",
      "type": "function",
      "constant": true
    },
    {
      "inputs": [],
      "name": "renounceOwnership",
      "outputs": [],
      "stateMutability": "nonpayable",
      "type": "function"
    },
    {
      "inputs": [
        {
          "internalType": "address",
          "name": "newOwner",
          "type": "address"
        }
      ],
      "name": "transferOwnership",
      "outputs": [],
      "stateMutability": "nonpayable",
      "type": "function"
    },
    {
      "inputs": [],
      "name": "initialize",
      "outputs": [],
      "stateMutability": "nonpayable",
      "type": "function"
    },
    {
      "inputs": [],
      "name": "alive",
      "outputs": [
        {
          "internalType": "bool",
          "name": "",
          "type": "bool"
        }
      ],
      "stateMutability": "pure",
      "type": "function",
      "constant": true
    },
    {
      "inputs": [],
      "name": "getBalance",
      "outputs": [
        {
          "internalType": "uint256",
          "name": "",
          "type": "uint256"
        }
      ],
      "stateMutability": "view",
      "type": "function",
      "constant": true
    },
    {
      "inputs": [],
      "name": "deposit",
      "outputs": [],
      "stateMutability": "payable",
      "type": "function",
      "payable": true
    },
    {
      "inputs": [
        {
          "internalType": "string",
          "name": "word",
          "type": "string"
        }
      ],
      "name": "addWord",
      "outputs": [],
      "stateMutability": "payable",
      "type": "function",
      "payable": true
    },
    {
      "inputs": [],
      "name": "getPhrase",
      "outputs": [
        {
          "internalType": "string",
          "name": "",
          "type": "string"
        }
      ],
      "stateMutability": "view",
      "type": "function",
      "constant": true
    },
    {
      "inputs": [],
      "name": "getTransactionHistory",
      "outputs": [
        {
          "internalType": "address[]",
          "name": "",
          "type": "address[]"
        },
        {
          "internalType": "string[]",
          "name": "",
          "type": "string[]"
        }
      ],
      "stateMutability": "view",
      "type": "function",
      "constant": true
    }
  ],
  "bytecode": "0x608060405234801561001057600080fd5b506115bf806100206000396000f3fe6080604052600436106100915760003560e01c80638129fc1c116100595780638129fc1c1461014a5780638da5cb5b14610161578063b76d4fc31461018c578063d0e30db0146101b8578063f2fde38b146101c257610091565b806312065fe0146100965780634974da81146100c15780635ce2b539146100dd578063715018a614610108578063753899e91461011f575b600080fd5b3480156100a257600080fd5b506100ab6101eb565b6040516100b89190610c1f565b60405180910390f35b6100db60048036038101906100d69190610d94565b61026f565b005b3480156100e957600080fd5b506100f26103c2565b6040516100ff9190610e65565b60405180910390f35b34801561011457600080fd5b5061011d6103ea565b005b34801561012b57600080fd5b50610134610472565b6040516101419190610ea2565b60405180910390f35b34801561015657600080fd5b5061015f61047b565b005b34801561016d57600080fd5b5061017661055c565b6040516101839190610efe565b60405180910390f35b34801561019857600080fd5b506101a1610586565b6040516101af9291906110e3565b60405180910390f35b6101c06106f0565b005b3480156101ce57600080fd5b506101e960048036038101906101e49190611146565b6106f2565b005b60006101f56107ea565b73ffffffffffffffffffffffffffffffffffffffff1661021361055c565b73ffffffffffffffffffffffffffffffffffffffff1614610269576040517f08c379a0000000000000000000000000000000000000000000000000000000008152600401610260906111bf565b60405180910390fd5b47905090565b61271034146102b3576040517f08c379a00000000000000000000000000000000000000000000000000000000081526004016102aa9061122b565b60405180910390fd5b6000606580546102c29061127a565b905014156102e65780606590805190602001906102e0929190610b63565b50610320565b6065816040516020016102fa9291906113c8565b6040516020818303038152906040526065908051906020019061031e929190610b63565b505b6066339080600181540180825580915050600190039060005260206000200160009091909190916101000a81548173ffffffffffffffffffffffffffffffffffffffff021916908373ffffffffffffffffffffffffffffffffffffffff1602179055506067819080600181540180825580915050600190039060005260206000200160009091909190915090805190602001906103be929190610b63565b5050565b606060656040516020016103d69190611443565b604051602081830303815290604052905090565b6103f26107ea565b73ffffffffffffffffffffffffffffffffffffffff1661041061055c565b73ffffffffffffffffffffffffffffffffffffffff1614610466576040517f08c379a000000000000000000000000000000000000000000000000000000000815260040161045d906111bf565b60405180910390fd5b61047060006107f2565b565b60006001905090565b600060019054906101000a900460ff16806104a1575060008054906101000a900460ff16155b6104e0576040517f08c379a00000000000000000000000000000000000000000000000000000000081526004016104d7906114d7565b60405180910390fd5b60008060019054906101000a900460ff161590508015610530576001600060016101000a81548160ff02191690831515021790555060016000806101000a81548160ff0219169083151502179055505b6105386108b8565b80156105595760008060016101000a81548160ff0219169083151502179055505b50565b6000603360009054906101000a900473ffffffffffffffffffffffffffffffffffffffff16905090565b606080606660678180548060200260200160405190810160405280929190818152602001828054801561060e57602002820191906000526020600020905b8160009054906101000a900473ffffffffffffffffffffffffffffffffffffffff1673ffffffffffffffffffffffffffffffffffffffff16815260200190600101908083116105c4575b5050505050915080805480602002602001604051908101604052809291908181526020016000905b828210156106e25783829060005260206000200180546106559061127a565b80601f01602080910402602001604051908101604052809291908181526020018280546106819061127a565b80156106ce5780601f106106a3576101008083540402835291602001916106ce565b820191906000526020600020905b8154815290600101906020018083116106b157829003601f168201915b505050505081526020019060010190610636565b505050509050915091509091565b565b6106fa6107ea565b73ffffffffffffffffffffffffffffffffffffffff1661071861055c565b73ffffffffffffffffffffffffffffffffffffffff161461076e576040517f08c379a0000000000000000000000000000000000000000000000000000000008152600401610765906111bf565b60405180910390fd5b600073ffffffffffffffffffffffffffffffffffffffff168173ffffffffffffffffffffffffffffffffffffffff1614156107de576040517f08c379a00000000000000000000000000000000000000000000000000000000081526004016107d590611569565b60405180910390fd5b6107e7816107f2565b50565b600033905090565b6000603360009054906101000a900473ffffffffffffffffffffffffffffffffffffffff16905081603360006101000a81548173ffffffffffffffffffffffffffffffffffffffff021916908373ffffffffffffffffffffffffffffffffffffffff1602179055508173ffffffffffffffffffffffffffffffffffffffff168173ffffffffffffffffffffffffffffffffffffffff167f8be0079c531659141344cd1fd0a4f28419497f9722a3daafe3b4186f6b6457e060405160405180910390a35050565b600060019054906101000a900460ff16806108de575060008054906101000a900460ff16155b61091d576040517f08c379a0000000000000000000000000000000000000000000000000000000008152600401610914906114d7565b60405180910390fd5b60008060019054906101000a900460ff16159050801561096d576001600060016101000a81548160ff02191690831515021790555060016000806101000a81548160ff0219169083151502179055505b6109756109a1565b61097d610a7a565b801561099e5760008060016101000a81548160ff0219169083151502179055505b50565b600060019054906101000a900460ff16806109c7575060008054906101000a900460ff16155b610a06576040517f08c379a00000000000000000000000000000000000000000000000000000000081526004016109fd906114d7565b60405180910390fd5b60008060019054906101000a900460ff161590508015610a56576001600060016101000a81548160ff02191690831515021790555060016000806101000a81548160ff0219169083151502179055505b8015610a775760008060016101000a81548160ff0219169083151502179055505b50565b600060019054906101000a900460ff1680610aa0575060008054906101000a900460ff16155b610adf576040517f08c379a0000000000000000000000000000000000000000000000000000000008152600401610ad6906114d7565b60405180910390fd5b60008060019054906101000a900460ff161590508015610b2f576001600060016101000a81548160ff02191690831515021790555060016000806101000a81548160ff0219169083151502179055505b610b3f610b3a6107ea565b6107f2565b8015610b605760008060016101000a81548160ff0219169083151502179055505b50565b828054610b6f9061127a565b90600052602060002090601f016020900481019282610b915760008555610bd8565b82601f10610baa57805160ff1916838001178555610bd8565b82800160010185558215610bd8579182015b82811115610bd7578251825591602001919060010190610bbc565b5b509050610be59190610be9565b5090565b5b80821115610c02576000816000905550600101610bea565b5090565b6000819050919050565b610c1981610c06565b82525050565b6000602082019050610c346000830184610c10565b92915050565b6000604051905090565b600080fd5b600080fd5b600080fd5b600080fd5b6000601f19601f8301169050919050565b7f4e487b7100000000000000000000000000000000000000000000000000000000600052604160045260246000fd5b610ca182610c58565b810181811067ffffffffffffffff82111715610cc057610cbf610c69565b5b80604052505050565b6000610cd3610c3a565b9050610cdf8282610c98565b919050565b600067ffffffffffffffff821115610cff57610cfe610c69565b5b610d0882610c58565b9050602081019050919050565b82818337600083830152505050565b6000610d37610d3284610ce4565b610cc9565b905082815260208101848484011115610d5357610d52610c53565b5b610d5e848285610d15565b509392505050565b600082601f830112610d7b57610d7a610c4e565b5b8135610d8b848260208601610d24565b91505092915050565b600060208284031215610daa57610da9610c44565b5b600082013567ffffffffffffffff811115610dc857610dc7610c49565b5b610dd484828501610d66565b91505092915050565b600081519050919050565b600082825260208201905092915050565b60005b83811015610e17578082015181840152602081019050610dfc565b83811115610e26576000848401525b50505050565b6000610e3782610ddd565b610e418185610de8565b9350610e51818560208601610df9565b610e5a81610c58565b840191505092915050565b60006020820190508181036000830152610e7f8184610e2c565b905092915050565b60008115159050919050565b610e9c81610e87565b82525050565b6000602082019050610eb76000830184610e93565b92915050565b600073ffffffffffffffffffffffffffffffffffffffff82169050919050565b6000610ee882610ebd565b9050919050565b610ef881610edd565b82525050565b6000602082019050610f136000830184610eef565b92915050565b600081519050919050565b600082825260208201905092915050565b6000819050602082019050919050565b610f4e81610edd565b82525050565b6000610f608383610f45565b60208301905092915050565b6000602082019050919050565b6000610f8482610f19565b610f8e8185610f24565b9350610f9983610f35565b8060005b83811015610fca578151610fb18882610f54565b9750610fbc83610f6c565b925050600181019050610f9d565b5085935050505092915050565b600081519050919050565b600082825260208201905092915050565b6000819050602082019050919050565b600082825260208201905092915050565b600061101f82610ddd565b6110298185611003565b9350611039818560208601610df9565b61104281610c58565b840191505092915050565b60006110598383611014565b905092915050565b6000602082019050919050565b600061107982610fd7565b6110838185610fe2565b93508360208202850161109585610ff3565b8060005b858110156110d157848403895281516110b2858261104d565b94506110bd83611061565b925060208a01995050600181019050611099565b50829750879550505050505092915050565b600060408201905081810360008301526110fd8185610f79565b90508181036020830152611111818461106e565b90509392505050565b61112381610edd565b811461112e57600080fd5b50565b6000813590506111408161111a565b92915050565b60006020828403121561115c5761115b610c44565b5b600061116a84828501611131565b91505092915050565b7f4f776e61626c653a2063616c6c6572206973206e6f7420746865206f776e6572600082015250565b60006111a9602083610de8565b91506111b482611173565b602082019050919050565b600060208201905081810360008301526111d88161119c565b9050919050565b7f596f75206d7573742070726f766964652031302c303030207765690000000000600082015250565b6000611215601b83610de8565b9150611220826111df565b602082019050919050565b6000602082019050818103600083015261124481611208565b9050919050565b7f4e487b7100000000000000000000000000000000000000000000000000000000600052602260045260246000fd5b6000600282049050600182168061129257607f821691505b602082108114156112a6576112a561124b565b5b50919050565b600081905092915050565b60008190508160005260206000209050919050565b600081546112d98161127a565b6112e381866112ac565b945060018216600081146112fe576001811461130f57611342565b60ff19831686528186019350611342565b611318856112b7565b60005b8381101561133a5781548189015260018201915060208101905061131b565b838801955050505b50505092915050565b7f2000000000000000000000000000000000000000000000000000000000000000600082015250565b60006113816001836112ac565b915061138c8261134b565b600182019050919050565b60006113a282610ddd565b6113ac81856112ac565b93506113bc818560208601610df9565b80840191505092915050565b60006113d482856112cc565b91506113df82611374565b91506113eb8284611397565b91508190509392505050565b7f4f6e63652075706f6e20612074696d6520000000000000000000000000000000600082015250565b600061142d6011836112ac565b9150611438826113f7565b601182019050919050565b600061144e82611420565b915061145a82846112cc565b915081905092915050565b7f496e697469616c697a61626c653a20636f6e747261637420697320616c72656160008201527f647920696e697469616c697a6564000000000000000000000000000000000000602082015250565b60006114c1602e83610de8565b91506114cc82611465565b604082019050919050565b600060208201905081810360008301526114f0816114b4565b9050919050565b7f4f776e61626c653a206e6577206f776e657220697320746865207a65726f206160008201527f6464726573730000000000000000000000000000000000000000000000000000602082015250565b6000611553602683610de8565b915061155e826114f7565b604082019050919050565b6000602082019050818103600083015261158281611546565b905091905056fea2646970667358221220bf687d76fd788d678cb3799244f76b15500017575df58058e342984d3262bc2164736f6c634300080a0033",
  "immutableReferences": {},
  "source": "// SPDX-License-Identifier: MIT\npragma solidity ^0.8.9;\n\nimport \"@openzeppelin/contracts-upgradeable/access/OwnableUpgradeable.sol\";\n\ncontract PhraseV2 is OwnableUpgradeable {\n    string private storedData;\n    address[] private transactionHistoryAddresses;\n    string[] private transactionHistoryPhrases;\n\n    function initialize() public initializer {\n        __Ownable_init();\n    }\n\n    function alive() public pure returns (bool) {\n        return true;\n    }\n\n    function getBalance() public view onlyOwner returns (uint256) {\n        return address(this).balance;\n    }\n\n    function deposit() public payable {}\n\n    function addWord(string memory word) public payable {\n        require(msg.value == 10000, \"You must provide 10,000 wei\");\n\n        if (bytes(storedData).length == 0) {\n            storedData = word;\n        } else {\n            storedData = string(abi.encodePacked(storedData, \" \", word));\n        }\n\n        transactionHistoryAddresses.push(msg.sender);\n        transactionHistoryPhrases.push(word);\n    }\n\n    function getPhrase() public view returns (string memory) {\n        return string(abi.encodePacked(\"Once upon a time \", storedData));\n    }\n\n    function getTransactionHistory()\n        public\n        view\n        returns (address[] memory, string[] memory)\n    {\n        return (transactionHistoryAddresses, transactionHistoryPhrases);\n    }\n}\n",
  "sourcePath": "/home/jdubedition/codestore/dapp-owaat/contracts/PhraseV2.sol",
  "compiler": {
    "name": "solc",
    "version": "0.8.10+commit.fc410830.Emscripten.clang"
  },
  "schemaVersion": "3.4.3",
  "updatedAt": "2021-12-07T06:03:23.252Z",
  "networkType": "ethereum",
  "devdoc": {
    "kind": "dev",
    "methods": {
      "owner()": {
        "details": "Returns the address of the current owner."
      },
      "renounceOwnership()": {
        "details": "Leaves the contract without owner. It will not be possible to call `onlyOwner` functions anymore. Can only be called by the current owner. NOTE: Renouncing ownership will leave the contract without an owner, thereby removing any functionality that is only available to the owner."
      },
      "transferOwnership(address)": {
        "details": "Transfers ownership of the contract to a new account (`newOwner`). Can only be called by the current owner."
      }
    },
    "version": 1
  },
  "userdoc": {
    "kind": "user",
    "methods": {},
    "version": 1
  }
}