{
  "contractName": "Phrase",
  "abi": [
    {
      "inputs": [
        {
          "internalType": "string",
          "name": "word",
          "type": "string"
        }
      ],
      "name": "addWord",
      "outputs": [],
      "stateMutability": "nonpayable",
      "type": "function"
    },
    {
      "inputs": [],
      "name": "getPhrase",
      "outputs": [
        {
          "internalType": "string",
          "name": "",
          "type": "string"
        }
      ],
      "stateMutability": "view",
      "type": "function",
      "constant": true
    }
  ],
  "bytecode": "0x608060405234801561001057600080fd5b50610648806100206000396000f3fe608060405234801561001057600080fd5b50600436106100365760003560e01c80634974da811461003b5780635ce2b53914610057575b600080fd5b61005560048036038101906100509190610373565b610075565b005b61005f6100e4565b60405161006c9190610444565b60405180910390f35b600080805461008390610495565b905014156100a75780600090805190602001906100a1929190610176565b506100e1565b6000816040516020016100bb9291906105e3565b604051602081830303815290604052600090805190602001906100df929190610176565b505b50565b6060600080546100f390610495565b80601f016020809104026020016040519081016040528092919081815260200182805461011f90610495565b801561016c5780601f106101415761010080835404028352916020019161016c565b820191906000526020600020905b81548152906001019060200180831161014f57829003601f168201915b5050505050905090565b82805461018290610495565b90600052602060002090601f0160209004810192826101a457600085556101eb565b82601f106101bd57805160ff19168380011785556101eb565b828001600101855582156101eb579182015b828111156101ea5782518255916020019190600101906101cf565b5b5090506101f891906101fc565b5090565b5b808211156102155760008160009055506001016101fd565b5090565b6000604051905090565b600080fd5b600080fd5b600080fd5b600080fd5b6000601f19601f8301169050919050565b7f4e487b7100000000000000000000000000000000000000000000000000000000600052604160045260246000fd5b61028082610237565b810181811067ffffffffffffffff8211171561029f5761029e610248565b5b80604052505050565b60006102b2610219565b90506102be8282610277565b919050565b600067ffffffffffffffff8211156102de576102dd610248565b5b6102e782610237565b9050602081019050919050565b82818337600083830152505050565b6000610316610311846102c3565b6102a8565b90508281526020810184848401111561033257610331610232565b5b61033d8482856102f4565b509392505050565b600082601f83011261035a5761035961022d565b5b813561036a848260208601610303565b91505092915050565b60006020828403121561038957610388610223565b5b600082013567ffffffffffffffff8111156103a7576103a6610228565b5b6103b384828501610345565b91505092915050565b600081519050919050565b600082825260208201905092915050565b60005b838110156103f65780820151818401526020810190506103db565b83811115610405576000848401525b50505050565b6000610416826103bc565b61042081856103c7565b93506104308185602086016103d8565b61043981610237565b840191505092915050565b6000602082019050818103600083015261045e818461040b565b905092915050565b7f4e487b7100000000000000000000000000000000000000000000000000000000600052602260045260246000fd5b600060028204905060018216806104ad57607f821691505b602082108114156104c1576104c0610466565b5b50919050565b600081905092915050565b60008190508160005260206000209050919050565b600081546104f481610495565b6104fe81866104c7565b94506001821660008114610519576001811461052a5761055d565b60ff1983168652818601935061055d565b610533856104d2565b60005b8381101561055557815481890152600182019150602081019050610536565b838801955050505b50505092915050565b7f2000000000000000000000000000000000000000000000000000000000000000600082015250565b600061059c6001836104c7565b91506105a782610566565b600182019050919050565b60006105bd826103bc565b6105c781856104c7565b93506105d78185602086016103d8565b80840191505092915050565b60006105ef82856104e7565b91506105fa8261058f565b915061060682846105b2565b9150819050939250505056fea26469706673582212203b3ac78b37a2db79711ab6fc5c588930e8191a8f03050bf685138d020cd5531764736f6c634300080a0033",
  "immutableReferences": {},
  "source": "// SPDX-License-Identifier: MIT\npragma solidity ^0.8.9;\n\ncontract Phrase {\n    string storedData;\n\n    function addWord(string memory word) public {\n        if (bytes(storedData).length == 0) {\n            storedData = word;\n        } else {\n            storedData = string(abi.encodePacked(storedData, \" \", word));\n        }\n    }\n\n    function getPhrase() public view returns (string memory) {\n        return storedData;\n    }\n}\n",
  "sourcePath": "/home/jdubedition/codestore/dapp-owaat/contracts/Phrase.sol",
  "compiler": {
    "name": "solc",
    "version": "0.8.10+commit.fc410830.Emscripten.clang"
  },
  "schemaVersion": "3.4.3",
  "updatedAt": "2021-11-29T14:15:26.522Z",
  "networkType": "ethereum",
  "devdoc": {
    "kind": "dev",
    "methods": {},
    "version": 1
  },
  "userdoc": {
    "kind": "user",
    "methods": {},
    "version": 1
  }
}