{
  "contractName": "PhraseV2",
  "abi": [
    {
      "anonymous": false,
      "inputs": [
        {
          "indexed": true,
          "internalType": "address",
          "name": "previousOwner",
          "type": "address"
        },
        {
          "indexed": true,
          "internalType": "address",
          "name": "newOwner",
          "type": "address"
        }
      ],
      "name": "OwnershipTransferred",
      "type": "event"
    },
    {
      "inputs": [],
      "name": "owner",
      "outputs": [
        {
          "internalType": "address",
          "name": "",
          "type": "address"
        }
      ],
      "stateMutability": "view",
      "type": "function"
    },
    {
      "inputs": [],
      "name": "renounceOwnership",
      "outputs": [],
      "stateMutability": "nonpayable",
      "type": "function"
    },
    {
      "inputs": [
        {
          "internalType": "address",
          "name": "newOwner",
          "type": "address"
        }
      ],
      "name": "transferOwnership",
      "outputs": [],
      "stateMutability": "nonpayable",
      "type": "function"
    },
    {
      "inputs": [],
      "name": "initialize",
      "outputs": [],
      "stateMutability": "nonpayable",
      "type": "function"
    },
    {
      "inputs": [],
      "name": "alive",
      "outputs": [
        {
          "internalType": "bool",
          "name": "",
          "type": "bool"
        }
      ],
      "stateMutability": "pure",
      "type": "function"
    },
    {
      "inputs": [],
      "name": "getBalance",
      "outputs": [
        {
          "internalType": "uint256",
          "name": "",
          "type": "uint256"
        }
      ],
      "stateMutability": "view",
      "type": "function"
    },
    {
      "inputs": [],
      "name": "ownerWithdraw",
      "outputs": [],
      "stateMutability": "nonpayable",
      "type": "function"
    },
    {
      "inputs": [],
      "name": "deposit",
      "outputs": [],
      "stateMutability": "payable",
      "type": "function"
    },
    {
      "inputs": [
        {
          "internalType": "string",
          "name": "word",
          "type": "string"
        }
      ],
      "name": "addWord",
      "outputs": [],
      "stateMutability": "payable",
      "type": "function"
    },
    {
      "inputs": [],
      "name": "getPhrase",
      "outputs": [
        {
          "internalType": "string",
          "name": "",
          "type": "string"
        }
      ],
      "stateMutability": "view",
      "type": "function"
    },
    {
      "inputs": [],
      "name": "getTransactionHistory",
      "outputs": [
        {
          "internalType": "address[]",
          "name": "",
          "type": "address[]"
        },
        {
          "internalType": "string[]",
          "name": "",
          "type": "string[]"
        }
      ],
      "stateMutability": "view",
      "type": "function"
    }
  ],
  "bytecode": "0x608060405234801561001057600080fd5b506117f0806100206000396000f3fe60806040526004361061009c5760003560e01c8063753899e911610064578063753899e9146101415780638129fc1c1461016c5780638da5cb5b14610183578063b76d4fc3146101ae578063d0e30db0146101da578063f2fde38b146101e45761009c565b806312065fe0146100a15780634311de8f146100cc5780634974da81146100e35780635ce2b539146100ff578063715018a61461012a575b600080fd5b3480156100ad57600080fd5b506100b661020d565b6040516100c39190610d78565b60405180910390f35b3480156100d857600080fd5b506100e1610291565b005b6100fd60048036038101906100f89190610eed565b6103c3565b005b34801561010b57600080fd5b5061011461051b565b6040516101219190610fbe565b60405180910390f35b34801561013657600080fd5b5061013f610543565b005b34801561014d57600080fd5b506101566105cb565b6040516101639190610ffb565b60405180910390f35b34801561017857600080fd5b506101816105d4565b005b34801561018f57600080fd5b506101986106b5565b6040516101a59190611057565b60405180910390f35b3480156101ba57600080fd5b506101c36106df565b6040516101d192919061123c565b60405180910390f35b6101e2610849565b005b3480156101f057600080fd5b5061020b6004803603810190610206919061129f565b61084b565b005b6000610217610943565b73ffffffffffffffffffffffffffffffffffffffff166102356106b5565b73ffffffffffffffffffffffffffffffffffffffff161461028b576040517f08c379a000000000000000000000000000000000000000000000000000000000815260040161028290611318565b60405180910390fd5b47905090565b610299610943565b73ffffffffffffffffffffffffffffffffffffffff166102b76106b5565b73ffffffffffffffffffffffffffffffffffffffff161461030d576040517f08c379a000000000000000000000000000000000000000000000000000000000815260040161030490611318565b60405180910390fd5b60006103176106b5565b73ffffffffffffffffffffffffffffffffffffffff164760405161033a90611369565b60006040518083038185875af1925050503d8060008114610377576040519150601f19603f3d011682016040523d82523d6000602084013e61037c565b606091505b50509050806103c0576040517f08c379a00000000000000000000000000000000000000000000000000000000081526004016103b7906113ca565b60405180910390fd5b50565b662386f26fc10000341461040c576040517f08c379a00000000000000000000000000000000000000000000000000000000081526004016104039061145c565b60405180910390fd5b60006065805461041b906114ab565b9050141561043f578060659080519060200190610439929190610cbc565b50610479565b6065816040516020016104539291906115f9565b60405160208183030381529060405260659080519060200190610477929190610cbc565b505b6066339080600181540180825580915050600190039060005260206000200160009091909190916101000a81548173ffffffffffffffffffffffffffffffffffffffff021916908373ffffffffffffffffffffffffffffffffffffffff160217905550606781908060018154018082558091505060019003906000526020600020016000909190919091509080519060200190610517929190610cbc565b5050565b6060606560405160200161052f9190611674565b604051602081830303815290604052905090565b61054b610943565b73ffffffffffffffffffffffffffffffffffffffff166105696106b5565b73ffffffffffffffffffffffffffffffffffffffff16146105bf576040517f08c379a00000000000000000000000000000000000000000000000000000000081526004016105b690611318565b60405180910390fd5b6105c9600061094b565b565b60006001905090565b600060019054906101000a900460ff16806105fa575060008054906101000a900460ff16155b610639576040517f08c379a000000000000000000000000000000000000000000000000000000000815260040161063090611708565b60405180910390fd5b60008060019054906101000a900460ff161590508015610689576001600060016101000a81548160ff02191690831515021790555060016000806101000a81548160ff0219169083151502179055505b610691610a11565b80156106b25760008060016101000a81548160ff0219169083151502179055505b50565b6000603360009054906101000a900473ffffffffffffffffffffffffffffffffffffffff16905090565b606080606660678180548060200260200160405190810160405280929190818152602001828054801561076757602002820191906000526020600020905b8160009054906101000a900473ffffffffffffffffffffffffffffffffffffffff1673ffffffffffffffffffffffffffffffffffffffff168152602001906001019080831161071d575b5050505050915080805480602002602001604051908101604052809291908181526020016000905b8282101561083b5783829060005260206000200180546107ae906114ab565b80601f01602080910402602001604051908101604052809291908181526020018280546107da906114ab565b80156108275780601f106107fc57610100808354040283529160200191610827565b820191906000526020600020905b81548152906001019060200180831161080a57829003601f168201915b50505050508152602001906001019061078f565b505050509050915091509091565b565b610853610943565b73ffffffffffffffffffffffffffffffffffffffff166108716106b5565b73ffffffffffffffffffffffffffffffffffffffff16146108c7576040517f08c379a00000000000000000000000000000000000000000000000000000000081526004016108be90611318565b60405180910390fd5b600073ffffffffffffffffffffffffffffffffffffffff168173ffffffffffffffffffffffffffffffffffffffff161415610937576040517f08c379a000000000000000000000000000000000000000000000000000000000815260040161092e9061179a565b60405180910390fd5b6109408161094b565b50565b600033905090565b6000603360009054906101000a900473ffffffffffffffffffffffffffffffffffffffff16905081603360006101000a81548173ffffffffffffffffffffffffffffffffffffffff021916908373ffffffffffffffffffffffffffffffffffffffff1602179055508173ffffffffffffffffffffffffffffffffffffffff168173ffffffffffffffffffffffffffffffffffffffff167f8be0079c531659141344cd1fd0a4f28419497f9722a3daafe3b4186f6b6457e060405160405180910390a35050565b600060019054906101000a900460ff1680610a37575060008054906101000a900460ff16155b610a76576040517f08c379a0000000000000000000000000000000000000000000000000000000008152600401610a6d90611708565b60405180910390fd5b60008060019054906101000a900460ff161590508015610ac6576001600060016101000a81548160ff02191690831515021790555060016000806101000a81548160ff0219169083151502179055505b610ace610afa565b610ad6610bd3565b8015610af75760008060016101000a81548160ff0219169083151502179055505b50565b600060019054906101000a900460ff1680610b20575060008054906101000a900460ff16155b610b5f576040517f08c379a0000000000000000000000000000000000000000000000000000000008152600401610b5690611708565b60405180910390fd5b60008060019054906101000a900460ff161590508015610baf576001600060016101000a81548160ff02191690831515021790555060016000806101000a81548160ff0219169083151502179055505b8015610bd05760008060016101000a81548160ff0219169083151502179055505b50565b600060019054906101000a900460ff1680610bf9575060008054906101000a900460ff16155b610c38576040517f08c379a0000000000000000000000000000000000000000000000000000000008152600401610c2f90611708565b60405180910390fd5b60008060019054906101000a900460ff161590508015610c88576001600060016101000a81548160ff02191690831515021790555060016000806101000a81548160ff0219169083151502179055505b610c98610c93610943565b61094b565b8015610cb95760008060016101000a81548160ff0219169083151502179055505b50565b828054610cc8906114ab565b90600052602060002090601f016020900481019282610cea5760008555610d31565b82601f10610d0357805160ff1916838001178555610d31565b82800160010185558215610d31579182015b82811115610d30578251825591602001919060010190610d15565b5b509050610d3e9190610d42565b5090565b5b80821115610d5b576000816000905550600101610d43565b5090565b6000819050919050565b610d7281610d5f565b82525050565b6000602082019050610d8d6000830184610d69565b92915050565b6000604051905090565b600080fd5b600080fd5b600080fd5b600080fd5b6000601f19601f8301169050919050565b7f4e487b7100000000000000000000000000000000000000000000000000000000600052604160045260246000fd5b610dfa82610db1565b810181811067ffffffffffffffff82111715610e1957610e18610dc2565b5b80604052505050565b6000610e2c610d93565b9050610e388282610df1565b919050565b600067ffffffffffffffff821115610e5857610e57610dc2565b5b610e6182610db1565b9050602081019050919050565b82818337600083830152505050565b6000610e90610e8b84610e3d565b610e22565b905082815260208101848484011115610eac57610eab610dac565b5b610eb7848285610e6e565b509392505050565b600082601f830112610ed457610ed3610da7565b5b8135610ee4848260208601610e7d565b91505092915050565b600060208284031215610f0357610f02610d9d565b5b600082013567ffffffffffffffff811115610f2157610f20610da2565b5b610f2d84828501610ebf565b91505092915050565b600081519050919050565b600082825260208201905092915050565b60005b83811015610f70578082015181840152602081019050610f55565b83811115610f7f576000848401525b50505050565b6000610f9082610f36565b610f9a8185610f41565b9350610faa818560208601610f52565b610fb381610db1565b840191505092915050565b60006020820190508181036000830152610fd88184610f85565b905092915050565b60008115159050919050565b610ff581610fe0565b82525050565b60006020820190506110106000830184610fec565b92915050565b600073ffffffffffffffffffffffffffffffffffffffff82169050919050565b600061104182611016565b9050919050565b61105181611036565b82525050565b600060208201905061106c6000830184611048565b92915050565b600081519050919050565b600082825260208201905092915050565b6000819050602082019050919050565b6110a781611036565b82525050565b60006110b9838361109e565b60208301905092915050565b6000602082019050919050565b60006110dd82611072565b6110e7818561107d565b93506110f28361108e565b8060005b8381101561112357815161110a88826110ad565b9750611115836110c5565b9250506001810190506110f6565b5085935050505092915050565b600081519050919050565b600082825260208201905092915050565b6000819050602082019050919050565b600082825260208201905092915050565b600061117882610f36565b611182818561115c565b9350611192818560208601610f52565b61119b81610db1565b840191505092915050565b60006111b2838361116d565b905092915050565b6000602082019050919050565b60006111d282611130565b6111dc818561113b565b9350836020820285016111ee8561114c565b8060005b8581101561122a578484038952815161120b85826111a6565b9450611216836111ba565b925060208a019950506001810190506111f2565b50829750879550505050505092915050565b6000604082019050818103600083015261125681856110d2565b9050818103602083015261126a81846111c7565b90509392505050565b61127c81611036565b811461128757600080fd5b50565b60008135905061129981611273565b92915050565b6000602082840312156112b5576112b4610d9d565b5b60006112c38482850161128a565b91505092915050565b7f4f776e61626c653a2063616c6c6572206973206e6f7420746865206f776e6572600082015250565b6000611302602083610f41565b915061130d826112cc565b602082019050919050565b60006020820190508181036000830152611331816112f5565b9050919050565b600081905092915050565b50565b6000611353600083611338565b915061135e82611343565b600082019050919050565b600061137482611346565b9150819050919050565b7f6f776e65725769746864726177206661696c6564000000000000000000000000600082015250565b60006113b4601483610f41565b91506113bf8261137e565b602082019050919050565b600060208201905081810360008301526113e3816113a7565b9050919050565b7f596f75206d7573742070726f7669646520302e303120657468657220746f206160008201527f6464206120776f72640000000000000000000000000000000000000000000000602082015250565b6000611446602983610f41565b9150611451826113ea565b604082019050919050565b6000602082019050818103600083015261147581611439565b9050919050565b7f4e487b7100000000000000000000000000000000000000000000000000000000600052602260045260246000fd5b600060028204905060018216806114c357607f821691505b602082108114156114d7576114d661147c565b5b50919050565b600081905092915050565b60008190508160005260206000209050919050565b6000815461150a816114ab565b61151481866114dd565b9450600182166000811461152f576001811461154057611573565b60ff19831686528186019350611573565b611549856114e8565b60005b8381101561156b5781548189015260018201915060208101905061154c565b838801955050505b50505092915050565b7f2000000000000000000000000000000000000000000000000000000000000000600082015250565b60006115b26001836114dd565b91506115bd8261157c565b600182019050919050565b60006115d382610f36565b6115dd81856114dd565b93506115ed818560208601610f52565b80840191505092915050565b600061160582856114fd565b9150611610826115a5565b915061161c82846115c8565b91508190509392505050565b7f4f6e63652075706f6e20612074696d6520000000000000000000000000000000600082015250565b600061165e6011836114dd565b915061166982611628565b601182019050919050565b600061167f82611651565b915061168b82846114fd565b915081905092915050565b7f496e697469616c697a61626c653a20636f6e747261637420697320616c72656160008201527f647920696e697469616c697a6564000000000000000000000000000000000000602082015250565b60006116f2602e83610f41565b91506116fd82611696565b604082019050919050565b60006020820190508181036000830152611721816116e5565b9050919050565b7f4f776e61626c653a206e6577206f776e657220697320746865207a65726f206160008201527f6464726573730000000000000000000000000000000000000000000000000000602082015250565b6000611784602683610f41565b915061178f82611728565b604082019050919050565b600060208201905081810360008301526117b381611777565b905091905056fea2646970667358221220ee45317f22ec78ddb5090c819e89c296ac8e4f59f3855ececce3891463ed463964736f6c634300080a0033",
  "immutableReferences": {},
  "source": "// SPDX-License-Identifier: MIT\npragma solidity ^0.8.9;\n\nimport \"@openzeppelin/contracts-upgradeable/access/OwnableUpgradeable.sol\";\n\ncontract PhraseV2 is OwnableUpgradeable {\n    string private storedData;\n    address[] private transactionHistoryAddresses;\n    string[] private transactionHistoryPhrases;\n\n    function initialize() public initializer {\n        __Ownable_init();\n    }\n\n    function alive() public pure returns (bool) {\n        return true;\n    }\n\n    function getBalance() public view onlyOwner returns (uint256) {\n        return address(this).balance;\n    }\n\n    function ownerWithdraw() public onlyOwner {\n        (bool success, ) = owner().call{value: address(this).balance}(\"\");\n        require(success, \"ownerWithdraw failed\");\n    }\n\n    function deposit() public payable {}\n\n    function addWord(string memory word) public payable {\n        require(\n            msg.value == 0.01 ether,\n            \"You must provide 0.01 ether to add a word\"\n        );\n\n        if (bytes(storedData).length == 0) {\n            storedData = word;\n        } else {\n            storedData = string(abi.encodePacked(storedData, \" \", word));\n        }\n\n        transactionHistoryAddresses.push(msg.sender);\n        transactionHistoryPhrases.push(word);\n    }\n\n    function getPhrase() public view returns (string memory) {\n        return string(abi.encodePacked(\"Once upon a time \", storedData));\n    }\n\n    function getTransactionHistory()\n        public\n        view\n        returns (address[] memory, string[] memory)\n    {\n        return (transactionHistoryAddresses, transactionHistoryPhrases);\n    }\n}\n",
  "sourcePath": "/home/jdubedition/codestore/dapp-owaat/contracts/PhraseV2.sol",
  "compiler": {
    "name": "solc",
    "version": "0.8.10+commit.fc410830.Emscripten.clang"
  },
  "schemaVersion": "3.4.3",
  "updatedAt": "2021-12-08T02:27:41.596Z",
  "devdoc": {
    "kind": "dev",
    "methods": {
      "owner()": {
        "details": "Returns the address of the current owner."
      },
      "renounceOwnership()": {
        "details": "Leaves the contract without owner. It will not be possible to call `onlyOwner` functions anymore. Can only be called by the current owner. NOTE: Renouncing ownership will leave the contract without an owner, thereby removing any functionality that is only available to the owner."
      },
      "transferOwnership(address)": {
        "details": "Transfers ownership of the contract to a new account (`newOwner`). Can only be called by the current owner."
      }
    },
    "version": 1
  },
  "userdoc": {
    "kind": "user",
    "methods": {},
    "version": 1
  }
}