{
  "contractName": "PhraseV3",
  "abi": [
    {
      "anonymous": false,
      "inputs": [
        {
          "indexed": true,
          "internalType": "address",
          "name": "previousOwner",
          "type": "address"
        },
        {
          "indexed": true,
          "internalType": "address",
          "name": "newOwner",
          "type": "address"
        }
      ],
      "name": "OwnershipTransferred",
      "type": "event"
    },
    {
      "inputs": [],
      "name": "owner",
      "outputs": [
        {
          "internalType": "address",
          "name": "",
          "type": "address"
        }
      ],
      "stateMutability": "view",
      "type": "function"
    },
    {
      "inputs": [],
      "name": "renounceOwnership",
      "outputs": [],
      "stateMutability": "nonpayable",
      "type": "function"
    },
    {
      "inputs": [
        {
          "internalType": "address",
          "name": "newOwner",
          "type": "address"
        }
      ],
      "name": "transferOwnership",
      "outputs": [],
      "stateMutability": "nonpayable",
      "type": "function"
    },
    {
      "inputs": [],
      "name": "initialize",
      "outputs": [],
      "stateMutability": "nonpayable",
      "type": "function"
    },
    {
      "inputs": [],
      "name": "alive",
      "outputs": [
        {
          "internalType": "bool",
          "name": "",
          "type": "bool"
        }
      ],
      "stateMutability": "pure",
      "type": "function"
    },
    {
      "inputs": [],
      "name": "getBalance",
      "outputs": [
        {
          "internalType": "uint256",
          "name": "",
          "type": "uint256"
        }
      ],
      "stateMutability": "view",
      "type": "function"
    },
    {
      "inputs": [],
      "name": "ownerWithdraw",
      "outputs": [],
      "stateMutability": "nonpayable",
      "type": "function"
    },
    {
      "inputs": [
        {
          "internalType": "string",
          "name": "word",
          "type": "string"
        }
      ],
      "name": "addWord",
      "outputs": [],
      "stateMutability": "payable",
      "type": "function"
    },
    {
      "inputs": [],
      "name": "getPhrase",
      "outputs": [
        {
          "internalType": "string",
          "name": "",
          "type": "string"
        }
      ],
      "stateMutability": "view",
      "type": "function"
    },
    {
      "inputs": [],
      "name": "getTransactionHistory",
      "outputs": [
        {
          "internalType": "address[]",
          "name": "",
          "type": "address[]"
        },
        {
          "internalType": "string[]",
          "name": "",
          "type": "string[]"
        }
      ],
      "stateMutability": "view",
      "type": "function"
    }
  ],
  "bytecode": "0x608060405234801561001057600080fd5b506118b9806100206000396000f3fe6080604052600436106100915760003560e01c8063753899e911610059578063753899e9146101365780638129fc1c146101615780638da5cb5b14610178578063b76d4fc3146101a3578063f2fde38b146101cf57610091565b806312065fe0146100965780634311de8f146100c15780634974da81146100d85780635ce2b539146100f4578063715018a61461011f575b600080fd5b3480156100a257600080fd5b506100ab6101f8565b6040516100b89190610e1d565b60405180910390f35b3480156100cd57600080fd5b506100d661027c565b005b6100f260048036038101906100ed9190610f92565b6103ae565b005b34801561010057600080fd5b50610109610558565b6040516101169190611063565b60405180910390f35b34801561012b57600080fd5b506101346105ea565b005b34801561014257600080fd5b5061014b610672565b60405161015891906110a0565b60405180910390f35b34801561016d57600080fd5b5061017661067b565b005b34801561018457600080fd5b5061018d61075c565b60405161019a91906110fc565b60405180910390f35b3480156101af57600080fd5b506101b8610786565b6040516101c69291906112e1565b60405180910390f35b3480156101db57600080fd5b506101f660048036038101906101f19190611344565b6108f0565b005b60006102026109e8565b73ffffffffffffffffffffffffffffffffffffffff1661022061075c565b73ffffffffffffffffffffffffffffffffffffffff1614610276576040517f08c379a000000000000000000000000000000000000000000000000000000000815260040161026d906113bd565b60405180910390fd5b47905090565b6102846109e8565b73ffffffffffffffffffffffffffffffffffffffff166102a261075c565b73ffffffffffffffffffffffffffffffffffffffff16146102f8576040517f08c379a00000000000000000000000000000000000000000000000000000000081526004016102ef906113bd565b60405180910390fd5b600061030261075c565b73ffffffffffffffffffffffffffffffffffffffff16476040516103259061140e565b60006040518083038185875af1925050503d8060008114610362576040519150601f19603f3d011682016040523d82523d6000602084013e610367565b606091505b50509050806103ab576040517f08c379a00000000000000000000000000000000000000000000000000000000081526004016103a29061146f565b60405180910390fd5b50565b600081511180156103c15750602a815111155b610400576040517f08c379a00000000000000000000000000000000000000000000000000000000081526004016103f790611501565b60405180910390fd5b662386f26fc100003414610449576040517f08c379a000000000000000000000000000000000000000000000000000000000815260040161044090611593565b60405180910390fd5b600060658054610458906115e2565b9050141561047c578060659080519060200190610476929190610d61565b506104b6565b606581604051602001610490929190611730565b604051602081830303815290604052606590805190602001906104b4929190610d61565b505b6066339080600181540180825580915050600190039060005260206000200160009091909190916101000a81548173ffffffffffffffffffffffffffffffffffffffff021916908373ffffffffffffffffffffffffffffffffffffffff160217905550606781908060018154018082558091505060019003906000526020600020016000909190919091509080519060200190610554929190610d61565b5050565b606060658054610567906115e2565b80601f0160208091040260200160405190810160405280929190818152602001828054610593906115e2565b80156105e05780601f106105b5576101008083540402835291602001916105e0565b820191906000526020600020905b8154815290600101906020018083116105c357829003601f168201915b5050505050905090565b6105f26109e8565b73ffffffffffffffffffffffffffffffffffffffff1661061061075c565b73ffffffffffffffffffffffffffffffffffffffff1614610666576040517f08c379a000000000000000000000000000000000000000000000000000000000815260040161065d906113bd565b60405180910390fd5b61067060006109f0565b565b60006001905090565b600060019054906101000a900460ff16806106a1575060008054906101000a900460ff16155b6106e0576040517f08c379a00000000000000000000000000000000000000000000000000000000081526004016106d7906117d1565b60405180910390fd5b60008060019054906101000a900460ff161590508015610730576001600060016101000a81548160ff02191690831515021790555060016000806101000a81548160ff0219169083151502179055505b610738610ab6565b80156107595760008060016101000a81548160ff0219169083151502179055505b50565b6000603360009054906101000a900473ffffffffffffffffffffffffffffffffffffffff16905090565b606080606660678180548060200260200160405190810160405280929190818152602001828054801561080e57602002820191906000526020600020905b8160009054906101000a900473ffffffffffffffffffffffffffffffffffffffff1673ffffffffffffffffffffffffffffffffffffffff16815260200190600101908083116107c4575b5050505050915080805480602002602001604051908101604052809291908181526020016000905b828210156108e2578382906000526020600020018054610855906115e2565b80601f0160208091040260200160405190810160405280929190818152602001828054610881906115e2565b80156108ce5780601f106108a3576101008083540402835291602001916108ce565b820191906000526020600020905b8154815290600101906020018083116108b157829003601f168201915b505050505081526020019060010190610836565b505050509050915091509091565b6108f86109e8565b73ffffffffffffffffffffffffffffffffffffffff1661091661075c565b73ffffffffffffffffffffffffffffffffffffffff161461096c576040517f08c379a0000000000000000000000000000000000000000000000000000000008152600401610963906113bd565b60405180910390fd5b600073ffffffffffffffffffffffffffffffffffffffff168173ffffffffffffffffffffffffffffffffffffffff1614156109dc576040517f08c379a00000000000000000000000000000000000000000000000000000000081526004016109d390611863565b60405180910390fd5b6109e5816109f0565b50565b600033905090565b6000603360009054906101000a900473ffffffffffffffffffffffffffffffffffffffff16905081603360006101000a81548173ffffffffffffffffffffffffffffffffffffffff021916908373ffffffffffffffffffffffffffffffffffffffff1602179055508173ffffffffffffffffffffffffffffffffffffffff168173ffffffffffffffffffffffffffffffffffffffff167f8be0079c531659141344cd1fd0a4f28419497f9722a3daafe3b4186f6b6457e060405160405180910390a35050565b600060019054906101000a900460ff1680610adc575060008054906101000a900460ff16155b610b1b576040517f08c379a0000000000000000000000000000000000000000000000000000000008152600401610b12906117d1565b60405180910390fd5b60008060019054906101000a900460ff161590508015610b6b576001600060016101000a81548160ff02191690831515021790555060016000806101000a81548160ff0219169083151502179055505b610b73610b9f565b610b7b610c78565b8015610b9c5760008060016101000a81548160ff0219169083151502179055505b50565b600060019054906101000a900460ff1680610bc5575060008054906101000a900460ff16155b610c04576040517f08c379a0000000000000000000000000000000000000000000000000000000008152600401610bfb906117d1565b60405180910390fd5b60008060019054906101000a900460ff161590508015610c54576001600060016101000a81548160ff02191690831515021790555060016000806101000a81548160ff0219169083151502179055505b8015610c755760008060016101000a81548160ff0219169083151502179055505b50565b600060019054906101000a900460ff1680610c9e575060008054906101000a900460ff16155b610cdd576040517f08c379a0000000000000000000000000000000000000000000000000000000008152600401610cd4906117d1565b60405180910390fd5b60008060019054906101000a900460ff161590508015610d2d576001600060016101000a81548160ff02191690831515021790555060016000806101000a81548160ff0219169083151502179055505b610d3d610d386109e8565b6109f0565b8015610d5e5760008060016101000a81548160ff0219169083151502179055505b50565b828054610d6d906115e2565b90600052602060002090601f016020900481019282610d8f5760008555610dd6565b82601f10610da857805160ff1916838001178555610dd6565b82800160010185558215610dd6579182015b82811115610dd5578251825591602001919060010190610dba565b5b509050610de39190610de7565b5090565b5b80821115610e00576000816000905550600101610de8565b5090565b6000819050919050565b610e1781610e04565b82525050565b6000602082019050610e326000830184610e0e565b92915050565b6000604051905090565b600080fd5b600080fd5b600080fd5b600080fd5b6000601f19601f8301169050919050565b7f4e487b7100000000000000000000000000000000000000000000000000000000600052604160045260246000fd5b610e9f82610e56565b810181811067ffffffffffffffff82111715610ebe57610ebd610e67565b5b80604052505050565b6000610ed1610e38565b9050610edd8282610e96565b919050565b600067ffffffffffffffff821115610efd57610efc610e67565b5b610f0682610e56565b9050602081019050919050565b82818337600083830152505050565b6000610f35610f3084610ee2565b610ec7565b905082815260208101848484011115610f5157610f50610e51565b5b610f5c848285610f13565b509392505050565b600082601f830112610f7957610f78610e4c565b5b8135610f89848260208601610f22565b91505092915050565b600060208284031215610fa857610fa7610e42565b5b600082013567ffffffffffffffff811115610fc657610fc5610e47565b5b610fd284828501610f64565b91505092915050565b600081519050919050565b600082825260208201905092915050565b60005b83811015611015578082015181840152602081019050610ffa565b83811115611024576000848401525b50505050565b600061103582610fdb565b61103f8185610fe6565b935061104f818560208601610ff7565b61105881610e56565b840191505092915050565b6000602082019050818103600083015261107d818461102a565b905092915050565b60008115159050919050565b61109a81611085565b82525050565b60006020820190506110b56000830184611091565b92915050565b600073ffffffffffffffffffffffffffffffffffffffff82169050919050565b60006110e6826110bb565b9050919050565b6110f6816110db565b82525050565b600060208201905061111160008301846110ed565b92915050565b600081519050919050565b600082825260208201905092915050565b6000819050602082019050919050565b61114c816110db565b82525050565b600061115e8383611143565b60208301905092915050565b6000602082019050919050565b600061118282611117565b61118c8185611122565b935061119783611133565b8060005b838110156111c85781516111af8882611152565b97506111ba8361116a565b92505060018101905061119b565b5085935050505092915050565b600081519050919050565b600082825260208201905092915050565b6000819050602082019050919050565b600082825260208201905092915050565b600061121d82610fdb565b6112278185611201565b9350611237818560208601610ff7565b61124081610e56565b840191505092915050565b60006112578383611212565b905092915050565b6000602082019050919050565b6000611277826111d5565b61128181856111e0565b935083602082028501611293856111f1565b8060005b858110156112cf57848403895281516112b0858261124b565b94506112bb8361125f565b925060208a01995050600181019050611297565b50829750879550505050505092915050565b600060408201905081810360008301526112fb8185611177565b9050818103602083015261130f818461126c565b90509392505050565b611321816110db565b811461132c57600080fd5b50565b60008135905061133e81611318565b92915050565b60006020828403121561135a57611359610e42565b5b60006113688482850161132f565b91505092915050565b7f4f776e61626c653a2063616c6c6572206973206e6f7420746865206f776e6572600082015250565b60006113a7602083610fe6565b91506113b282611371565b602082019050919050565b600060208201905081810360008301526113d68161139a565b9050919050565b600081905092915050565b50565b60006113f86000836113dd565b9150611403826113e8565b600082019050919050565b6000611419826113eb565b9150819050919050565b7f6f776e65725769746864726177206661696c6564000000000000000000000000600082015250565b6000611459601483610fe6565b915061146482611423565b602082019050919050565b600060208201905081810360008301526114888161144c565b9050919050565b7f776f7264206d757374206265206265747765656e2031207468616e203432206360008201527f6861726163746572732c20696e636c7573697665000000000000000000000000602082015250565b60006114eb603483610fe6565b91506114f68261148f565b604082019050919050565b6000602082019050818103600083015261151a816114de565b9050919050565b7f596f75206d7573742070726f7669646520302e303120657468657220746f206160008201527f6464206120776f72640000000000000000000000000000000000000000000000602082015250565b600061157d602983610fe6565b915061158882611521565b604082019050919050565b600060208201905081810360008301526115ac81611570565b9050919050565b7f4e487b7100000000000000000000000000000000000000000000000000000000600052602260045260246000fd5b600060028204905060018216806115fa57607f821691505b6020821081141561160e5761160d6115b3565b5b50919050565b600081905092915050565b60008190508160005260206000209050919050565b60008154611641816115e2565b61164b8186611614565b945060018216600081146116665760018114611677576116aa565b60ff198316865281860193506116aa565b6116808561161f565b60005b838110156116a257815481890152600182019150602081019050611683565b838801955050505b50505092915050565b7f2000000000000000000000000000000000000000000000000000000000000000600082015250565b60006116e9600183611614565b91506116f4826116b3565b600182019050919050565b600061170a82610fdb565b6117148185611614565b9350611724818560208601610ff7565b80840191505092915050565b600061173c8285611634565b9150611747826116dc565b915061175382846116ff565b91508190509392505050565b7f496e697469616c697a61626c653a20636f6e747261637420697320616c72656160008201527f647920696e697469616c697a6564000000000000000000000000000000000000602082015250565b60006117bb602e83610fe6565b91506117c68261175f565b604082019050919050565b600060208201905081810360008301526117ea816117ae565b9050919050565b7f4f776e61626c653a206e6577206f776e657220697320746865207a65726f206160008201527f6464726573730000000000000000000000000000000000000000000000000000602082015250565b600061184d602683610fe6565b9150611858826117f1565b604082019050919050565b6000602082019050818103600083015261187c81611840565b905091905056fea2646970667358221220c79fb575623a4d2344853789b8bfcf56aa37880f5209072addcdcbd746c94a3864736f6c634300080a0033",
  "immutableReferences": {},
  "source": "// SPDX-License-Identifier: MIT\npragma solidity ^0.8.10;\n\nimport \"@openzeppelin/contracts-upgradeable/access/OwnableUpgradeable.sol\";\n\ncontract PhraseV3 is OwnableUpgradeable {\n    string private storedData;\n    address[] private transactionHistoryAddresses;\n    string[] private transactionHistoryPhrases;\n\n    function initialize() public initializer {\n        __Ownable_init();\n    }\n\n    function alive() public pure returns (bool) {\n        return true;\n    }\n\n    function getBalance() public view onlyOwner returns (uint256) {\n        return address(this).balance;\n    }\n\n    function ownerWithdraw() public onlyOwner {\n        (bool success, ) = owner().call{value: address(this).balance}(\"\");\n        require(success, \"ownerWithdraw failed\");\n    }\n\n    function addWord(string memory word) public payable {\n        require(\n            bytes(word).length > 0 && bytes(word).length <= 42,\n            \"word must be between 1 than 42 characters, inclusive\"\n        );\n        require(\n            msg.value == 0.01 ether,\n            \"You must provide 0.01 ether to add a word\"\n        );\n\n        if (bytes(storedData).length == 0) {\n            storedData = word;\n        } else {\n            storedData = string(abi.encodePacked(storedData, \" \", word));\n        }\n\n        transactionHistoryAddresses.push(msg.sender);\n        transactionHistoryPhrases.push(word);\n    }\n\n    function getPhrase() public view returns (string memory) {\n        return storedData;\n    }\n\n    function getTransactionHistory()\n        public\n        view\n        returns (address[] memory, string[] memory)\n    {\n        return (transactionHistoryAddresses, transactionHistoryPhrases);\n    }\n}\n",
  "sourcePath": "/home/jdubedition/codestore/dapp-owaat/contracts/PhraseV3.sol",
  "compiler": {
    "name": "solc",
    "version": "0.8.10+commit.fc410830.Emscripten.clang"
  },
  "schemaVersion": "3.4.3",
  "updatedAt": "2021-12-11T19:28:24.648Z",
  "devdoc": {
    "kind": "dev",
    "methods": {
      "owner()": {
        "details": "Returns the address of the current owner."
      },
      "renounceOwnership()": {
        "details": "Leaves the contract without owner. It will not be possible to call `onlyOwner` functions anymore. Can only be called by the current owner. NOTE: Renouncing ownership will leave the contract without an owner, thereby removing any functionality that is only available to the owner."
      },
      "transferOwnership(address)": {
        "details": "Transfers ownership of the contract to a new account (`newOwner`). Can only be called by the current owner."
      }
    },
    "version": 1
  },
  "userdoc": {
    "kind": "user",
    "methods": {},
    "version": 1
  }
}