{
  "contractName": "Phrase",
  "abi": [
    {
      "inputs": [
        {
          "internalType": "string",
          "name": "word",
          "type": "string"
        }
      ],
      "name": "addWord",
      "outputs": [],
      "stateMutability": "nonpayable",
      "type": "function"
    },
    {
      "inputs": [],
      "name": "getPhrase",
      "outputs": [
        {
          "internalType": "string",
          "name": "",
          "type": "string"
        }
      ],
      "stateMutability": "view",
      "type": "function",
      "constant": true
    },
    {
      "inputs": [],
      "name": "getTransactionHistory",
      "outputs": [
        {
          "internalType": "address[]",
          "name": "",
          "type": "address[]"
        },
        {
          "internalType": "string[]",
          "name": "",
          "type": "string[]"
        }
      ],
      "stateMutability": "view",
      "type": "function",
      "constant": true
    }
  ],
  "bytecode": "0x608060405234801561001057600080fd5b50610ab2806100206000396000f3fe608060405234801561001057600080fd5b50600436106100415760003560e01c80634974da81146100465780635ce2b53914610062578063b76d4fc314610080575b600080fd5b610060600480360381019061005b919061053c565b61009f565b005b61006a6101ad565b604051610077919061060d565b60405180910390f35b6100886101d5565b60405161009692919061082b565b60405180910390f35b60008080546100ad90610891565b905014156100d15780600090805190602001906100cb92919061033f565b5061010b565b6000816040516020016100e59291906109df565b6040516020818303038152906040526000908051906020019061010992919061033f565b505b6001339080600181540180825580915050600190039060005260206000200160009091909190916101000a81548173ffffffffffffffffffffffffffffffffffffffff021916908373ffffffffffffffffffffffffffffffffffffffff1602179055506002819080600181540180825580915050600190039060005260206000200160009091909190915090805190602001906101a992919061033f565b5050565b606060006040516020016101c19190610a5a565b604051602081830303815290604052905090565b606080600160028180548060200260200160405190810160405280929190818152602001828054801561025d57602002820191906000526020600020905b8160009054906101000a900473ffffffffffffffffffffffffffffffffffffffff1673ffffffffffffffffffffffffffffffffffffffff1681526020019060010190808311610213575b5050505050915080805480602002602001604051908101604052809291908181526020016000905b828210156103315783829060005260206000200180546102a490610891565b80601f01602080910402602001604051908101604052809291908181526020018280546102d090610891565b801561031d5780601f106102f25761010080835404028352916020019161031d565b820191906000526020600020905b81548152906001019060200180831161030057829003601f168201915b505050505081526020019060010190610285565b505050509050915091509091565b82805461034b90610891565b90600052602060002090601f01602090048101928261036d57600085556103b4565b82601f1061038657805160ff19168380011785556103b4565b828001600101855582156103b4579182015b828111156103b3578251825591602001919060010190610398565b5b5090506103c191906103c5565b5090565b5b808211156103de5760008160009055506001016103c6565b5090565b6000604051905090565b600080fd5b600080fd5b600080fd5b600080fd5b6000601f19601f8301169050919050565b7f4e487b7100000000000000000000000000000000000000000000000000000000600052604160045260246000fd5b61044982610400565b810181811067ffffffffffffffff8211171561046857610467610411565b5b80604052505050565b600061047b6103e2565b90506104878282610440565b919050565b600067ffffffffffffffff8211156104a7576104a6610411565b5b6104b082610400565b9050602081019050919050565b82818337600083830152505050565b60006104df6104da8461048c565b610471565b9050828152602081018484840111156104fb576104fa6103fb565b5b6105068482856104bd565b509392505050565b600082601f830112610523576105226103f6565b5b81356105338482602086016104cc565b91505092915050565b600060208284031215610552576105516103ec565b5b600082013567ffffffffffffffff8111156105705761056f6103f1565b5b61057c8482850161050e565b91505092915050565b600081519050919050565b600082825260208201905092915050565b60005b838110156105bf5780820151818401526020810190506105a4565b838111156105ce576000848401525b50505050565b60006105df82610585565b6105e98185610590565b93506105f98185602086016105a1565b61060281610400565b840191505092915050565b6000602082019050818103600083015261062781846105d4565b905092915050565b600081519050919050565b600082825260208201905092915050565b6000819050602082019050919050565b600073ffffffffffffffffffffffffffffffffffffffff82169050919050565b60006106868261065b565b9050919050565b6106968161067b565b82525050565b60006106a8838361068d565b60208301905092915050565b6000602082019050919050565b60006106cc8261062f565b6106d6818561063a565b93506106e18361064b565b8060005b838110156107125781516106f9888261069c565b9750610704836106b4565b9250506001810190506106e5565b5085935050505092915050565b600081519050919050565b600082825260208201905092915050565b6000819050602082019050919050565b600082825260208201905092915050565b600061076782610585565b610771818561074b565b93506107818185602086016105a1565b61078a81610400565b840191505092915050565b60006107a1838361075c565b905092915050565b6000602082019050919050565b60006107c18261071f565b6107cb818561072a565b9350836020820285016107dd8561073b565b8060005b8581101561081957848403895281516107fa8582610795565b9450610805836107a9565b925060208a019950506001810190506107e1565b50829750879550505050505092915050565b6000604082019050818103600083015261084581856106c1565b9050818103602083015261085981846107b6565b90509392505050565b7f4e487b7100000000000000000000000000000000000000000000000000000000600052602260045260246000fd5b600060028204905060018216806108a957607f821691505b602082108114156108bd576108bc610862565b5b50919050565b600081905092915050565b60008190508160005260206000209050919050565b600081546108f081610891565b6108fa81866108c3565b94506001821660008114610915576001811461092657610959565b60ff19831686528186019350610959565b61092f856108ce565b60005b8381101561095157815481890152600182019150602081019050610932565b838801955050505b50505092915050565b7f2000000000000000000000000000000000000000000000000000000000000000600082015250565b60006109986001836108c3565b91506109a382610962565b600182019050919050565b60006109b982610585565b6109c381856108c3565b93506109d38185602086016105a1565b80840191505092915050565b60006109eb82856108e3565b91506109f68261098b565b9150610a0282846109ae565b91508190509392505050565b7f4f6e63652075706f6e20612074696d6520000000000000000000000000000000600082015250565b6000610a446011836108c3565b9150610a4f82610a0e565b601182019050919050565b6000610a6582610a37565b9150610a7182846108e3565b91508190509291505056fea2646970667358221220342431839a18e6093fcb191cbb80f421e74e169e97cca2aa33e1c5fbd490410c64736f6c634300080a0033",
  "immutableReferences": {},
  "source": "// SPDX-License-Identifier: MIT\npragma solidity ^0.8.9;\n\ncontract Phrase {\n    string storedData;\n\n    // function addWord(string memory word) public {\n    //     if (bytes(storedData).length == 0) {\n    //         storedData = word;\n    //     } else {\n    //         storedData = string(abi.encodePacked(storedData, \" \", word));\n    //     }\n    // }\n\n    // function getPhrase() public view returns (string memory) {\n    //     return storedData;\n    // }\n\n    address[] transactionHistoryAddresses;\n    string[] transactionHistoryPhrases;\n\n    function addWord(string memory word) public {\n        if (bytes(storedData).length == 0) {\n            storedData = word;\n        } else {\n            storedData = string(abi.encodePacked(storedData, \" \", word));\n        }\n        transactionHistoryAddresses.push(msg.sender);\n        transactionHistoryPhrases.push(word);\n    }\n\n    function getPhrase() public view returns (string memory) {\n        // Would actually make this change in client, but wanted to show how to upgrade\n        // contracts with this example.  Make sure to look at OpenZeppelin docs for more.\n        return string(abi.encodePacked(\"Once upon a time \", storedData));\n    }\n\n    function getTransactionHistory()\n        public\n        view\n        returns (address[] memory, string[] memory)\n    {\n        return (transactionHistoryAddresses, transactionHistoryPhrases);\n    }\n}\n",
  "sourcePath": "/home/jdubedition/codestore/dapp-owaat/contracts/Phrase.sol",
  "compiler": {
    "name": "solc",
    "version": "0.8.10+commit.fc410830.Emscripten.clang"
  },
  "schemaVersion": "3.4.3",
  "updatedAt": "2021-12-04T19:49:43.896Z",
  "networkType": "ethereum",
  "devdoc": {
    "kind": "dev",
    "methods": {},
    "version": 1
  },
  "userdoc": {
    "kind": "user",
    "methods": {},
    "version": 1
  }
}