{
  "contractName": "Phrase",
  "abi": [
    {
      "anonymous": false,
      "inputs": [
        {
          "indexed": true,
          "internalType": "address",
          "name": "previousOwner",
          "type": "address"
        },
        {
          "indexed": true,
          "internalType": "address",
          "name": "newOwner",
          "type": "address"
        }
      ],
      "name": "OwnershipTransferred",
      "type": "event"
    },
    {
      "inputs": [],
      "name": "owner",
      "outputs": [
        {
          "internalType": "address",
          "name": "",
          "type": "address"
        }
      ],
      "stateMutability": "view",
      "type": "function",
      "constant": true
    },
    {
      "inputs": [],
      "name": "renounceOwnership",
      "outputs": [],
      "stateMutability": "nonpayable",
      "type": "function"
    },
    {
      "inputs": [
        {
          "internalType": "address",
          "name": "newOwner",
          "type": "address"
        }
      ],
      "name": "transferOwnership",
      "outputs": [],
      "stateMutability": "nonpayable",
      "type": "function"
    },
    {
      "inputs": [],
      "name": "initialize",
      "outputs": [],
      "stateMutability": "nonpayable",
      "type": "function"
    },
    {
      "inputs": [],
      "name": "getBalance",
      "outputs": [
        {
          "internalType": "uint256",
          "name": "",
          "type": "uint256"
        }
      ],
      "stateMutability": "view",
      "type": "function",
      "constant": true
    },
    {
      "inputs": [],
      "name": "deposit",
      "outputs": [],
      "stateMutability": "payable",
      "type": "function",
      "payable": true
    },
    {
      "inputs": [
        {
          "internalType": "string",
          "name": "word",
          "type": "string"
        }
      ],
      "name": "addWord",
      "outputs": [],
      "stateMutability": "payable",
      "type": "function",
      "payable": true
    },
    {
      "inputs": [],
      "name": "getPhrase",
      "outputs": [
        {
          "internalType": "string",
          "name": "",
          "type": "string"
        }
      ],
      "stateMutability": "view",
      "type": "function",
      "constant": true
    },
    {
      "inputs": [],
      "name": "getTransactionHistory",
      "outputs": [
        {
          "internalType": "address[]",
          "name": "",
          "type": "address[]"
        },
        {
          "internalType": "string[]",
          "name": "",
          "type": "string[]"
        }
      ],
      "stateMutability": "view",
      "type": "function",
      "constant": true
    }
  ],
  "bytecode": "0x608060405234801561001057600080fd5b5061149a806100206000396000f3fe6080604052600436106100865760003560e01c80638129fc1c116100595780638129fc1c146101145780638da5cb5b1461012b578063b76d4fc314610156578063d0e30db014610182578063f2fde38b1461018c57610086565b806312065fe01461008b5780634974da81146100b65780635ce2b539146100d2578063715018a6146100fd575b600080fd5b34801561009757600080fd5b506100a06101b5565b6040516100ad9190610b9c565b60405180910390f35b6100d060048036038101906100cb9190610d11565b610239565b005b3480156100de57600080fd5b506100e7610348565b6040516100f49190610de2565b60405180910390f35b34801561010957600080fd5b50610112610370565b005b34801561012057600080fd5b506101296103f8565b005b34801561013757600080fd5b506101406104d9565b60405161014d9190610e45565b60405180910390f35b34801561016257600080fd5b5061016b610503565b60405161017992919061102a565b60405180910390f35b61018a61066d565b005b34801561019857600080fd5b506101b360048036038101906101ae919061108d565b61066f565b005b60006101bf610767565b73ffffffffffffffffffffffffffffffffffffffff166101dd6104d9565b73ffffffffffffffffffffffffffffffffffffffff1614610233576040517f08c379a000000000000000000000000000000000000000000000000000000000815260040161022a90611106565b60405180910390fd5b47905090565b60006065805461024890611155565b9050141561026c578060659080519060200190610266929190610ae0565b506102a6565b6065816040516020016102809291906112a3565b604051602081830303815290604052606590805190602001906102a4929190610ae0565b505b6066339080600181540180825580915050600190039060005260206000200160009091909190916101000a81548173ffffffffffffffffffffffffffffffffffffffff021916908373ffffffffffffffffffffffffffffffffffffffff160217905550606781908060018154018082558091505060019003906000526020600020016000909190919091509080519060200190610344929190610ae0565b5050565b6060606560405160200161035c919061131e565b604051602081830303815290604052905090565b610378610767565b73ffffffffffffffffffffffffffffffffffffffff166103966104d9565b73ffffffffffffffffffffffffffffffffffffffff16146103ec576040517f08c379a00000000000000000000000000000000000000000000000000000000081526004016103e390611106565b60405180910390fd5b6103f6600061076f565b565b600060019054906101000a900460ff168061041e575060008054906101000a900460ff16155b61045d576040517f08c379a0000000000000000000000000000000000000000000000000000000008152600401610454906113b2565b60405180910390fd5b60008060019054906101000a900460ff1615905080156104ad576001600060016101000a81548160ff02191690831515021790555060016000806101000a81548160ff0219169083151502179055505b6104b5610835565b80156104d65760008060016101000a81548160ff0219169083151502179055505b50565b6000603360009054906101000a900473ffffffffffffffffffffffffffffffffffffffff16905090565b606080606660678180548060200260200160405190810160405280929190818152602001828054801561058b57602002820191906000526020600020905b8160009054906101000a900473ffffffffffffffffffffffffffffffffffffffff1673ffffffffffffffffffffffffffffffffffffffff1681526020019060010190808311610541575b5050505050915080805480602002602001604051908101604052809291908181526020016000905b8282101561065f5783829060005260206000200180546105d290611155565b80601f01602080910402602001604051908101604052809291908181526020018280546105fe90611155565b801561064b5780601f106106205761010080835404028352916020019161064b565b820191906000526020600020905b81548152906001019060200180831161062e57829003601f168201915b5050505050815260200190600101906105b3565b505050509050915091509091565b565b610677610767565b73ffffffffffffffffffffffffffffffffffffffff166106956104d9565b73ffffffffffffffffffffffffffffffffffffffff16146106eb576040517f08c379a00000000000000000000000000000000000000000000000000000000081526004016106e290611106565b60405180910390fd5b600073ffffffffffffffffffffffffffffffffffffffff168173ffffffffffffffffffffffffffffffffffffffff16141561075b576040517f08c379a000000000000000000000000000000000000000000000000000000000815260040161075290611444565b60405180910390fd5b6107648161076f565b50565b600033905090565b6000603360009054906101000a900473ffffffffffffffffffffffffffffffffffffffff16905081603360006101000a81548173ffffffffffffffffffffffffffffffffffffffff021916908373ffffffffffffffffffffffffffffffffffffffff1602179055508173ffffffffffffffffffffffffffffffffffffffff168173ffffffffffffffffffffffffffffffffffffffff167f8be0079c531659141344cd1fd0a4f28419497f9722a3daafe3b4186f6b6457e060405160405180910390a35050565b600060019054906101000a900460ff168061085b575060008054906101000a900460ff16155b61089a576040517f08c379a0000000000000000000000000000000000000000000000000000000008152600401610891906113b2565b60405180910390fd5b60008060019054906101000a900460ff1615905080156108ea576001600060016101000a81548160ff02191690831515021790555060016000806101000a81548160ff0219169083151502179055505b6108f261091e565b6108fa6109f7565b801561091b5760008060016101000a81548160ff0219169083151502179055505b50565b600060019054906101000a900460ff1680610944575060008054906101000a900460ff16155b610983576040517f08c379a000000000000000000000000000000000000000000000000000000000815260040161097a906113b2565b60405180910390fd5b60008060019054906101000a900460ff1615905080156109d3576001600060016101000a81548160ff02191690831515021790555060016000806101000a81548160ff0219169083151502179055505b80156109f45760008060016101000a81548160ff0219169083151502179055505b50565b600060019054906101000a900460ff1680610a1d575060008054906101000a900460ff16155b610a5c576040517f08c379a0000000000000000000000000000000000000000000000000000000008152600401610a53906113b2565b60405180910390fd5b60008060019054906101000a900460ff161590508015610aac576001600060016101000a81548160ff02191690831515021790555060016000806101000a81548160ff0219169083151502179055505b610abc610ab7610767565b61076f565b8015610add5760008060016101000a81548160ff0219169083151502179055505b50565b828054610aec90611155565b90600052602060002090601f016020900481019282610b0e5760008555610b55565b82601f10610b2757805160ff1916838001178555610b55565b82800160010185558215610b55579182015b82811115610b54578251825591602001919060010190610b39565b5b509050610b629190610b66565b5090565b5b80821115610b7f576000816000905550600101610b67565b5090565b6000819050919050565b610b9681610b83565b82525050565b6000602082019050610bb16000830184610b8d565b92915050565b6000604051905090565b600080fd5b600080fd5b600080fd5b600080fd5b6000601f19601f8301169050919050565b7f4e487b7100000000000000000000000000000000000000000000000000000000600052604160045260246000fd5b610c1e82610bd5565b810181811067ffffffffffffffff82111715610c3d57610c3c610be6565b5b80604052505050565b6000610c50610bb7565b9050610c5c8282610c15565b919050565b600067ffffffffffffffff821115610c7c57610c7b610be6565b5b610c8582610bd5565b9050602081019050919050565b82818337600083830152505050565b6000610cb4610caf84610c61565b610c46565b905082815260208101848484011115610cd057610ccf610bd0565b5b610cdb848285610c92565b509392505050565b600082601f830112610cf857610cf7610bcb565b5b8135610d08848260208601610ca1565b91505092915050565b600060208284031215610d2757610d26610bc1565b5b600082013567ffffffffffffffff811115610d4557610d44610bc6565b5b610d5184828501610ce3565b91505092915050565b600081519050919050565b600082825260208201905092915050565b60005b83811015610d94578082015181840152602081019050610d79565b83811115610da3576000848401525b50505050565b6000610db482610d5a565b610dbe8185610d65565b9350610dce818560208601610d76565b610dd781610bd5565b840191505092915050565b60006020820190508181036000830152610dfc8184610da9565b905092915050565b600073ffffffffffffffffffffffffffffffffffffffff82169050919050565b6000610e2f82610e04565b9050919050565b610e3f81610e24565b82525050565b6000602082019050610e5a6000830184610e36565b92915050565b600081519050919050565b600082825260208201905092915050565b6000819050602082019050919050565b610e9581610e24565b82525050565b6000610ea78383610e8c565b60208301905092915050565b6000602082019050919050565b6000610ecb82610e60565b610ed58185610e6b565b9350610ee083610e7c565b8060005b83811015610f11578151610ef88882610e9b565b9750610f0383610eb3565b925050600181019050610ee4565b5085935050505092915050565b600081519050919050565b600082825260208201905092915050565b6000819050602082019050919050565b600082825260208201905092915050565b6000610f6682610d5a565b610f708185610f4a565b9350610f80818560208601610d76565b610f8981610bd5565b840191505092915050565b6000610fa08383610f5b565b905092915050565b6000602082019050919050565b6000610fc082610f1e565b610fca8185610f29565b935083602082028501610fdc85610f3a565b8060005b858110156110185784840389528151610ff98582610f94565b945061100483610fa8565b925060208a01995050600181019050610fe0565b50829750879550505050505092915050565b600060408201905081810360008301526110448185610ec0565b905081810360208301526110588184610fb5565b90509392505050565b61106a81610e24565b811461107557600080fd5b50565b60008135905061108781611061565b92915050565b6000602082840312156110a3576110a2610bc1565b5b60006110b184828501611078565b91505092915050565b7f4f776e61626c653a2063616c6c6572206973206e6f7420746865206f776e6572600082015250565b60006110f0602083610d65565b91506110fb826110ba565b602082019050919050565b6000602082019050818103600083015261111f816110e3565b9050919050565b7f4e487b7100000000000000000000000000000000000000000000000000000000600052602260045260246000fd5b6000600282049050600182168061116d57607f821691505b6020821081141561118157611180611126565b5b50919050565b600081905092915050565b60008190508160005260206000209050919050565b600081546111b481611155565b6111be8186611187565b945060018216600081146111d957600181146111ea5761121d565b60ff1983168652818601935061121d565b6111f385611192565b60005b83811015611215578154818901526001820191506020810190506111f6565b838801955050505b50505092915050565b7f2000000000000000000000000000000000000000000000000000000000000000600082015250565b600061125c600183611187565b915061126782611226565b600182019050919050565b600061127d82610d5a565b6112878185611187565b9350611297818560208601610d76565b80840191505092915050565b60006112af82856111a7565b91506112ba8261124f565b91506112c68284611272565b91508190509392505050565b7f4f6e63652075706f6e20612074696d6520000000000000000000000000000000600082015250565b6000611308601183611187565b9150611313826112d2565b601182019050919050565b6000611329826112fb565b915061133582846111a7565b915081905092915050565b7f496e697469616c697a61626c653a20636f6e747261637420697320616c72656160008201527f647920696e697469616c697a6564000000000000000000000000000000000000602082015250565b600061139c602e83610d65565b91506113a782611340565b604082019050919050565b600060208201905081810360008301526113cb8161138f565b9050919050565b7f4f776e61626c653a206e6577206f776e657220697320746865207a65726f206160008201527f6464726573730000000000000000000000000000000000000000000000000000602082015250565b600061142e602683610d65565b9150611439826113d2565b604082019050919050565b6000602082019050818103600083015261145d81611421565b905091905056fea264697066735822122006047dc7bd3aa3487b79ee9b6bd4ba2ef0e9d95ec9441b1bd4cf07a291b5d51364736f6c634300080a0033",
  "immutableReferences": {},
  "source": "// SPDX-License-Identifier: MIT\npragma solidity ^0.8.9;\n\nimport \"@openzeppelin/contracts-upgradeable/access/OwnableUpgradeable.sol\";\n\ncontract Phrase is OwnableUpgradeable {\n    string private storedData;\n    address[] private transactionHistoryAddresses;\n    string[] private transactionHistoryPhrases;\n\n    function initialize() public initializer {\n        __Ownable_init();\n    }\n\n    function getBalance() public view onlyOwner returns (uint256) {\n        return address(this).balance;\n    }\n\n    function deposit() public payable {}\n\n    function addWord(string memory word) public payable {\n        if (bytes(storedData).length == 0) {\n            storedData = word;\n        } else {\n            storedData = string(abi.encodePacked(storedData, \" \", word));\n        }\n\n        transactionHistoryAddresses.push(msg.sender);\n        transactionHistoryPhrases.push(word);\n    }\n\n    function getPhrase() public view returns (string memory) {\n        return string(abi.encodePacked(\"Once upon a time \", storedData));\n    }\n\n    function getTransactionHistory()\n        public\n        view\n        returns (address[] memory, string[] memory)\n    {\n        return (transactionHistoryAddresses, transactionHistoryPhrases);\n    }\n}\n",
  "sourcePath": "/home/jdubedition/codestore/dapp-owaat/contracts/Phrase.sol",
  "compiler": {
    "name": "solc",
    "version": "0.8.10+commit.fc410830.Emscripten.clang"
  },
  "schemaVersion": "3.4.3",
  "updatedAt": "2021-12-08T06:56:56.383Z",
  "networkType": "ethereum",
  "devdoc": {
    "kind": "dev",
    "methods": {
      "owner()": {
        "details": "Returns the address of the current owner."
      },
      "renounceOwnership()": {
        "details": "Leaves the contract without owner. It will not be possible to call `onlyOwner` functions anymore. Can only be called by the current owner. NOTE: Renouncing ownership will leave the contract without an owner, thereby removing any functionality that is only available to the owner."
      },
      "transferOwnership(address)": {
        "details": "Transfers ownership of the contract to a new account (`newOwner`). Can only be called by the current owner."
      }
    },
    "version": 1
  },
  "userdoc": {
    "kind": "user",
    "methods": {},
    "version": 1
  }
}