{
  "contractName": "RandomNumberGenerator",
  "abi": [
    {
      "inputs": [],
      "name": "getNumber",
      "outputs": [
        {
          "internalType": "uint256",
          "name": "",
          "type": "uint256"
        }
      ],
      "stateMutability": "view",
      "type": "function",
      "constant": true
    }
  ],
  "bytecode": "0x608060405234801561001057600080fd5b50610191806100206000396000f3fe608060405234801561001057600080fd5b506004361061002b5760003560e01c8063f2c9ecd814610030575b600080fd5b61003861004e565b60405161004591906100a4565b60405180910390f35b6000602b4260405160200161006391906100e0565b6040516020818303038152906040528051906020012060001c610086919061012a565b905090565b6000819050919050565b61009e8161008b565b82525050565b60006020820190506100b96000830184610095565b92915050565b6000819050919050565b6100da6100d58261008b565b6100bf565b82525050565b60006100ec82846100c9565b60208201915081905092915050565b7f4e487b7100000000000000000000000000000000000000000000000000000000600052601260045260246000fd5b60006101358261008b565b91506101408361008b565b9250826101505761014f6100fb565b5b82820690509291505056fea264697066735822122077c9d85b1b1f5d14a9b279fcd9bec47500855d7abdb6bc3554eec9d40b41a10c64736f6c634300080a0033",
  "immutableReferences": {},
  "source": "// SPDX-License-Identifier: MIT\npragma solidity ^0.8.9;\n\ncontract RandomNumberGenerator {\n    function getNumber() public view returns (uint256) {\n        return uint256(keccak256(abi.encodePacked(block.timestamp))) % 43;\n    }\n}\n",
  "sourcePath": "/home/jdubedition/codestore/dapp-OWAAT/contracts/RandomNumberGenerator.sol",
  "compiler": {
    "name": "solc",
    "version": "0.8.10+commit.fc410830.Emscripten.clang"
  },
  "schemaVersion": "3.4.3",
  "updatedAt": "2021-11-11T01:42:23.848Z",
  "networkType": "ethereum",
  "devdoc": {
    "kind": "dev",
    "methods": {},
    "version": 1
  },
  "userdoc": {
    "kind": "user",
    "methods": {},
    "version": 1
  }
}