{
  "contractName": "Story",
  "abi": [
    {
      "anonymous": false,
      "inputs": [
        {
          "indexed": true,
          "internalType": "address",
          "name": "previousOwner",
          "type": "address"
        },
        {
          "indexed": true,
          "internalType": "address",
          "name": "newOwner",
          "type": "address"
        }
      ],
      "name": "OwnershipTransferred",
      "type": "event"
    },
    {
      "inputs": [],
      "name": "owner",
      "outputs": [
        {
          "internalType": "address",
          "name": "",
          "type": "address"
        }
      ],
      "stateMutability": "view",
      "type": "function"
    },
    {
      "inputs": [],
      "name": "renounceOwnership",
      "outputs": [],
      "stateMutability": "nonpayable",
      "type": "function"
    },
    {
      "inputs": [
        {
          "internalType": "address",
          "name": "newOwner",
          "type": "address"
        }
      ],
      "name": "transferOwnership",
      "outputs": [],
      "stateMutability": "nonpayable",
      "type": "function"
    },
    {
      "inputs": [],
      "name": "initialize",
      "outputs": [],
      "stateMutability": "nonpayable",
      "type": "function"
    },
    {
      "inputs": [],
      "name": "getNarrativeTitles",
      "outputs": [
        {
          "internalType": "string[2][]",
          "name": "",
          "type": "string[2][]"
        }
      ],
      "stateMutability": "view",
      "type": "function"
    },
    {
      "inputs": [],
      "name": "getNumNarratives",
      "outputs": [
        {
          "internalType": "uint256",
          "name": "",
          "type": "uint256"
        }
      ],
      "stateMutability": "view",
      "type": "function"
    },
    {
      "inputs": [
        {
          "internalType": "string",
          "name": "word",
          "type": "string"
        }
      ],
      "name": "newNarrative",
      "outputs": [],
      "stateMutability": "payable",
      "type": "function"
    },
    {
      "inputs": [],
      "name": "deposit",
      "outputs": [],
      "stateMutability": "payable",
      "type": "function"
    },
    {
      "inputs": [],
      "name": "getBalance",
      "outputs": [
        {
          "internalType": "uint256",
          "name": "",
          "type": "uint256"
        }
      ],
      "stateMutability": "view",
      "type": "function"
    },
    {
      "inputs": [],
      "name": "ownerWithdraw",
      "outputs": [],
      "stateMutability": "nonpayable",
      "type": "function"
    },
    {
      "inputs": [
        {
          "internalType": "string",
          "name": "word",
          "type": "string"
        }
      ],
      "name": "addWord",
      "outputs": [],
      "stateMutability": "payable",
      "type": "function"
    }
  ],
  "bytecode": "0x608060405234801561001057600080fd5b50611a73806100206000396000f3fe60806040526004361061009c5760003560e01c80638da5cb5b116100645780638da5cb5b1461012d578063a8bb704b14610158578063d0e30db014610183578063d2e40fb61461018d578063f2fde38b146101a9578063f47888f4146101d25761009c565b806312065fe0146100a15780634311de8f146100cc5780634974da81146100e3578063715018a6146100ff5780638129fc1c14610116575b600080fd5b3480156100ad57600080fd5b506100b66101fd565b6040516100c39190610f7c565b60405180910390f35b3480156100d857600080fd5b506100e1610281565b005b6100fd60048036038101906100f891906110f1565b6103b3565b005b34801561010b57600080fd5b50610114610451565b005b34801561012257600080fd5b5061012b6104d9565b005b34801561013957600080fd5b5061014261062a565b60405161014f919061117b565b60405180910390f35b34801561016457600080fd5b5061016d610654565b60405161017a9190610f7c565b60405180910390f35b61018b61065e565b005b6101a760048036038101906101a291906110f1565b610660565b005b3480156101b557600080fd5b506101d060048036038101906101cb91906111c2565b610703565b005b3480156101de57600080fd5b506101e76107fb565b6040516101f491906113ef565b60405180910390f35b600061020761099f565b73ffffffffffffffffffffffffffffffffffffffff1661022561062a565b73ffffffffffffffffffffffffffffffffffffffff161461027b576040517f08c379a00000000000000000000000000000000000000000000000000000000081526004016102729061146e565b60405180910390fd5b47905090565b61028961099f565b73ffffffffffffffffffffffffffffffffffffffff166102a761062a565b73ffffffffffffffffffffffffffffffffffffffff16146102fd576040517f08c379a00000000000000000000000000000000000000000000000000000000081526004016102f49061146e565b60405180910390fd5b600061030761062a565b73ffffffffffffffffffffffffffffffffffffffff164760405161032a906114bf565b60006040518083038185875af1925050503d8060008114610367576040519150601f19603f3d011682016040523d82523d6000602084013e61036c565b606091505b50509050806103b0576040517f08c379a00000000000000000000000000000000000000000000000000000000081526004016103a790611520565b60405180910390fd5b50565b600081511180156103c65750602a815111155b610405576040517f08c379a00000000000000000000000000000000000000000000000000000000081526004016103fc906115b2565b60405180910390fd5b662386f26fc10000341461044e576040517f08c379a000000000000000000000000000000000000000000000000000000000815260040161044590611644565b60405180910390fd5b50565b61045961099f565b73ffffffffffffffffffffffffffffffffffffffff1661047761062a565b73ffffffffffffffffffffffffffffffffffffffff16146104cd576040517f08c379a00000000000000000000000000000000000000000000000000000000081526004016104c49061146e565b60405180910390fd5b6104d760006109a7565b565b600060019054906101000a900460ff16806104ff575060008054906101000a900460ff16155b61053e576040517f08c379a0000000000000000000000000000000000000000000000000000000008152600401610535906116d6565b60405180910390fd5b60008060019054906101000a900460ff16159050801561058e576001600060016101000a81548160ff02191690831515021790555060016000806101000a81548160ff0219169083151502179055505b610596610a6d565b6001606581905550600060666000606554815260200190815260200160002090506040518060400160405280600381526020017f5468650000000000000000000000000000000000000000000000000000000000815250816000019080519060200190610604929190610e99565b505080156106275760008060016101000a81548160ff0219169083151502179055505b50565b6000603360009054906101000a900473ffffffffffffffffffffffffffffffffffffffff16905090565b6000606554905090565b565b61066981610b56565b67016345785d8a000034146106b3576040517f08c379a00000000000000000000000000000000000000000000000000000000081526004016106aa90611768565b60405180910390fd5b6001606560008282546106c691906117b7565b9250508190555060006066600060655481526020019081526020016000209050818160000190805190602001906106fe929190610e99565b505050565b61070b61099f565b73ffffffffffffffffffffffffffffffffffffffff1661072961062a565b73ffffffffffffffffffffffffffffffffffffffff161461077f576040517f08c379a00000000000000000000000000000000000000000000000000000000081526004016107769061146e565b60405180910390fd5b600073ffffffffffffffffffffffffffffffffffffffff168173ffffffffffffffffffffffffffffffffffffffff1614156107ef576040517f08c379a00000000000000000000000000000000000000000000000000000000081526004016107e69061187f565b60405180910390fd5b6107f8816109a7565b50565b6060600060655467ffffffffffffffff81111561081b5761081a610fc6565b5b60405190808252806020026020018201604052801561085457816020015b610841610f1f565b8152602001906001900390816108395790505b50905060005b6065548110156109975761086d81610b76565b8282815181106108805761087f61189f565b5b602002602001015160006002811061089b5761089a61189f565b5b6020020181905250606660006001836108b491906117b7565b815260200190815260200160002060000180546108d0906118fd565b80601f01602080910402602001604051908101604052809291908181526020018280546108fc906118fd565b80156109495780601f1061091e57610100808354040283529160200191610949565b820191906000526020600020905b81548152906001019060200180831161092c57829003601f168201915b50505050508282815181106109615761096061189f565b5b602002602001015160016002811061097c5761097b61189f565b5b6020020181905250808061098f9061192f565b91505061085a565b508091505090565b600033905090565b6000603360009054906101000a900473ffffffffffffffffffffffffffffffffffffffff16905081603360006101000a81548173ffffffffffffffffffffffffffffffffffffffff021916908373ffffffffffffffffffffffffffffffffffffffff1602179055508173ffffffffffffffffffffffffffffffffffffffff168173ffffffffffffffffffffffffffffffffffffffff167f8be0079c531659141344cd1fd0a4f28419497f9722a3daafe3b4186f6b6457e060405160405180910390a35050565b600060019054906101000a900460ff1680610a93575060008054906101000a900460ff16155b610ad2576040517f08c379a0000000000000000000000000000000000000000000000000000000008152600401610ac9906116d6565b60405180910390fd5b60008060019054906101000a900460ff161590508015610b22576001600060016101000a81548160ff02191690831515021790555060016000806101000a81548160ff0219169083151502179055505b610b2a610cd7565b610b32610db0565b8015610b535760008060016101000a81548160ff0219169083151502179055505b50565b6000815111610b6457600080fd5b602a81511115610b7357600080fd5b50565b60606000821415610bbe576040518060400160405280600181526020017f30000000000000000000000000000000000000000000000000000000000000008152509050610cd2565b600082905060005b60008214610bf0578080610bd99061192f565b915050600a82610be991906119a7565b9150610bc6565b60008167ffffffffffffffff811115610c0c57610c0b610fc6565b5b6040519080825280601f01601f191660200182016040528015610c3e5781602001600182028036833780820191505090505b5090505b60008514610ccb57600182610c5791906119d8565b9150600a85610c669190611a0c565b6030610c7291906117b7565b60f81b818381518110610c8857610c8761189f565b5b60200101907effffffffffffffffffffffffffffffffffffffffffffffffffffffffffffff1916908160001a905350600a85610cc491906119a7565b9450610c42565b8093505050505b919050565b600060019054906101000a900460ff1680610cfd575060008054906101000a900460ff16155b610d3c576040517f08c379a0000000000000000000000000000000000000000000000000000000008152600401610d33906116d6565b60405180910390fd5b60008060019054906101000a900460ff161590508015610d8c576001600060016101000a81548160ff02191690831515021790555060016000806101000a81548160ff0219169083151502179055505b8015610dad5760008060016101000a81548160ff0219169083151502179055505b50565b600060019054906101000a900460ff1680610dd6575060008054906101000a900460ff16155b610e15576040517f08c379a0000000000000000000000000000000000000000000000000000000008152600401610e0c906116d6565b60405180910390fd5b60008060019054906101000a900460ff161590508015610e65576001600060016101000a81548160ff02191690831515021790555060016000806101000a81548160ff0219169083151502179055505b610e75610e7061099f565b6109a7565b8015610e965760008060016101000a81548160ff0219169083151502179055505b50565b828054610ea5906118fd565b90600052602060002090601f016020900481019282610ec75760008555610f0e565b82601f10610ee057805160ff1916838001178555610f0e565b82800160010185558215610f0e579182015b82811115610f0d578251825591602001919060010190610ef2565b5b509050610f1b9190610f46565b5090565b60405180604001604052806002905b6060815260200190600190039081610f2e5790505090565b5b80821115610f5f576000816000905550600101610f47565b5090565b6000819050919050565b610f7681610f63565b82525050565b6000602082019050610f916000830184610f6d565b92915050565b6000604051905090565b600080fd5b600080fd5b600080fd5b600080fd5b6000601f19601f8301169050919050565b7f4e487b7100000000000000000000000000000000000000000000000000000000600052604160045260246000fd5b610ffe82610fb5565b810181811067ffffffffffffffff8211171561101d5761101c610fc6565b5b80604052505050565b6000611030610f97565b905061103c8282610ff5565b919050565b600067ffffffffffffffff82111561105c5761105b610fc6565b5b61106582610fb5565b9050602081019050919050565b82818337600083830152505050565b600061109461108f84611041565b611026565b9050828152602081018484840111156110b0576110af610fb0565b5b6110bb848285611072565b509392505050565b600082601f8301126110d8576110d7610fab565b5b81356110e8848260208601611081565b91505092915050565b60006020828403121561110757611106610fa1565b5b600082013567ffffffffffffffff81111561112557611124610fa6565b5b611131848285016110c3565b91505092915050565b600073ffffffffffffffffffffffffffffffffffffffff82169050919050565b60006111658261113a565b9050919050565b6111758161115a565b82525050565b6000602082019050611190600083018461116c565b92915050565b61119f8161115a565b81146111aa57600080fd5b50565b6000813590506111bc81611196565b92915050565b6000602082840312156111d8576111d7610fa1565b5b60006111e6848285016111ad565b91505092915050565b600081519050919050565b600082825260208201905092915050565b6000819050602082019050919050565b600060029050919050565b600081905092915050565b6000819050919050565b600081519050919050565b600082825260208201905092915050565b60005b8381101561127557808201518184015260208101905061125a565b83811115611284576000848401525b50505050565b60006112958261123b565b61129f8185611246565b93506112af818560208601611257565b6112b881610fb5565b840191505092915050565b60006112cf838361128a565b905092915050565b6000602082019050919050565b60006112ef8261121b565b6112f98185611226565b93508360208202850161130b85611231565b8060005b85811015611347578484038952815161132885826112c3565b9450611333836112d7565b925060208a0199505060018101905061130f565b50829750879550505050505092915050565b600061136583836112e4565b905092915050565b6000602082019050919050565b6000611385826111ef565b61138f81856111fa565b9350836020820285016113a18561120b565b8060005b858110156113dd57848403895281516113be8582611359565b94506113c98361136d565b925060208a019950506001810190506113a5565b50829750879550505050505092915050565b60006020820190508181036000830152611409818461137a565b905092915050565b600082825260208201905092915050565b7f4f776e61626c653a2063616c6c6572206973206e6f7420746865206f776e6572600082015250565b6000611458602083611411565b915061146382611422565b602082019050919050565b600060208201905081810360008301526114878161144b565b9050919050565b600081905092915050565b50565b60006114a960008361148e565b91506114b482611499565b600082019050919050565b60006114ca8261149c565b9150819050919050565b7f6f776e65725769746864726177206661696c6564000000000000000000000000600082015250565b600061150a601483611411565b9150611515826114d4565b602082019050919050565b60006020820190508181036000830152611539816114fd565b9050919050565b7f776f7264206d757374206265206265747765656e2031207468616e203432206360008201527f6861726163746572732c20696e636c7573697665000000000000000000000000602082015250565b600061159c603483611411565b91506115a782611540565b604082019050919050565b600060208201905081810360008301526115cb8161158f565b9050919050565b7f596f75206d7573742070726f7669646520302e303120657468657220746f206160008201527f6464206120776f72640000000000000000000000000000000000000000000000602082015250565b600061162e602983611411565b9150611639826115d2565b604082019050919050565b6000602082019050818103600083015261165d81611621565b9050919050565b7f496e697469616c697a61626c653a20636f6e747261637420697320616c72656160008201527f647920696e697469616c697a6564000000000000000000000000000000000000602082015250565b60006116c0602e83611411565b91506116cb82611664565b604082019050919050565b600060208201905081810360008301526116ef816116b3565b9050919050565b7f596f75206d7573742070726f7669646520302e3120657468657220746f20637260008201527f656174652061206e65772073746f727900000000000000000000000000000000602082015250565b6000611752603083611411565b915061175d826116f6565b604082019050919050565b6000602082019050818103600083015261178181611745565b9050919050565b7f4e487b7100000000000000000000000000000000000000000000000000000000600052601160045260246000fd5b60006117c282610f63565b91506117cd83610f63565b9250827fffffffffffffffffffffffffffffffffffffffffffffffffffffffffffffffff0382111561180257611801611788565b5b828201905092915050565b7f4f776e61626c653a206e6577206f776e657220697320746865207a65726f206160008201527f6464726573730000000000000000000000000000000000000000000000000000602082015250565b6000611869602683611411565b91506118748261180d565b604082019050919050565b600060208201905081810360008301526118988161185c565b9050919050565b7f4e487b7100000000000000000000000000000000000000000000000000000000600052603260045260246000fd5b7f4e487b7100000000000000000000000000000000000000000000000000000000600052602260045260246000fd5b6000600282049050600182168061191557607f821691505b60208210811415611929576119286118ce565b5b50919050565b600061193a82610f63565b91507fffffffffffffffffffffffffffffffffffffffffffffffffffffffffffffffff82141561196d5761196c611788565b5b600182019050919050565b7f4e487b7100000000000000000000000000000000000000000000000000000000600052601260045260246000fd5b60006119b282610f63565b91506119bd83610f63565b9250826119cd576119cc611978565b5b828204905092915050565b60006119e382610f63565b91506119ee83610f63565b925082821015611a0157611a00611788565b5b828203905092915050565b6000611a1782610f63565b9150611a2283610f63565b925082611a3257611a31611978565b5b82820690509291505056fea2646970667358221220c51d7315e0fa381a46f30479584273f2ccbc0c8fdfca14965a9b80c77277cc0964736f6c634300080a0033",
  "immutableReferences": {},
  "source": "// SPDX-License-Identifier: MIT\npragma solidity ^0.8.10;\n\nimport \"@openzeppelin/contracts-upgradeable/access/OwnableUpgradeable.sol\";\nimport \"@openzeppelin/contracts-upgradeable/utils/StringsUpgradeable.sol\";\n\ncontract Story is OwnableUpgradeable {\n    // string private storedData;\n    // address[] private transactionHistoryAddresses;\n    // string[] private transactionHistoryPhrases;\n    uint256 private numNarratives;\n    mapping(uint256 => Narrative) private narratives;\n\n    struct Narrative {\n        string title;\n        string narrative;\n        address[] transactionHistoryAddresses;\n        string[] transactionHistoryPhrases;\n    }\n\n    function initialize() public initializer {\n        __Ownable_init();\n        numNarratives = 1;\n        Narrative storage nar = narratives[numNarratives];\n        nar.title = \"The\";\n    }\n\n    function validateWord(string memory word) private pure {\n        require(bytes(word).length > 0);\n        require(bytes(word).length <= 42);\n    }\n\n    function getNarrativeTitles() public view returns (string[2][] memory) {\n        string[2][] memory titles = new string[2][](numNarratives);\n        for (uint256 i = 0; i < numNarratives; i++) {\n            titles[i][0] = StringsUpgradeable.toString(i);\n            titles[i][1] = narratives[i + 1].title;\n        }\n        return titles;\n    }\n\n    function getNumNarratives() public view returns (uint256) {\n        return numNarratives;\n    }\n\n    function newNarrative(string memory word) public payable {\n        validateWord(word);\n        require(\n            msg.value == 0.1 ether,\n            \"You must provide 0.1 ether to create a new story\"\n        );\n        numNarratives += 1;\n        Narrative storage nar = narratives[numNarratives];\n        nar.title = word;\n    }\n\n    function deposit() public payable {}\n\n    function getBalance() public view onlyOwner returns (uint256) {\n        return address(this).balance;\n    }\n\n    function ownerWithdraw() public onlyOwner {\n        (bool success, ) = owner().call{value: address(this).balance}(\"\");\n        require(success, \"ownerWithdraw failed\");\n    }\n\n    function addWord(string memory word) public payable {\n        require(\n            bytes(word).length > 0 && bytes(word).length <= 42,\n            \"word must be between 1 than 42 characters, inclusive\"\n        );\n        require(\n            msg.value == 0.01 ether,\n            \"You must provide 0.01 ether to add a word\"\n        );\n\n        // if (bytes(storedData).length == 0) {\n        //     storedData = word;\n        // } else {\n        //     storedData = string(abi.encodePacked(storedData, \" \", word));\n        // }\n\n        // transactionHistoryAddresses.push(msg.sender);\n        // transactionHistoryPhrases.push(word);\n    }\n\n    // function getPhrase() public view returns (string memory) {\n    //     return storedData;\n    // }\n\n    // function getTransactionHistory()\n    //     public\n    //     view\n    //     returns (address[] memory, string[] memory)\n    // {\n    //     return (transactionHistoryAddresses, transactionHistoryPhrases);\n    // }\n}\n",
  "sourcePath": "/home/jdubedition/codestore/dapp-owaat/contracts/Story.sol",
  "compiler": {
    "name": "solc",
    "version": "0.8.10+commit.fc410830.Emscripten.clang"
  },
  "schemaVersion": "3.4.3",
  "updatedAt": "2021-12-13T03:08:46.804Z",
  "devdoc": {
    "kind": "dev",
    "methods": {
      "owner()": {
        "details": "Returns the address of the current owner."
      },
      "renounceOwnership()": {
        "details": "Leaves the contract without owner. It will not be possible to call `onlyOwner` functions anymore. Can only be called by the current owner. NOTE: Renouncing ownership will leave the contract without an owner, thereby removing any functionality that is only available to the owner."
      },
      "transferOwnership(address)": {
        "details": "Transfers ownership of the contract to a new account (`newOwner`). Can only be called by the current owner."
      }
    },
    "version": 1
  },
  "userdoc": {
    "kind": "user",
    "methods": {},
    "version": 1
  }
}